{
	"smartC/contracts/Governator.sol": {
		"ELECTION_SYSTEM": {
			"abi": [
				{
					"anonymous": false,
					"inputs": [
						{
							"indexed": false,
							"internalType": "uint256",
							"name": "electionsCounter",
							"type": "uint256"
						}
					],
					"name": "electionStarted",
					"type": "event"
				},
				{
					"anonymous": false,
					"inputs": [
						{
							"indexed": true,
							"internalType": "address",
							"name": "newVoter",
							"type": "address"
						}
					],
					"name": "newVoter",
					"type": "event"
				},
				{
					"anonymous": false,
					"inputs": [
						{
							"indexed": true,
							"internalType": "address",
							"name": "nominator",
							"type": "address"
						},
						{
							"indexed": true,
							"internalType": "address",
							"name": "nominee",
							"type": "address"
						}
					],
					"name": "nomination",
					"type": "event"
				},
				{
					"inputs": [
						{
							"internalType": "uint256",
							"name": "",
							"type": "uint256"
						}
					],
					"name": "Elections",
					"outputs": [
						{
							"internalType": "uint256",
							"name": "electionId",
							"type": "uint256"
						},
						{
							"internalType": "string",
							"name": "purpose",
							"type": "string"
						},
						{
							"internalType": "uint256",
							"name": "totalVotes",
							"type": "uint256"
						},
						{
							"internalType": "bool",
							"name": "exists",
							"type": "bool"
						}
					],
					"stateMutability": "view",
					"type": "function"
				},
				{
					"inputs": [
						{
							"internalType": "address",
							"name": "",
							"type": "address"
						}
					],
					"name": "Voters",
					"outputs": [
						{
							"internalType": "uint256",
							"name": "id",
							"type": "uint256"
						},
						{
							"internalType": "string",
							"name": "name",
							"type": "string"
						},
						{
							"internalType": "string",
							"name": "position",
							"type": "string"
						},
						{
							"internalType": "bool",
							"name": "exists",
							"type": "bool"
						},
						{
							"internalType": "bool",
							"name": "qualified",
							"type": "bool"
						}
					],
					"stateMutability": "view",
					"type": "function"
				},
				{
					"inputs": [
						{
							"internalType": "uint256",
							"name": "",
							"type": "uint256"
						}
					],
					"name": "allVoters",
					"outputs": [
						{
							"internalType": "uint256",
							"name": "id",
							"type": "uint256"
						},
						{
							"internalType": "string",
							"name": "name",
							"type": "string"
						},
						{
							"internalType": "string",
							"name": "position",
							"type": "string"
						},
						{
							"internalType": "bool",
							"name": "exists",
							"type": "bool"
						},
						{
							"internalType": "bool",
							"name": "qualified",
							"type": "bool"
						}
					],
					"stateMutability": "view",
					"type": "function"
				},
				{
					"inputs": [],
					"name": "candidateId",
					"outputs": [
						{
							"internalType": "uint256",
							"name": "",
							"type": "uint256"
						}
					],
					"stateMutability": "view",
					"type": "function"
				},
				{
					"inputs": [],
					"name": "electionsCounter",
					"outputs": [
						{
							"internalType": "uint256",
							"name": "",
							"type": "uint256"
						}
					],
					"stateMutability": "view",
					"type": "function"
				},
				{
					"inputs": [],
					"name": "getAllVoters",
					"outputs": [
						{
							"components": [
								{
									"internalType": "uint256",
									"name": "id",
									"type": "uint256"
								},
								{
									"internalType": "string",
									"name": "name",
									"type": "string"
								},
								{
									"internalType": "string",
									"name": "position",
									"type": "string"
								},
								{
									"internalType": "bool",
									"name": "exists",
									"type": "bool"
								},
								{
									"internalType": "bool",
									"name": "qualified",
									"type": "bool"
								}
							],
							"internalType": "struct ELECTION_SYSTEM.Voter[]",
							"name": "",
							"type": "tuple[]"
						}
					],
					"stateMutability": "view",
					"type": "function"
				},
				{
					"inputs": [
						{
							"internalType": "string",
							"name": "_purpose",
							"type": "string"
						},
						{
							"internalType": "address[]",
							"name": "_candidates",
							"type": "address[]"
						},
						{
							"internalType": "string[2]",
							"name": "_position",
							"type": "string[2]"
						}
					],
					"name": "initiateElection",
					"outputs": [
						{
							"internalType": "bool",
							"name": "",
							"type": "bool"
						}
					],
					"stateMutability": "nonpayable",
					"type": "function"
				},
				{
					"inputs": [
						{
							"internalType": "address",
							"name": "_candidate",
							"type": "address"
						},
						{
							"internalType": "uint256",
							"name": "electionID",
							"type": "uint256"
						}
					],
					"name": "nominateCandidate",
					"outputs": [
						{
							"internalType": "bool",
							"name": "",
							"type": "bool"
						}
					],
					"stateMutability": "nonpayable",
					"type": "function"
				},
				{
					"inputs": [
						{
							"internalType": "string",
							"name": "_name",
							"type": "string"
						}
					],
					"name": "registerVoter",
					"outputs": [
						{
							"internalType": "bool",
							"name": "",
							"type": "bool"
						}
					],
					"stateMutability": "nonpayable",
					"type": "function"
				}
			],
			"devdoc": {
				"kind": "dev",
				"methods": {},
				"version": 1
			},
			"evm": {
				"assembly": "    /* \"smartC/contracts/Governator.sol\":118:3559  contract ELECTION_SYSTEM {... */\n  mstore(0x40, 0x80)\n    /* \"smartC/contracts/Governator.sol\":3517:3518  0 */\n  0x00\n    /* \"smartC/contracts/Governator.sol\":3491:3518  uint public candidateId = 0 */\n  0x03\n  sstore\n    /* \"smartC/contracts/Governator.sol\":3555:3556  0 */\n  0x00\n    /* \"smartC/contracts/Governator.sol\":3524:3556  uint public electionsCounter = 0 */\n  0x04\n  sstore\n    /* \"smartC/contracts/Governator.sol\":118:3559  contract ELECTION_SYSTEM {... */\n  callvalue\n  dup1\n  iszero\n  tag_1\n  jumpi\n  0x00\n  dup1\n  revert\ntag_1:\n  pop\n  dataSize(sub_0)\n  dup1\n  dataOffset(sub_0)\n  0x00\n  codecopy\n  0x00\n  return\nstop\n\nsub_0: assembly {\n        /* \"smartC/contracts/Governator.sol\":118:3559  contract ELECTION_SYSTEM {... */\n      mstore(0x40, 0x80)\n      callvalue\n      dup1\n      iszero\n      tag_1\n      jumpi\n      0x00\n      dup1\n      revert\n    tag_1:\n      pop\n      jumpi(tag_2, lt(calldatasize, 0x04))\n      shr(0xe0, calldataload(0x00))\n      dup1\n      0x6428a486\n      gt\n      tag_12\n      jumpi\n      dup1\n      0x6428a486\n      eq\n      tag_7\n      jumpi\n      dup1\n      0x85650674\n      eq\n      tag_8\n      jumpi\n      dup1\n      0x9f91e6bf\n      eq\n      tag_9\n      jumpi\n      dup1\n      0xf34bbf0c\n      eq\n      tag_10\n      jumpi\n      dup1\n      0xfdedaa8a\n      eq\n      tag_11\n      jumpi\n      jump(tag_2)\n    tag_12:\n      dup1\n      0x065b2430\n      eq\n      tag_3\n      jumpi\n      dup1\n      0x1e9598e2\n      eq\n      tag_4\n      jumpi\n      dup1\n      0x35bbe70e\n      eq\n      tag_5\n      jumpi\n      dup1\n      0x46817041\n      eq\n      tag_6\n      jumpi\n    tag_2:\n      0x00\n      dup1\n      revert\n        /* \"smartC/contracts/Governator.sol\":2664:3399  function initiateElection(... */\n    tag_3:\n      tag_13\n      0x04\n      dup1\n      calldatasize\n      sub\n      dup2\n      add\n      swap1\n      tag_14\n      swap2\n      swap1\n      tag_15\n      jump\t// in\n    tag_14:\n      tag_16\n      jump\t// in\n    tag_13:\n      mload(0x40)\n      tag_17\n      swap2\n      swap1\n      tag_18\n      jump\t// in\n    tag_17:\n      mload(0x40)\n      dup1\n      swap2\n      sub\n      swap1\n      return\n        /* \"smartC/contracts/Governator.sol\":1324:1366  mapping(uint => Election) public Elections */\n    tag_4:\n      tag_19\n      0x04\n      dup1\n      calldatasize\n      sub\n      dup2\n      add\n      swap1\n      tag_20\n      swap2\n      swap1\n      tag_21\n      jump\t// in\n    tag_20:\n      tag_22\n      jump\t// in\n    tag_19:\n      mload(0x40)\n      tag_23\n      swap5\n      swap4\n      swap3\n      swap2\n      swap1\n      tag_24\n      jump\t// in\n    tag_23:\n      mload(0x40)\n      dup1\n      swap2\n      sub\n      swap1\n      return\n        /* \"smartC/contracts/Governator.sol\":2533:2627  function getAllVoters() public view returns (Voter[] memory) {... */\n    tag_5:\n      tag_25\n      tag_26\n      jump\t// in\n    tag_25:\n      mload(0x40)\n      tag_27\n      swap2\n      swap1\n      tag_28\n      jump\t// in\n    tag_27:\n      mload(0x40)\n      dup1\n      swap2\n      sub\n      swap1\n      return\n        /* \"smartC/contracts/Governator.sol\":3524:3556  uint public electionsCounter = 0 */\n    tag_6:\n      tag_29\n      tag_30\n      jump\t// in\n    tag_29:\n      mload(0x40)\n      tag_31\n      swap2\n      swap1\n      tag_32\n      jump\t// in\n    tag_31:\n      mload(0x40)\n      dup1\n      swap2\n      sub\n      swap1\n      return\n        /* \"smartC/contracts/Governator.sol\":2031:2527  function registerVoter(string memory _name) public returns (bool) {... */\n    tag_7:\n      tag_33\n      0x04\n      dup1\n      calldatasize\n      sub\n      dup2\n      add\n      swap1\n      tag_34\n      swap2\n      swap1\n      tag_35\n      jump\t// in\n    tag_34:\n      tag_36\n      jump\t// in\n    tag_33:\n      mload(0x40)\n      tag_37\n      swap2\n      swap1\n      tag_18\n      jump\t// in\n    tag_37:\n      mload(0x40)\n      dup1\n      swap2\n      sub\n      swap1\n      return\n        /* \"smartC/contracts/Governator.sol\":726:750  Voter[] public allVoters */\n    tag_8:\n      tag_38\n      0x04\n      dup1\n      calldatasize\n      sub\n      dup2\n      add\n      swap1\n      tag_39\n      swap2\n      swap1\n      tag_21\n      jump\t// in\n    tag_39:\n      tag_40\n      jump\t// in\n    tag_38:\n      mload(0x40)\n      tag_41\n      swap6\n      swap5\n      swap4\n      swap3\n      swap2\n      swap1\n      tag_42\n      jump\t// in\n    tag_41:\n      mload(0x40)\n      dup1\n      swap2\n      sub\n      swap1\n      return\n        /* \"smartC/contracts/Governator.sol\":3491:3518  uint public candidateId = 0 */\n    tag_9:\n      tag_43\n      tag_44\n      jump\t// in\n    tag_43:\n      mload(0x40)\n      tag_45\n      swap2\n      swap1\n      tag_32\n      jump\t// in\n    tag_45:\n      mload(0x40)\n      dup1\n      swap2\n      sub\n      swap1\n      return\n        /* \"smartC/contracts/Governator.sol\":1440:2001  function nominateCandidate(... */\n    tag_10:\n      tag_46\n      0x04\n      dup1\n      calldatasize\n      sub\n      dup2\n      add\n      swap1\n      tag_47\n      swap2\n      swap1\n      tag_48\n      jump\t// in\n    tag_47:\n      tag_49\n      jump\t// in\n    tag_46:\n      mload(0x40)\n      tag_50\n      swap2\n      swap1\n      tag_18\n      jump\t// in\n    tag_50:\n      mload(0x40)\n      dup1\n      swap2\n      sub\n      swap1\n      return\n        /* \"smartC/contracts/Governator.sol\":681:720  mapping(address => Voter) public Voters */\n    tag_11:\n      tag_51\n      0x04\n      dup1\n      calldatasize\n      sub\n      dup2\n      add\n      swap1\n      tag_52\n      swap2\n      swap1\n      tag_53\n      jump\t// in\n    tag_52:\n      tag_54\n      jump\t// in\n    tag_51:\n      mload(0x40)\n      tag_55\n      swap6\n      swap5\n      swap4\n      swap3\n      swap2\n      swap1\n      tag_42\n      jump\t// in\n    tag_55:\n      mload(0x40)\n      dup1\n      swap2\n      sub\n      swap1\n      return\n        /* \"smartC/contracts/Governator.sol\":2664:3399  function initiateElection(... */\n    tag_16:\n        /* \"smartC/contracts/Governator.sol\":2851:2855  bool */\n      0x00\n        /* \"smartC/contracts/Governator.sol\":2876:2885  Elections */\n      0x02\n        /* \"smartC/contracts/Governator.sol\":2876:2903  Elections[electionsCounter] */\n      0x00\n        /* \"smartC/contracts/Governator.sol\":2886:2902  electionsCounter */\n      sload(0x04)\n        /* \"smartC/contracts/Governator.sol\":2876:2903  Elections[electionsCounter] */\n      dup2\n      mstore\n      0x20\n      add\n      swap1\n      dup2\n      mstore\n      0x20\n      add\n      0x00\n      keccak256\n        /* \"smartC/contracts/Governator.sol\":2876:2910  Elections[electionsCounter].exists */\n      0x06\n      add\n      0x00\n      swap1\n      sload\n      swap1\n      0x0100\n      exp\n      swap1\n      div\n      0xff\n      and\n        /* \"smartC/contracts/Governator.sol\":2875:2910  !Elections[electionsCounter].exists */\n      iszero\n        /* \"smartC/contracts/Governator.sol\":2867:2938  require(!Elections[electionsCounter].exists, \"Election already exists\") */\n      tag_57\n      jumpi\n      mload(0x40)\n      0x08c379a000000000000000000000000000000000000000000000000000000000\n      dup2\n      mstore\n      0x04\n      add\n      tag_58\n      swap1\n      tag_59\n      jump\t// in\n    tag_58:\n      mload(0x40)\n      dup1\n      swap2\n      sub\n      swap1\n      revert\n    tag_57:\n        /* \"smartC/contracts/Governator.sol\":2957:2985  Election storage newElection */\n      0x00\n        /* \"smartC/contracts/Governator.sol\":2988:2997  Elections */\n      0x02\n        /* \"smartC/contracts/Governator.sol\":2988:3015  Elections[electionsCounter] */\n      0x00\n        /* \"smartC/contracts/Governator.sol\":2998:3014  electionsCounter */\n      sload(0x04)\n        /* \"smartC/contracts/Governator.sol\":2988:3015  Elections[electionsCounter] */\n      dup2\n      mstore\n      0x20\n      add\n      swap1\n      dup2\n      mstore\n      0x20\n      add\n      0x00\n      keccak256\n        /* \"smartC/contracts/Governator.sol\":2957:3015  Election storage newElection = Elections[electionsCounter] */\n      swap1\n      pop\n        /* \"smartC/contracts/Governator.sol\":3050:3066  electionsCounter */\n      sload(0x04)\n        /* \"smartC/contracts/Governator.sol\":3025:3036  newElection */\n      dup2\n        /* \"smartC/contracts/Governator.sol\":3025:3047  newElection.electionId */\n      0x00\n      add\n        /* \"smartC/contracts/Governator.sol\":3025:3066  newElection.electionId = electionsCounter */\n      dup2\n      swap1\n      sstore\n      pop\n        /* \"smartC/contracts/Governator.sol\":3098:3106  _purpose */\n      dup5\n        /* \"smartC/contracts/Governator.sol\":3076:3087  newElection */\n      dup2\n        /* \"smartC/contracts/Governator.sol\":3076:3095  newElection.purpose */\n      0x01\n      add\n        /* \"smartC/contracts/Governator.sol\":3076:3106  newElection.purpose = _purpose */\n      swap1\n      dup2\n      tag_60\n      swap2\n      swap1\n      tag_61\n      jump\t// in\n    tag_60:\n      pop\n        /* \"smartC/contracts/Governator.sol\":3141:3152  _candidates */\n      dup4\n        /* \"smartC/contracts/Governator.sol\":3116:3127  newElection */\n      dup2\n        /* \"smartC/contracts/Governator.sol\":3116:3138  newElection.candidates */\n      0x02\n      add\n        /* \"smartC/contracts/Governator.sol\":3116:3152  newElection.candidates = _candidates */\n      swap1\n      dup1\n      mload\n      swap1\n      0x20\n      add\n      swap1\n      tag_62\n      swap3\n      swap2\n      swap1\n      tag_63\n      jump\t// in\n    tag_62:\n      pop\n        /* \"smartC/contracts/Governator.sol\":3185:3194  _position */\n      dup3\n        /* \"smartC/contracts/Governator.sol\":3162:3173  newElection */\n      dup2\n        /* \"smartC/contracts/Governator.sol\":3162:3182  newElection.position */\n      0x03\n      add\n        /* \"smartC/contracts/Governator.sol\":3162:3194  newElection.position = _position */\n      swap1\n      0x02\n      tag_64\n      swap3\n      swap2\n      swap1\n      tag_65\n      jump\t// in\n    tag_64:\n      pop\n        /* \"smartC/contracts/Governator.sol\":3229:3230  0 */\n      0x00\n        /* \"smartC/contracts/Governator.sol\":3204:3215  newElection */\n      dup2\n        /* \"smartC/contracts/Governator.sol\":3204:3226  newElection.totalVotes */\n      0x05\n      add\n        /* \"smartC/contracts/Governator.sol\":3204:3230  newElection.totalVotes = 0 */\n      dup2\n      swap1\n      sstore\n      pop\n        /* \"smartC/contracts/Governator.sol\":3261:3265  true */\n      0x01\n        /* \"smartC/contracts/Governator.sol\":3240:3251  newElection */\n      dup2\n        /* \"smartC/contracts/Governator.sol\":3240:3258  newElection.exists */\n      0x06\n      add\n      0x00\n        /* \"smartC/contracts/Governator.sol\":3240:3265  newElection.exists = true */\n      0x0100\n      exp\n      dup2\n      sload\n      dup2\n      0xff\n      mul\n      not\n      and\n      swap1\n      dup4\n      iszero\n      iszero\n      mul\n      or\n      swap1\n      sstore\n      pop\n        /* \"smartC/contracts/Governator.sol\":3289:3322  electionStarted(electionsCounter) */\n      0x878bb103e2c92788427ea47308fc2c171b1f607553d68c2e7c2e98e6cdb63181\n        /* \"smartC/contracts/Governator.sol\":3305:3321  electionsCounter */\n      sload(0x04)\n        /* \"smartC/contracts/Governator.sol\":3289:3322  electionStarted(electionsCounter) */\n      mload(0x40)\n      tag_66\n      swap2\n      swap1\n      tag_32\n      jump\t// in\n    tag_66:\n      mload(0x40)\n      dup1\n      swap2\n      sub\n      swap1\n      log1\n        /* \"smartC/contracts/Governator.sol\":3370:3371  1 */\n      0x01\n        /* \"smartC/contracts/Governator.sol\":3351:3367  electionsCounter */\n      sload(0x04)\n        /* \"smartC/contracts/Governator.sol\":3351:3371  electionsCounter + 1 */\n      tag_67\n      swap2\n      swap1\n      tag_68\n      jump\t// in\n    tag_67:\n        /* \"smartC/contracts/Governator.sol\":3332:3348  electionsCounter */\n      0x04\n        /* \"smartC/contracts/Governator.sol\":3332:3371  electionsCounter = electionsCounter + 1 */\n      dup2\n      swap1\n      sstore\n      pop\n        /* \"smartC/contracts/Governator.sol\":3388:3392  true */\n      0x01\n        /* \"smartC/contracts/Governator.sol\":3381:3392  return true */\n      swap2\n      pop\n      pop\n        /* \"smartC/contracts/Governator.sol\":2664:3399  function initiateElection(... */\n      swap4\n      swap3\n      pop\n      pop\n      pop\n      jump\t// out\n        /* \"smartC/contracts/Governator.sol\":1324:1366  mapping(uint => Election) public Elections */\n    tag_22:\n      mstore(0x20, 0x02)\n      dup1\n      0x00\n      mstore\n      keccak256(0x00, 0x40)\n      0x00\n      swap2\n      pop\n      swap1\n      pop\n      dup1\n      0x00\n      add\n      sload\n      swap1\n      dup1\n      0x01\n      add\n      dup1\n      sload\n      tag_69\n      swap1\n      tag_70\n      jump\t// in\n    tag_69:\n      dup1\n      0x1f\n      add\n      0x20\n      dup1\n      swap2\n      div\n      mul\n      0x20\n      add\n      mload(0x40)\n      swap1\n      dup2\n      add\n      0x40\n      mstore\n      dup1\n      swap3\n      swap2\n      swap1\n      dup2\n      dup2\n      mstore\n      0x20\n      add\n      dup3\n      dup1\n      sload\n      tag_71\n      swap1\n      tag_70\n      jump\t// in\n    tag_71:\n      dup1\n      iszero\n      tag_72\n      jumpi\n      dup1\n      0x1f\n      lt\n      tag_73\n      jumpi\n      0x0100\n      dup1\n      dup4\n      sload\n      div\n      mul\n      dup4\n      mstore\n      swap2\n      0x20\n      add\n      swap2\n      jump(tag_72)\n    tag_73:\n      dup3\n      add\n      swap2\n      swap1\n      0x00\n      mstore\n      keccak256(0x00, 0x20)\n      swap1\n    tag_74:\n      dup2\n      sload\n      dup2\n      mstore\n      swap1\n      0x01\n      add\n      swap1\n      0x20\n      add\n      dup1\n      dup4\n      gt\n      tag_74\n      jumpi\n      dup3\n      swap1\n      sub\n      0x1f\n      and\n      dup3\n      add\n      swap2\n    tag_72:\n      pop\n      pop\n      pop\n      pop\n      pop\n      swap1\n      dup1\n      0x05\n      add\n      sload\n      swap1\n      dup1\n      0x06\n      add\n      0x00\n      swap1\n      sload\n      swap1\n      0x0100\n      exp\n      swap1\n      div\n      0xff\n      and\n      swap1\n      pop\n      dup5\n      jump\t// out\n        /* \"smartC/contracts/Governator.sol\":2533:2627  function getAllVoters() public view returns (Voter[] memory) {... */\n    tag_26:\n        /* \"smartC/contracts/Governator.sol\":2578:2592  Voter[] memory */\n      0x60\n        /* \"smartC/contracts/Governator.sol\":2611:2620  allVoters */\n      0x01\n        /* \"smartC/contracts/Governator.sol\":2604:2620  return allVoters */\n      dup1\n      sload\n      dup1\n      0x20\n      mul\n      0x20\n      add\n      mload(0x40)\n      swap1\n      dup2\n      add\n      0x40\n      mstore\n      dup1\n      swap3\n      swap2\n      swap1\n      dup2\n      dup2\n      mstore\n      0x20\n      add\n      0x00\n      swap1\n    tag_76:\n      dup3\n      dup3\n      lt\n      iszero\n      tag_77\n      jumpi\n      dup4\n      dup3\n      swap1\n      0x00\n      mstore\n      keccak256(0x00, 0x20)\n      swap1\n      0x04\n      mul\n      add\n      mload(0x40)\n      dup1\n      0xa0\n      add\n      0x40\n      mstore\n      swap1\n      dup2\n      0x00\n      dup3\n      add\n      sload\n      dup2\n      mstore\n      0x20\n      add\n      0x01\n      dup3\n      add\n      dup1\n      sload\n      tag_79\n      swap1\n      tag_70\n      jump\t// in\n    tag_79:\n      dup1\n      0x1f\n      add\n      0x20\n      dup1\n      swap2\n      div\n      mul\n      0x20\n      add\n      mload(0x40)\n      swap1\n      dup2\n      add\n      0x40\n      mstore\n      dup1\n      swap3\n      swap2\n      swap1\n      dup2\n      dup2\n      mstore\n      0x20\n      add\n      dup3\n      dup1\n      sload\n      tag_80\n      swap1\n      tag_70\n      jump\t// in\n    tag_80:\n      dup1\n      iszero\n      tag_81\n      jumpi\n      dup1\n      0x1f\n      lt\n      tag_82\n      jumpi\n      0x0100\n      dup1\n      dup4\n      sload\n      div\n      mul\n      dup4\n      mstore\n      swap2\n      0x20\n      add\n      swap2\n      jump(tag_81)\n    tag_82:\n      dup3\n      add\n      swap2\n      swap1\n      0x00\n      mstore\n      keccak256(0x00, 0x20)\n      swap1\n    tag_83:\n      dup2\n      sload\n      dup2\n      mstore\n      swap1\n      0x01\n      add\n      swap1\n      0x20\n      add\n      dup1\n      dup4\n      gt\n      tag_83\n      jumpi\n      dup3\n      swap1\n      sub\n      0x1f\n      and\n      dup3\n      add\n      swap2\n    tag_81:\n      pop\n      pop\n      pop\n      pop\n      pop\n      dup2\n      mstore\n      0x20\n      add\n      0x02\n      dup3\n      add\n      dup1\n      sload\n      tag_84\n      swap1\n      tag_70\n      jump\t// in\n    tag_84:\n      dup1\n      0x1f\n      add\n      0x20\n      dup1\n      swap2\n      div\n      mul\n      0x20\n      add\n      mload(0x40)\n      swap1\n      dup2\n      add\n      0x40\n      mstore\n      dup1\n      swap3\n      swap2\n      swap1\n      dup2\n      dup2\n      mstore\n      0x20\n      add\n      dup3\n      dup1\n      sload\n      tag_85\n      swap1\n      tag_70\n      jump\t// in\n    tag_85:\n      dup1\n      iszero\n      tag_86\n      jumpi\n      dup1\n      0x1f\n      lt\n      tag_87\n      jumpi\n      0x0100\n      dup1\n      dup4\n      sload\n      div\n      mul\n      dup4\n      mstore\n      swap2\n      0x20\n      add\n      swap2\n      jump(tag_86)\n    tag_87:\n      dup3\n      add\n      swap2\n      swap1\n      0x00\n      mstore\n      keccak256(0x00, 0x20)\n      swap1\n    tag_88:\n      dup2\n      sload\n      dup2\n      mstore\n      swap1\n      0x01\n      add\n      swap1\n      0x20\n      add\n      dup1\n      dup4\n      gt\n      tag_88\n      jumpi\n      dup3\n      swap1\n      sub\n      0x1f\n      and\n      dup3\n      add\n      swap2\n    tag_86:\n      pop\n      pop\n      pop\n      pop\n      pop\n      dup2\n      mstore\n      0x20\n      add\n      0x03\n      dup3\n      add\n      0x00\n      swap1\n      sload\n      swap1\n      0x0100\n      exp\n      swap1\n      div\n      0xff\n      and\n      iszero\n      iszero\n      iszero\n      iszero\n      dup2\n      mstore\n      0x20\n      add\n      0x03\n      dup3\n      add\n      0x01\n      swap1\n      sload\n      swap1\n      0x0100\n      exp\n      swap1\n      div\n      0xff\n      and\n      iszero\n      iszero\n      iszero\n      iszero\n      dup2\n      mstore\n      pop\n      pop\n      dup2\n      mstore\n      0x20\n      add\n      swap1\n      0x01\n      add\n      swap1\n      jump(tag_76)\n    tag_77:\n      pop\n      pop\n      pop\n      pop\n      swap1\n      pop\n        /* \"smartC/contracts/Governator.sol\":2533:2627  function getAllVoters() public view returns (Voter[] memory) {... */\n      swap1\n      jump\t// out\n        /* \"smartC/contracts/Governator.sol\":3524:3556  uint public electionsCounter = 0 */\n    tag_30:\n      sload(0x04)\n      dup2\n      jump\t// out\n        /* \"smartC/contracts/Governator.sol\":2031:2527  function registerVoter(string memory _name) public returns (bool) {... */\n    tag_36:\n        /* \"smartC/contracts/Governator.sol\":2091:2095  bool */\n      0x00\n        /* \"smartC/contracts/Governator.sol\":2116:2122  Voters */\n      dup1\n        /* \"smartC/contracts/Governator.sol\":2116:2134  Voters[msg.sender] */\n      0x00\n        /* \"smartC/contracts/Governator.sol\":2123:2133  msg.sender */\n      caller\n        /* \"smartC/contracts/Governator.sol\":2116:2134  Voters[msg.sender] */\n      0xffffffffffffffffffffffffffffffffffffffff\n      and\n      0xffffffffffffffffffffffffffffffffffffffff\n      and\n      dup2\n      mstore\n      0x20\n      add\n      swap1\n      dup2\n      mstore\n      0x20\n      add\n      0x00\n      keccak256\n        /* \"smartC/contracts/Governator.sol\":2116:2144  Voters[msg.sender].qualified */\n      0x03\n      add\n      0x01\n      swap1\n      sload\n      swap1\n      0x0100\n      exp\n      swap1\n      div\n      0xff\n      and\n        /* \"smartC/contracts/Governator.sol\":2115:2144  !Voters[msg.sender].qualified */\n      iszero\n        /* \"smartC/contracts/Governator.sol\":2107:2171  require(!Voters[msg.sender].qualified, \"CAN ONLY REGISTER ONCE\") */\n      tag_90\n      jumpi\n      mload(0x40)\n      0x08c379a000000000000000000000000000000000000000000000000000000000\n      dup2\n      mstore\n      0x04\n      add\n      tag_91\n      swap1\n      tag_92\n      jump\t// in\n    tag_91:\n      mload(0x40)\n      dup1\n      swap2\n      sub\n      swap1\n      revert\n    tag_90:\n        /* \"smartC/contracts/Governator.sol\":2181:2200  Voter storage voter */\n      0x00\n        /* \"smartC/contracts/Governator.sol\":2203:2209  Voters */\n      dup1\n        /* \"smartC/contracts/Governator.sol\":2203:2221  Voters[msg.sender] */\n      0x00\n        /* \"smartC/contracts/Governator.sol\":2210:2220  msg.sender */\n      caller\n        /* \"smartC/contracts/Governator.sol\":2203:2221  Voters[msg.sender] */\n      0xffffffffffffffffffffffffffffffffffffffff\n      and\n      0xffffffffffffffffffffffffffffffffffffffff\n      and\n      dup2\n      mstore\n      0x20\n      add\n      swap1\n      dup2\n      mstore\n      0x20\n      add\n      0x00\n      keccak256\n        /* \"smartC/contracts/Governator.sol\":2181:2221  Voter storage voter = Voters[msg.sender] */\n      swap1\n      pop\n        /* \"smartC/contracts/Governator.sol\":2282:2293  candidateId */\n      sload(0x03)\n        /* \"smartC/contracts/Governator.sol\":2271:2276  voter */\n      dup2\n        /* \"smartC/contracts/Governator.sol\":2271:2279  voter.id */\n      0x00\n      add\n        /* \"smartC/contracts/Governator.sol\":2271:2293  voter.id = candidateId */\n      dup2\n      swap1\n      sstore\n      pop\n        /* \"smartC/contracts/Governator.sol\":2316:2321  _name */\n      dup3\n        /* \"smartC/contracts/Governator.sol\":2303:2308  voter */\n      dup2\n        /* \"smartC/contracts/Governator.sol\":2303:2313  voter.name */\n      0x01\n      add\n        /* \"smartC/contracts/Governator.sol\":2303:2321  voter.name = _name */\n      swap1\n      dup2\n      tag_93\n      swap2\n      swap1\n      tag_61\n      jump\t// in\n    tag_93:\n      pop\n        /* \"smartC/contracts/Governator.sol\":2331:2350  voter.position = \"\" */\n      mload(0x40)\n      dup1\n      0x20\n      add\n      0x40\n      mstore\n      dup1\n      0x00\n      dup2\n      mstore\n      pop\n        /* \"smartC/contracts/Governator.sol\":2331:2336  voter */\n      dup2\n        /* \"smartC/contracts/Governator.sol\":2331:2345  voter.position */\n      0x02\n      add\n        /* \"smartC/contracts/Governator.sol\":2331:2350  voter.position = \"\" */\n      swap1\n      dup2\n      tag_94\n      swap2\n      swap1\n      tag_61\n      jump\t// in\n    tag_94:\n      pop\n        /* \"smartC/contracts/Governator.sol\":2375:2379  true */\n      0x01\n        /* \"smartC/contracts/Governator.sol\":2360:2365  voter */\n      dup2\n        /* \"smartC/contracts/Governator.sol\":2360:2372  voter.exists */\n      0x03\n      add\n      0x00\n        /* \"smartC/contracts/Governator.sol\":2360:2379  voter.exists = true */\n      0x0100\n      exp\n      dup2\n      sload\n      dup2\n      0xff\n      mul\n      not\n      and\n      swap1\n      dup4\n      iszero\n      iszero\n      mul\n      or\n      swap1\n      sstore\n      pop\n        /* \"smartC/contracts/Governator.sol\":2390:2399  allVoters */\n      0x01\n        /* \"smartC/contracts/Governator.sol\":2405:2411  Voters */\n      0x00\n        /* \"smartC/contracts/Governator.sol\":2405:2423  Voters[msg.sender] */\n      dup1\n        /* \"smartC/contracts/Governator.sol\":2412:2422  msg.sender */\n      caller\n        /* \"smartC/contracts/Governator.sol\":2405:2423  Voters[msg.sender] */\n      0xffffffffffffffffffffffffffffffffffffffff\n      and\n      0xffffffffffffffffffffffffffffffffffffffff\n      and\n      dup2\n      mstore\n      0x20\n      add\n      swap1\n      dup2\n      mstore\n      0x20\n      add\n      0x00\n      keccak256\n        /* \"smartC/contracts/Governator.sol\":2390:2424  allVoters.push(Voters[msg.sender]) */\n      swap1\n      dup1\n      0x01\n      dup2\n      sload\n      add\n      dup1\n      dup3\n      sstore\n      dup1\n      swap2\n      pop\n      pop\n      0x01\n      swap1\n      sub\n      swap1\n      0x00\n      mstore\n      keccak256(0x00, 0x20)\n      swap1\n      0x04\n      mul\n      add\n      0x00\n      swap1\n      swap2\n      swap1\n      swap2\n      swap1\n      swap2\n      pop\n      0x00\n      dup3\n      add\n      sload\n      dup2\n      0x00\n      add\n      sstore\n      0x01\n      dup3\n      add\n      dup2\n      0x01\n      add\n      swap1\n      dup2\n      tag_96\n      swap2\n      swap1\n      tag_97\n      jump\t// in\n    tag_96:\n      pop\n      0x02\n      dup3\n      add\n      dup2\n      0x02\n      add\n      swap1\n      dup2\n      tag_98\n      swap2\n      swap1\n      tag_97\n      jump\t// in\n    tag_98:\n      pop\n      0x03\n      dup3\n      add\n      0x00\n      swap1\n      sload\n      swap1\n      0x0100\n      exp\n      swap1\n      div\n      0xff\n      and\n      dup2\n      0x03\n      add\n      exp(0x0100, 0x00)\n      dup2\n      sload\n      dup2\n      0xff\n      mul\n      not\n      and\n      swap1\n      dup4\n      iszero\n      iszero\n      mul\n      or\n      swap1\n      sstore\n      pop\n      0x03\n      dup3\n      add\n      0x01\n      swap1\n      sload\n      swap1\n      0x0100\n      exp\n      swap1\n      div\n      0xff\n      and\n      dup2\n      0x03\n      add\n      exp(0x0100, 0x01)\n      dup2\n      sload\n      dup2\n      0xff\n      mul\n      not\n      and\n      swap1\n      dup4\n      iszero\n      iszero\n      mul\n      or\n      swap1\n      sstore\n      pop\n      pop\n      pop\n        /* \"smartC/contracts/Governator.sol\":2449:2459  msg.sender */\n      caller\n        /* \"smartC/contracts/Governator.sol\":2440:2460  newVoter(msg.sender) */\n      0xffffffffffffffffffffffffffffffffffffffff\n      and\n      0xf91e406c7179dd602438066c1f63cb1221d2b1904b9d0d2dc96b936aea7e336a\n      mload(0x40)\n      mload(0x40)\n      dup1\n      swap2\n      sub\n      swap1\n      log2\n        /* \"smartC/contracts/Governator.sol\":2498:2499  1 */\n      0x01\n        /* \"smartC/contracts/Governator.sol\":2484:2495  candidateId */\n      sload(0x03)\n        /* \"smartC/contracts/Governator.sol\":2484:2499  candidateId + 1 */\n      tag_99\n      swap2\n      swap1\n      tag_68\n      jump\t// in\n    tag_99:\n        /* \"smartC/contracts/Governator.sol\":2470:2481  candidateId */\n      0x03\n        /* \"smartC/contracts/Governator.sol\":2470:2499  candidateId = candidateId + 1 */\n      dup2\n      swap1\n      sstore\n      pop\n        /* \"smartC/contracts/Governator.sol\":2516:2520  true */\n      0x01\n        /* \"smartC/contracts/Governator.sol\":2509:2520  return true */\n      swap2\n      pop\n      pop\n        /* \"smartC/contracts/Governator.sol\":2031:2527  function registerVoter(string memory _name) public returns (bool) {... */\n      swap2\n      swap1\n      pop\n      jump\t// out\n        /* \"smartC/contracts/Governator.sol\":726:750  Voter[] public allVoters */\n    tag_40:\n      0x01\n      dup2\n      dup2\n      sload\n      dup2\n      lt\n      tag_100\n      jumpi\n      0x00\n      dup1\n      revert\n    tag_100:\n      swap1\n      0x00\n      mstore\n      keccak256(0x00, 0x20)\n      swap1\n      0x04\n      mul\n      add\n      0x00\n      swap2\n      pop\n      swap1\n      pop\n      dup1\n      0x00\n      add\n      sload\n      swap1\n      dup1\n      0x01\n      add\n      dup1\n      sload\n      tag_102\n      swap1\n      tag_70\n      jump\t// in\n    tag_102:\n      dup1\n      0x1f\n      add\n      0x20\n      dup1\n      swap2\n      div\n      mul\n      0x20\n      add\n      mload(0x40)\n      swap1\n      dup2\n      add\n      0x40\n      mstore\n      dup1\n      swap3\n      swap2\n      swap1\n      dup2\n      dup2\n      mstore\n      0x20\n      add\n      dup3\n      dup1\n      sload\n      tag_103\n      swap1\n      tag_70\n      jump\t// in\n    tag_103:\n      dup1\n      iszero\n      tag_104\n      jumpi\n      dup1\n      0x1f\n      lt\n      tag_105\n      jumpi\n      0x0100\n      dup1\n      dup4\n      sload\n      div\n      mul\n      dup4\n      mstore\n      swap2\n      0x20\n      add\n      swap2\n      jump(tag_104)\n    tag_105:\n      dup3\n      add\n      swap2\n      swap1\n      0x00\n      mstore\n      keccak256(0x00, 0x20)\n      swap1\n    tag_106:\n      dup2\n      sload\n      dup2\n      mstore\n      swap1\n      0x01\n      add\n      swap1\n      0x20\n      add\n      dup1\n      dup4\n      gt\n      tag_106\n      jumpi\n      dup3\n      swap1\n      sub\n      0x1f\n      and\n      dup3\n      add\n      swap2\n    tag_104:\n      pop\n      pop\n      pop\n      pop\n      pop\n      swap1\n      dup1\n      0x02\n      add\n      dup1\n      sload\n      tag_107\n      swap1\n      tag_70\n      jump\t// in\n    tag_107:\n      dup1\n      0x1f\n      add\n      0x20\n      dup1\n      swap2\n      div\n      mul\n      0x20\n      add\n      mload(0x40)\n      swap1\n      dup2\n      add\n      0x40\n      mstore\n      dup1\n      swap3\n      swap2\n      swap1\n      dup2\n      dup2\n      mstore\n      0x20\n      add\n      dup3\n      dup1\n      sload\n      tag_108\n      swap1\n      tag_70\n      jump\t// in\n    tag_108:\n      dup1\n      iszero\n      tag_109\n      jumpi\n      dup1\n      0x1f\n      lt\n      tag_110\n      jumpi\n      0x0100\n      dup1\n      dup4\n      sload\n      div\n      mul\n      dup4\n      mstore\n      swap2\n      0x20\n      add\n      swap2\n      jump(tag_109)\n    tag_110:\n      dup3\n      add\n      swap2\n      swap1\n      0x00\n      mstore\n      keccak256(0x00, 0x20)\n      swap1\n    tag_111:\n      dup2\n      sload\n      dup2\n      mstore\n      swap1\n      0x01\n      add\n      swap1\n      0x20\n      add\n      dup1\n      dup4\n      gt\n      tag_111\n      jumpi\n      dup3\n      swap1\n      sub\n      0x1f\n      and\n      dup3\n      add\n      swap2\n    tag_109:\n      pop\n      pop\n      pop\n      pop\n      pop\n      swap1\n      dup1\n      0x03\n      add\n      0x00\n      swap1\n      sload\n      swap1\n      0x0100\n      exp\n      swap1\n      div\n      0xff\n      and\n      swap1\n      dup1\n      0x03\n      add\n      0x01\n      swap1\n      sload\n      swap1\n      0x0100\n      exp\n      swap1\n      div\n      0xff\n      and\n      swap1\n      pop\n      dup6\n      jump\t// out\n        /* \"smartC/contracts/Governator.sol\":3491:3518  uint public candidateId = 0 */\n    tag_44:\n      sload(0x03)\n      dup2\n      jump\t// out\n        /* \"smartC/contracts/Governator.sol\":1440:2001  function nominateCandidate(... */\n    tag_49:\n        /* \"smartC/contracts/Governator.sol\":1542:1546  bool */\n      0x00\n        /* \"smartC/contracts/Governator.sol\":1558:1583  Election storage election */\n      dup1\n        /* \"smartC/contracts/Governator.sol\":1586:1595  Elections */\n      0x02\n        /* \"smartC/contracts/Governator.sol\":1586:1607  Elections[electionID] */\n      0x00\n        /* \"smartC/contracts/Governator.sol\":1596:1606  electionID */\n      dup5\n        /* \"smartC/contracts/Governator.sol\":1586:1607  Elections[electionID] */\n      dup2\n      mstore\n      0x20\n      add\n      swap1\n      dup2\n      mstore\n      0x20\n      add\n      0x00\n      keccak256\n        /* \"smartC/contracts/Governator.sol\":1558:1607  Election storage election = Elections[electionID] */\n      swap1\n      pop\n        /* \"smartC/contracts/Governator.sol\":1622:1628  uint i */\n      0x00\n        /* \"smartC/contracts/Governator.sol\":1617:1821  for (uint i = 0; i < election.candidates.length; i++) {... */\n    tag_113:\n        /* \"smartC/contracts/Governator.sol\":1638:1646  election */\n      dup2\n        /* \"smartC/contracts/Governator.sol\":1638:1657  election.candidates */\n      0x02\n      add\n        /* \"smartC/contracts/Governator.sol\":1638:1664  election.candidates.length */\n      dup1\n      sload\n      swap1\n      pop\n        /* \"smartC/contracts/Governator.sol\":1634:1635  i */\n      dup2\n        /* \"smartC/contracts/Governator.sol\":1634:1664  i < election.candidates.length */\n      lt\n        /* \"smartC/contracts/Governator.sol\":1617:1821  for (uint i = 0; i < election.candidates.length; i++) {... */\n      iszero\n      tag_114\n      jumpi\n        /* \"smartC/contracts/Governator.sol\":1738:1748  _candidate */\n      dup5\n        /* \"smartC/contracts/Governator.sol\":1712:1748  election.candidates[i] == _candidate */\n      0xffffffffffffffffffffffffffffffffffffffff\n      and\n        /* \"smartC/contracts/Governator.sol\":1712:1720  election */\n      dup3\n        /* \"smartC/contracts/Governator.sol\":1712:1731  election.candidates */\n      0x02\n      add\n        /* \"smartC/contracts/Governator.sol\":1732:1733  i */\n      dup3\n        /* \"smartC/contracts/Governator.sol\":1712:1734  election.candidates[i] */\n      dup2\n      sload\n      dup2\n      lt\n      tag_116\n      jumpi\n      tag_117\n      tag_118\n      jump\t// in\n    tag_117:\n    tag_116:\n      swap1\n      0x00\n      mstore\n      keccak256(0x00, 0x20)\n      add\n      0x00\n      swap1\n      sload\n      swap1\n      0x0100\n      exp\n      swap1\n      div\n      0xffffffffffffffffffffffffffffffffffffffff\n      and\n        /* \"smartC/contracts/Governator.sol\":1712:1748  election.candidates[i] == _candidate */\n      0xffffffffffffffffffffffffffffffffffffffff\n      and\n      sub\n        /* \"smartC/contracts/Governator.sol\":1685:1810  require(... */\n      tag_120\n      jumpi\n      mload(0x40)\n      0x08c379a000000000000000000000000000000000000000000000000000000000\n      dup2\n      mstore\n      0x04\n      add\n      tag_121\n      swap1\n      tag_122\n      jump\t// in\n    tag_121:\n      mload(0x40)\n      dup1\n      swap2\n      sub\n      swap1\n      revert\n    tag_120:\n        /* \"smartC/contracts/Governator.sol\":1666:1669  i++ */\n      dup1\n      dup1\n      0x01\n      add\n      swap2\n      pop\n      pop\n        /* \"smartC/contracts/Governator.sol\":1617:1821  for (uint i = 0; i < election.candidates.length; i++) {... */\n      jump(tag_113)\n    tag_114:\n      pop\n        /* \"smartC/contracts/Governator.sol\":1838:1846  election */\n      dup1\n        /* \"smartC/contracts/Governator.sol\":1838:1853  election.exists */\n      0x06\n      add\n      0x00\n      swap1\n      sload\n      swap1\n      0x0100\n      exp\n      swap1\n      div\n      0xff\n      and\n        /* \"smartC/contracts/Governator.sol\":1830:1877  require(election.exists, \"INVALID ELECTION ID\") */\n      tag_123\n      jumpi\n      mload(0x40)\n      0x08c379a000000000000000000000000000000000000000000000000000000000\n      dup2\n      mstore\n      0x04\n      add\n      tag_124\n      swap1\n      tag_125\n      jump\t// in\n    tag_124:\n      mload(0x40)\n      dup1\n      swap2\n      sub\n      swap1\n      revert\n    tag_123:\n        /* \"smartC/contracts/Governator.sol\":1887:1895  election */\n      dup1\n        /* \"smartC/contracts/Governator.sol\":1887:1906  election.candidates */\n      0x02\n      add\n        /* \"smartC/contracts/Governator.sol\":1912:1922  _candidate */\n      dup5\n        /* \"smartC/contracts/Governator.sol\":1887:1923  election.candidates.push(_candidate) */\n      swap1\n      dup1\n      0x01\n      dup2\n      sload\n      add\n      dup1\n      dup3\n      sstore\n      dup1\n      swap2\n      pop\n      pop\n      0x01\n      swap1\n      sub\n      swap1\n      0x00\n      mstore\n      keccak256(0x00, 0x20)\n      add\n      0x00\n      swap1\n      swap2\n      swap1\n      swap2\n      swap1\n      swap2\n      0x0100\n      exp\n      dup2\n      sload\n      dup2\n      0xffffffffffffffffffffffffffffffffffffffff\n      mul\n      not\n      and\n      swap1\n      dup4\n      0xffffffffffffffffffffffffffffffffffffffff\n      and\n      mul\n      or\n      swap1\n      sstore\n      pop\n        /* \"smartC/contracts/Governator.sol\":1962:1972  _candidate */\n      dup4\n        /* \"smartC/contracts/Governator.sol\":1939:1973  nomination(msg.sender, _candidate) */\n      0xffffffffffffffffffffffffffffffffffffffff\n      and\n        /* \"smartC/contracts/Governator.sol\":1950:1960  msg.sender */\n      caller\n        /* \"smartC/contracts/Governator.sol\":1939:1973  nomination(msg.sender, _candidate) */\n      0xffffffffffffffffffffffffffffffffffffffff\n      and\n      0x0a670283ffe8576680acd5bee3864eb87dba2c4e3e519ca802a35007a65d1f84\n      mload(0x40)\n      mload(0x40)\n      dup1\n      swap2\n      sub\n      swap1\n      log3\n        /* \"smartC/contracts/Governator.sol\":1990:1994  true */\n      0x01\n        /* \"smartC/contracts/Governator.sol\":1983:1994  return true */\n      swap2\n      pop\n      pop\n        /* \"smartC/contracts/Governator.sol\":1440:2001  function nominateCandidate(... */\n      swap3\n      swap2\n      pop\n      pop\n      jump\t// out\n        /* \"smartC/contracts/Governator.sol\":681:720  mapping(address => Voter) public Voters */\n    tag_54:\n      mstore(0x20, 0x00)\n      dup1\n      0x00\n      mstore\n      keccak256(0x00, 0x40)\n      0x00\n      swap2\n      pop\n      swap1\n      pop\n      dup1\n      0x00\n      add\n      sload\n      swap1\n      dup1\n      0x01\n      add\n      dup1\n      sload\n      tag_127\n      swap1\n      tag_70\n      jump\t// in\n    tag_127:\n      dup1\n      0x1f\n      add\n      0x20\n      dup1\n      swap2\n      div\n      mul\n      0x20\n      add\n      mload(0x40)\n      swap1\n      dup2\n      add\n      0x40\n      mstore\n      dup1\n      swap3\n      swap2\n      swap1\n      dup2\n      dup2\n      mstore\n      0x20\n      add\n      dup3\n      dup1\n      sload\n      tag_128\n      swap1\n      tag_70\n      jump\t// in\n    tag_128:\n      dup1\n      iszero\n      tag_129\n      jumpi\n      dup1\n      0x1f\n      lt\n      tag_130\n      jumpi\n      0x0100\n      dup1\n      dup4\n      sload\n      div\n      mul\n      dup4\n      mstore\n      swap2\n      0x20\n      add\n      swap2\n      jump(tag_129)\n    tag_130:\n      dup3\n      add\n      swap2\n      swap1\n      0x00\n      mstore\n      keccak256(0x00, 0x20)\n      swap1\n    tag_131:\n      dup2\n      sload\n      dup2\n      mstore\n      swap1\n      0x01\n      add\n      swap1\n      0x20\n      add\n      dup1\n      dup4\n      gt\n      tag_131\n      jumpi\n      dup3\n      swap1\n      sub\n      0x1f\n      and\n      dup3\n      add\n      swap2\n    tag_129:\n      pop\n      pop\n      pop\n      pop\n      pop\n      swap1\n      dup1\n      0x02\n      add\n      dup1\n      sload\n      tag_132\n      swap1\n      tag_70\n      jump\t// in\n    tag_132:\n      dup1\n      0x1f\n      add\n      0x20\n      dup1\n      swap2\n      div\n      mul\n      0x20\n      add\n      mload(0x40)\n      swap1\n      dup2\n      add\n      0x40\n      mstore\n      dup1\n      swap3\n      swap2\n      swap1\n      dup2\n      dup2\n      mstore\n      0x20\n      add\n      dup3\n      dup1\n      sload\n      tag_133\n      swap1\n      tag_70\n      jump\t// in\n    tag_133:\n      dup1\n      iszero\n      tag_134\n      jumpi\n      dup1\n      0x1f\n      lt\n      tag_135\n      jumpi\n      0x0100\n      dup1\n      dup4\n      sload\n      div\n      mul\n      dup4\n      mstore\n      swap2\n      0x20\n      add\n      swap2\n      jump(tag_134)\n    tag_135:\n      dup3\n      add\n      swap2\n      swap1\n      0x00\n      mstore\n      keccak256(0x00, 0x20)\n      swap1\n    tag_136:\n      dup2\n      sload\n      dup2\n      mstore\n      swap1\n      0x01\n      add\n      swap1\n      0x20\n      add\n      dup1\n      dup4\n      gt\n      tag_136\n      jumpi\n      dup3\n      swap1\n      sub\n      0x1f\n      and\n      dup3\n      add\n      swap2\n    tag_134:\n      pop\n      pop\n      pop\n      pop\n      pop\n      swap1\n      dup1\n      0x03\n      add\n      0x00\n      swap1\n      sload\n      swap1\n      0x0100\n      exp\n      swap1\n      div\n      0xff\n      and\n      swap1\n      dup1\n      0x03\n      add\n      0x01\n      swap1\n      sload\n      swap1\n      0x0100\n      exp\n      swap1\n      div\n      0xff\n      and\n      swap1\n      pop\n      dup6\n      jump\t// out\n    tag_63:\n      dup3\n      dup1\n      sload\n      dup3\n      dup3\n      sstore\n      swap1\n      0x00\n      mstore\n      keccak256(0x00, 0x20)\n      swap1\n      dup2\n      add\n      swap3\n      dup3\n      iszero\n      tag_137\n      jumpi\n      swap2\n      0x20\n      mul\n      dup3\n      add\n    tag_138:\n      dup3\n      dup2\n      gt\n      iszero\n      tag_139\n      jumpi\n      dup3\n      mload\n      dup3\n      exp(0x0100, 0x00)\n      dup2\n      sload\n      dup2\n      0xffffffffffffffffffffffffffffffffffffffff\n      mul\n      not\n      and\n      swap1\n      dup4\n      0xffffffffffffffffffffffffffffffffffffffff\n      and\n      mul\n      or\n      swap1\n      sstore\n      pop\n      swap2\n      0x20\n      add\n      swap2\n      swap1\n      0x01\n      add\n      swap1\n      jump(tag_138)\n    tag_139:\n    tag_137:\n      pop\n      swap1\n      pop\n      tag_140\n      swap2\n      swap1\n      tag_141\n      jump\t// in\n    tag_140:\n      pop\n      swap1\n      jump\t// out\n    tag_65:\n      dup3\n      0x02\n      dup2\n      add\n      swap3\n      dup3\n      iszero\n      tag_142\n      jumpi\n      swap2\n      0x20\n      mul\n      dup3\n      add\n    tag_143:\n      dup3\n      dup2\n      gt\n      iszero\n      tag_144\n      jumpi\n      dup3\n      mload\n      dup3\n      swap1\n      dup2\n      tag_145\n      swap2\n      swap1\n      tag_61\n      jump\t// in\n    tag_145:\n      pop\n      swap2\n      0x20\n      add\n      swap2\n      swap1\n      0x01\n      add\n      swap1\n      jump(tag_143)\n    tag_144:\n    tag_142:\n      pop\n      swap1\n      pop\n      tag_146\n      swap2\n      swap1\n      tag_147\n      jump\t// in\n    tag_146:\n      pop\n      swap1\n      jump\t// out\n    tag_141:\n    tag_148:\n      dup1\n      dup3\n      gt\n      iszero\n      tag_149\n      jumpi\n      0x00\n      dup2\n      0x00\n      swap1\n      sstore\n      pop\n      0x01\n      add\n      jump(tag_148)\n    tag_149:\n      pop\n      swap1\n      jump\t// out\n    tag_147:\n    tag_150:\n      dup1\n      dup3\n      gt\n      iszero\n      tag_151\n      jumpi\n      0x00\n      dup2\n      dup2\n      tag_152\n      swap2\n      swap1\n      tag_153\n      jump\t// in\n    tag_152:\n      pop\n      0x01\n      add\n      jump(tag_150)\n    tag_151:\n      pop\n      swap1\n      jump\t// out\n    tag_153:\n      pop\n      dup1\n      sload\n      tag_154\n      swap1\n      tag_70\n      jump\t// in\n    tag_154:\n      0x00\n      dup3\n      sstore\n      dup1\n      0x1f\n      lt\n      tag_156\n      jumpi\n      pop\n      jump(tag_155)\n    tag_156:\n      0x1f\n      add\n      0x20\n      swap1\n      div\n      swap1\n      0x00\n      mstore\n      keccak256(0x00, 0x20)\n      swap1\n      dup2\n      add\n      swap1\n      tag_157\n      swap2\n      swap1\n      tag_141\n      jump\t// in\n    tag_157:\n    tag_155:\n      pop\n      jump\t// out\n        /* \"#utility.yul\":7:82   */\n    tag_158:\n        /* \"#utility.yul\":40:46   */\n      0x00\n        /* \"#utility.yul\":73:75   */\n      0x40\n        /* \"#utility.yul\":67:76   */\n      mload\n        /* \"#utility.yul\":57:76   */\n      swap1\n      pop\n        /* \"#utility.yul\":7:82   */\n      swap1\n      jump\t// out\n        /* \"#utility.yul\":88:205   */\n    tag_159:\n        /* \"#utility.yul\":197:198   */\n      0x00\n        /* \"#utility.yul\":194:195   */\n      dup1\n        /* \"#utility.yul\":187:199   */\n      revert\n        /* \"#utility.yul\":211:328   */\n    tag_160:\n        /* \"#utility.yul\":320:321   */\n      0x00\n        /* \"#utility.yul\":317:318   */\n      dup1\n        /* \"#utility.yul\":310:322   */\n      revert\n        /* \"#utility.yul\":334:451   */\n    tag_161:\n        /* \"#utility.yul\":443:444   */\n      0x00\n        /* \"#utility.yul\":440:441   */\n      dup1\n        /* \"#utility.yul\":433:445   */\n      revert\n        /* \"#utility.yul\":457:574   */\n    tag_162:\n        /* \"#utility.yul\":566:567   */\n      0x00\n        /* \"#utility.yul\":563:564   */\n      dup1\n        /* \"#utility.yul\":556:568   */\n      revert\n        /* \"#utility.yul\":580:682   */\n    tag_163:\n        /* \"#utility.yul\":621:627   */\n      0x00\n        /* \"#utility.yul\":672:674   */\n      0x1f\n        /* \"#utility.yul\":668:675   */\n      not\n        /* \"#utility.yul\":663:665   */\n      0x1f\n        /* \"#utility.yul\":656:661   */\n      dup4\n        /* \"#utility.yul\":652:666   */\n      add\n        /* \"#utility.yul\":648:676   */\n      and\n        /* \"#utility.yul\":638:676   */\n      swap1\n      pop\n        /* \"#utility.yul\":580:682   */\n      swap2\n      swap1\n      pop\n      jump\t// out\n        /* \"#utility.yul\":688:868   */\n    tag_164:\n        /* \"#utility.yul\":736:813   */\n      0x4e487b7100000000000000000000000000000000000000000000000000000000\n        /* \"#utility.yul\":733:734   */\n      0x00\n        /* \"#utility.yul\":726:814   */\n      mstore\n        /* \"#utility.yul\":833:837   */\n      0x41\n        /* \"#utility.yul\":830:831   */\n      0x04\n        /* \"#utility.yul\":823:838   */\n      mstore\n        /* \"#utility.yul\":857:861   */\n      0x24\n        /* \"#utility.yul\":854:855   */\n      0x00\n        /* \"#utility.yul\":847:862   */\n      revert\n        /* \"#utility.yul\":874:1155   */\n    tag_165:\n        /* \"#utility.yul\":957:984   */\n      tag_238\n        /* \"#utility.yul\":979:983   */\n      dup3\n        /* \"#utility.yul\":957:984   */\n      tag_163\n      jump\t// in\n    tag_238:\n        /* \"#utility.yul\":949:955   */\n      dup2\n        /* \"#utility.yul\":945:985   */\n      add\n        /* \"#utility.yul\":1087:1093   */\n      dup2\n        /* \"#utility.yul\":1075:1085   */\n      dup2\n        /* \"#utility.yul\":1072:1094   */\n      lt\n        /* \"#utility.yul\":1051:1069   */\n      0xffffffffffffffff\n        /* \"#utility.yul\":1039:1049   */\n      dup3\n        /* \"#utility.yul\":1036:1070   */\n      gt\n        /* \"#utility.yul\":1033:1095   */\n      or\n        /* \"#utility.yul\":1030:1118   */\n      iszero\n      tag_239\n      jumpi\n        /* \"#utility.yul\":1098:1116   */\n      tag_240\n      tag_164\n      jump\t// in\n    tag_240:\n        /* \"#utility.yul\":1030:1118   */\n    tag_239:\n        /* \"#utility.yul\":1138:1148   */\n      dup1\n        /* \"#utility.yul\":1134:1136   */\n      0x40\n        /* \"#utility.yul\":1127:1149   */\n      mstore\n        /* \"#utility.yul\":917:1155   */\n      pop\n        /* \"#utility.yul\":874:1155   */\n      pop\n      pop\n      jump\t// out\n        /* \"#utility.yul\":1161:1290   */\n    tag_166:\n        /* \"#utility.yul\":1195:1201   */\n      0x00\n        /* \"#utility.yul\":1222:1242   */\n      tag_242\n      tag_158\n      jump\t// in\n    tag_242:\n        /* \"#utility.yul\":1212:1242   */\n      swap1\n      pop\n        /* \"#utility.yul\":1251:1284   */\n      tag_243\n        /* \"#utility.yul\":1279:1283   */\n      dup3\n        /* \"#utility.yul\":1271:1277   */\n      dup3\n        /* \"#utility.yul\":1251:1284   */\n      tag_165\n      jump\t// in\n    tag_243:\n        /* \"#utility.yul\":1161:1290   */\n      swap2\n      swap1\n      pop\n      jump\t// out\n        /* \"#utility.yul\":1296:1604   */\n    tag_167:\n        /* \"#utility.yul\":1358:1362   */\n      0x00\n        /* \"#utility.yul\":1448:1466   */\n      0xffffffffffffffff\n        /* \"#utility.yul\":1440:1446   */\n      dup3\n        /* \"#utility.yul\":1437:1467   */\n      gt\n        /* \"#utility.yul\":1434:1490   */\n      iszero\n      tag_245\n      jumpi\n        /* \"#utility.yul\":1470:1488   */\n      tag_246\n      tag_164\n      jump\t// in\n    tag_246:\n        /* \"#utility.yul\":1434:1490   */\n    tag_245:\n        /* \"#utility.yul\":1508:1537   */\n      tag_247\n        /* \"#utility.yul\":1530:1536   */\n      dup3\n        /* \"#utility.yul\":1508:1537   */\n      tag_163\n      jump\t// in\n    tag_247:\n        /* \"#utility.yul\":1500:1537   */\n      swap1\n      pop\n        /* \"#utility.yul\":1592:1596   */\n      0x20\n        /* \"#utility.yul\":1586:1590   */\n      dup2\n        /* \"#utility.yul\":1582:1597   */\n      add\n        /* \"#utility.yul\":1574:1597   */\n      swap1\n      pop\n        /* \"#utility.yul\":1296:1604   */\n      swap2\n      swap1\n      pop\n      jump\t// out\n        /* \"#utility.yul\":1610:1758   */\n    tag_168:\n        /* \"#utility.yul\":1708:1714   */\n      dup3\n        /* \"#utility.yul\":1703:1706   */\n      dup2\n        /* \"#utility.yul\":1698:1701   */\n      dup4\n        /* \"#utility.yul\":1685:1715   */\n      calldatacopy\n        /* \"#utility.yul\":1749:1750   */\n      0x00\n        /* \"#utility.yul\":1740:1746   */\n      dup4\n        /* \"#utility.yul\":1735:1738   */\n      dup4\n        /* \"#utility.yul\":1731:1747   */\n      add\n        /* \"#utility.yul\":1724:1751   */\n      mstore\n        /* \"#utility.yul\":1610:1758   */\n      pop\n      pop\n      pop\n      jump\t// out\n        /* \"#utility.yul\":1764:2189   */\n    tag_169:\n        /* \"#utility.yul\":1842:1847   */\n      0x00\n        /* \"#utility.yul\":1867:1933   */\n      tag_250\n        /* \"#utility.yul\":1883:1932   */\n      tag_251\n        /* \"#utility.yul\":1925:1931   */\n      dup5\n        /* \"#utility.yul\":1883:1932   */\n      tag_167\n      jump\t// in\n    tag_251:\n        /* \"#utility.yul\":1867:1933   */\n      tag_166\n      jump\t// in\n    tag_250:\n        /* \"#utility.yul\":1858:1933   */\n      swap1\n      pop\n        /* \"#utility.yul\":1956:1962   */\n      dup3\n        /* \"#utility.yul\":1949:1954   */\n      dup2\n        /* \"#utility.yul\":1942:1963   */\n      mstore\n        /* \"#utility.yul\":1994:1998   */\n      0x20\n        /* \"#utility.yul\":1987:1992   */\n      dup2\n        /* \"#utility.yul\":1983:1999   */\n      add\n        /* \"#utility.yul\":2032:2035   */\n      dup5\n        /* \"#utility.yul\":2023:2029   */\n      dup5\n        /* \"#utility.yul\":2018:2021   */\n      dup5\n        /* \"#utility.yul\":2014:2030   */\n      add\n        /* \"#utility.yul\":2011:2036   */\n      gt\n        /* \"#utility.yul\":2008:2120   */\n      iszero\n      tag_252\n      jumpi\n        /* \"#utility.yul\":2039:2118   */\n      tag_253\n      tag_162\n      jump\t// in\n    tag_253:\n        /* \"#utility.yul\":2008:2120   */\n    tag_252:\n        /* \"#utility.yul\":2129:2183   */\n      tag_254\n        /* \"#utility.yul\":2176:2182   */\n      dup5\n        /* \"#utility.yul\":2171:2174   */\n      dup3\n        /* \"#utility.yul\":2166:2169   */\n      dup6\n        /* \"#utility.yul\":2129:2183   */\n      tag_168\n      jump\t// in\n    tag_254:\n        /* \"#utility.yul\":1848:2189   */\n      pop\n        /* \"#utility.yul\":1764:2189   */\n      swap4\n      swap3\n      pop\n      pop\n      pop\n      jump\t// out\n        /* \"#utility.yul\":2209:2549   */\n    tag_170:\n        /* \"#utility.yul\":2265:2270   */\n      0x00\n        /* \"#utility.yul\":2314:2317   */\n      dup3\n        /* \"#utility.yul\":2307:2311   */\n      0x1f\n        /* \"#utility.yul\":2299:2305   */\n      dup4\n        /* \"#utility.yul\":2295:2312   */\n      add\n        /* \"#utility.yul\":2291:2318   */\n      slt\n        /* \"#utility.yul\":2281:2403   */\n      tag_256\n      jumpi\n        /* \"#utility.yul\":2322:2401   */\n      tag_257\n      tag_161\n      jump\t// in\n    tag_257:\n        /* \"#utility.yul\":2281:2403   */\n    tag_256:\n        /* \"#utility.yul\":2439:2445   */\n      dup2\n        /* \"#utility.yul\":2426:2446   */\n      calldataload\n        /* \"#utility.yul\":2464:2543   */\n      tag_258\n        /* \"#utility.yul\":2539:2542   */\n      dup5\n        /* \"#utility.yul\":2531:2537   */\n      dup3\n        /* \"#utility.yul\":2524:2528   */\n      0x20\n        /* \"#utility.yul\":2516:2522   */\n      dup7\n        /* \"#utility.yul\":2512:2529   */\n      add\n        /* \"#utility.yul\":2464:2543   */\n      tag_169\n      jump\t// in\n    tag_258:\n        /* \"#utility.yul\":2455:2543   */\n      swap2\n      pop\n        /* \"#utility.yul\":2271:2549   */\n      pop\n        /* \"#utility.yul\":2209:2549   */\n      swap3\n      swap2\n      pop\n      pop\n      jump\t// out\n        /* \"#utility.yul\":2555:2866   */\n    tag_171:\n        /* \"#utility.yul\":2632:2636   */\n      0x00\n        /* \"#utility.yul\":2722:2740   */\n      0xffffffffffffffff\n        /* \"#utility.yul\":2714:2720   */\n      dup3\n        /* \"#utility.yul\":2711:2741   */\n      gt\n        /* \"#utility.yul\":2708:2764   */\n      iszero\n      tag_260\n      jumpi\n        /* \"#utility.yul\":2744:2762   */\n      tag_261\n      tag_164\n      jump\t// in\n    tag_261:\n        /* \"#utility.yul\":2708:2764   */\n    tag_260:\n        /* \"#utility.yul\":2794:2798   */\n      0x20\n        /* \"#utility.yul\":2786:2792   */\n      dup3\n        /* \"#utility.yul\":2782:2799   */\n      mul\n        /* \"#utility.yul\":2774:2799   */\n      swap1\n      pop\n        /* \"#utility.yul\":2854:2858   */\n      0x20\n        /* \"#utility.yul\":2848:2852   */\n      dup2\n        /* \"#utility.yul\":2844:2859   */\n      add\n        /* \"#utility.yul\":2836:2859   */\n      swap1\n      pop\n        /* \"#utility.yul\":2555:2866   */\n      swap2\n      swap1\n      pop\n      jump\t// out\n        /* \"#utility.yul\":2872:2989   */\n    tag_172:\n        /* \"#utility.yul\":2981:2982   */\n      0x00\n        /* \"#utility.yul\":2978:2979   */\n      dup1\n        /* \"#utility.yul\":2971:2983   */\n      revert\n        /* \"#utility.yul\":2995:3121   */\n    tag_173:\n        /* \"#utility.yul\":3032:3039   */\n      0x00\n        /* \"#utility.yul\":3072:3114   */\n      0xffffffffffffffffffffffffffffffffffffffff\n        /* \"#utility.yul\":3065:3070   */\n      dup3\n        /* \"#utility.yul\":3061:3115   */\n      and\n        /* \"#utility.yul\":3050:3115   */\n      swap1\n      pop\n        /* \"#utility.yul\":2995:3121   */\n      swap2\n      swap1\n      pop\n      jump\t// out\n        /* \"#utility.yul\":3127:3223   */\n    tag_174:\n        /* \"#utility.yul\":3164:3171   */\n      0x00\n        /* \"#utility.yul\":3193:3217   */\n      tag_265\n        /* \"#utility.yul\":3211:3216   */\n      dup3\n        /* \"#utility.yul\":3193:3217   */\n      tag_173\n      jump\t// in\n    tag_265:\n        /* \"#utility.yul\":3182:3217   */\n      swap1\n      pop\n        /* \"#utility.yul\":3127:3223   */\n      swap2\n      swap1\n      pop\n      jump\t// out\n        /* \"#utility.yul\":3229:3351   */\n    tag_175:\n        /* \"#utility.yul\":3302:3326   */\n      tag_267\n        /* \"#utility.yul\":3320:3325   */\n      dup2\n        /* \"#utility.yul\":3302:3326   */\n      tag_174\n      jump\t// in\n    tag_267:\n        /* \"#utility.yul\":3295:3300   */\n      dup2\n        /* \"#utility.yul\":3292:3327   */\n      eq\n        /* \"#utility.yul\":3282:3345   */\n      tag_268\n      jumpi\n        /* \"#utility.yul\":3341:3342   */\n      0x00\n        /* \"#utility.yul\":3338:3339   */\n      dup1\n        /* \"#utility.yul\":3331:3343   */\n      revert\n        /* \"#utility.yul\":3282:3345   */\n    tag_268:\n        /* \"#utility.yul\":3229:3351   */\n      pop\n      jump\t// out\n        /* \"#utility.yul\":3357:3496   */\n    tag_176:\n        /* \"#utility.yul\":3403:3408   */\n      0x00\n        /* \"#utility.yul\":3441:3447   */\n      dup2\n        /* \"#utility.yul\":3428:3448   */\n      calldataload\n        /* \"#utility.yul\":3419:3448   */\n      swap1\n      pop\n        /* \"#utility.yul\":3457:3490   */\n      tag_270\n        /* \"#utility.yul\":3484:3489   */\n      dup2\n        /* \"#utility.yul\":3457:3490   */\n      tag_175\n      jump\t// in\n    tag_270:\n        /* \"#utility.yul\":3357:3496   */\n      swap3\n      swap2\n      pop\n      pop\n      jump\t// out\n        /* \"#utility.yul\":3519:4229   */\n    tag_177:\n        /* \"#utility.yul\":3615:3620   */\n      0x00\n        /* \"#utility.yul\":3640:3721   */\n      tag_272\n        /* \"#utility.yul\":3656:3720   */\n      tag_273\n        /* \"#utility.yul\":3713:3719   */\n      dup5\n        /* \"#utility.yul\":3656:3720   */\n      tag_171\n      jump\t// in\n    tag_273:\n        /* \"#utility.yul\":3640:3721   */\n      tag_166\n      jump\t// in\n    tag_272:\n        /* \"#utility.yul\":3631:3721   */\n      swap1\n      pop\n        /* \"#utility.yul\":3741:3746   */\n      dup1\n        /* \"#utility.yul\":3770:3776   */\n      dup4\n        /* \"#utility.yul\":3763:3768   */\n      dup3\n        /* \"#utility.yul\":3756:3777   */\n      mstore\n        /* \"#utility.yul\":3804:3808   */\n      0x20\n        /* \"#utility.yul\":3797:3802   */\n      dup3\n        /* \"#utility.yul\":3793:3809   */\n      add\n        /* \"#utility.yul\":3786:3809   */\n      swap1\n      pop\n        /* \"#utility.yul\":3857:3861   */\n      0x20\n        /* \"#utility.yul\":3849:3855   */\n      dup5\n        /* \"#utility.yul\":3845:3862   */\n      mul\n        /* \"#utility.yul\":3837:3843   */\n      dup4\n        /* \"#utility.yul\":3833:3863   */\n      add\n        /* \"#utility.yul\":3886:3889   */\n      dup6\n        /* \"#utility.yul\":3878:3884   */\n      dup2\n        /* \"#utility.yul\":3875:3890   */\n      gt\n        /* \"#utility.yul\":3872:3994   */\n      iszero\n      tag_274\n      jumpi\n        /* \"#utility.yul\":3905:3984   */\n      tag_275\n      tag_172\n      jump\t// in\n    tag_275:\n        /* \"#utility.yul\":3872:3994   */\n    tag_274:\n        /* \"#utility.yul\":4020:4026   */\n      dup4\n        /* \"#utility.yul\":4003:4223   */\n    tag_276:\n        /* \"#utility.yul\":4037:4043   */\n      dup2\n        /* \"#utility.yul\":4032:4035   */\n      dup2\n        /* \"#utility.yul\":4029:4044   */\n      lt\n        /* \"#utility.yul\":4003:4223   */\n      iszero\n      tag_278\n      jumpi\n        /* \"#utility.yul\":4112:4115   */\n      dup1\n        /* \"#utility.yul\":4141:4178   */\n      tag_279\n        /* \"#utility.yul\":4174:4177   */\n      dup9\n        /* \"#utility.yul\":4162:4172   */\n      dup3\n        /* \"#utility.yul\":4141:4178   */\n      tag_176\n      jump\t// in\n    tag_279:\n        /* \"#utility.yul\":4136:4139   */\n      dup5\n        /* \"#utility.yul\":4129:4179   */\n      mstore\n        /* \"#utility.yul\":4208:4212   */\n      0x20\n        /* \"#utility.yul\":4203:4206   */\n      dup5\n        /* \"#utility.yul\":4199:4213   */\n      add\n        /* \"#utility.yul\":4192:4213   */\n      swap4\n      pop\n        /* \"#utility.yul\":4079:4223   */\n      pop\n        /* \"#utility.yul\":4063:4067   */\n      0x20\n        /* \"#utility.yul\":4058:4061   */\n      dup2\n        /* \"#utility.yul\":4054:4068   */\n      add\n        /* \"#utility.yul\":4047:4068   */\n      swap1\n      pop\n        /* \"#utility.yul\":4003:4223   */\n      jump(tag_276)\n    tag_278:\n        /* \"#utility.yul\":4007:4028   */\n      pop\n        /* \"#utility.yul\":3621:4229   */\n      pop\n      pop\n        /* \"#utility.yul\":3519:4229   */\n      swap4\n      swap3\n      pop\n      pop\n      pop\n      jump\t// out\n        /* \"#utility.yul\":4252:4622   */\n    tag_178:\n        /* \"#utility.yul\":4323:4328   */\n      0x00\n        /* \"#utility.yul\":4372:4375   */\n      dup3\n        /* \"#utility.yul\":4365:4369   */\n      0x1f\n        /* \"#utility.yul\":4357:4363   */\n      dup4\n        /* \"#utility.yul\":4353:4370   */\n      add\n        /* \"#utility.yul\":4349:4376   */\n      slt\n        /* \"#utility.yul\":4339:4461   */\n      tag_281\n      jumpi\n        /* \"#utility.yul\":4380:4459   */\n      tag_282\n      tag_161\n      jump\t// in\n    tag_282:\n        /* \"#utility.yul\":4339:4461   */\n    tag_281:\n        /* \"#utility.yul\":4497:4503   */\n      dup2\n        /* \"#utility.yul\":4484:4504   */\n      calldataload\n        /* \"#utility.yul\":4522:4616   */\n      tag_283\n        /* \"#utility.yul\":4612:4615   */\n      dup5\n        /* \"#utility.yul\":4604:4610   */\n      dup3\n        /* \"#utility.yul\":4597:4601   */\n      0x20\n        /* \"#utility.yul\":4589:4595   */\n      dup7\n        /* \"#utility.yul\":4585:4602   */\n      add\n        /* \"#utility.yul\":4522:4616   */\n      tag_177\n      jump\t// in\n    tag_283:\n        /* \"#utility.yul\":4513:4616   */\n      swap2\n      pop\n        /* \"#utility.yul\":4329:4622   */\n      pop\n        /* \"#utility.yul\":4252:4622   */\n      swap3\n      swap2\n      pop\n      pop\n      jump\t// out\n        /* \"#utility.yul\":4628:4887   */\n    tag_179:\n        /* \"#utility.yul\":4713:4717   */\n      0x00\n        /* \"#utility.yul\":4803:4821   */\n      0xffffffffffffffff\n        /* \"#utility.yul\":4795:4801   */\n      dup3\n        /* \"#utility.yul\":4792:4822   */\n      gt\n        /* \"#utility.yul\":4789:4845   */\n      iszero\n      tag_285\n      jumpi\n        /* \"#utility.yul\":4825:4843   */\n      tag_286\n      tag_164\n      jump\t// in\n    tag_286:\n        /* \"#utility.yul\":4789:4845   */\n    tag_285:\n        /* \"#utility.yul\":4875:4879   */\n      0x20\n        /* \"#utility.yul\":4867:4873   */\n      dup3\n        /* \"#utility.yul\":4863:4880   */\n      mul\n        /* \"#utility.yul\":4855:4880   */\n      swap1\n      pop\n        /* \"#utility.yul\":4628:4887   */\n      swap2\n      swap1\n      pop\n      jump\t// out\n        /* \"#utility.yul\":4910:5788   */\n    tag_180:\n        /* \"#utility.yul\":5014:5019   */\n      0x00\n        /* \"#utility.yul\":5039:5128   */\n      tag_288\n        /* \"#utility.yul\":5055:5127   */\n      tag_289\n        /* \"#utility.yul\":5120:5126   */\n      dup5\n        /* \"#utility.yul\":5055:5127   */\n      tag_179\n      jump\t// in\n    tag_289:\n        /* \"#utility.yul\":5039:5128   */\n      tag_166\n      jump\t// in\n    tag_288:\n        /* \"#utility.yul\":5030:5128   */\n      swap1\n      pop\n        /* \"#utility.yul\":5148:5153   */\n      dup1\n        /* \"#utility.yul\":5201:5205   */\n      0x20\n        /* \"#utility.yul\":5193:5199   */\n      dup5\n        /* \"#utility.yul\":5189:5206   */\n      mul\n        /* \"#utility.yul\":5181:5187   */\n      dup4\n        /* \"#utility.yul\":5177:5207   */\n      add\n        /* \"#utility.yul\":5230:5233   */\n      dup6\n        /* \"#utility.yul\":5222:5228   */\n      dup2\n        /* \"#utility.yul\":5219:5234   */\n      gt\n        /* \"#utility.yul\":5216:5338   */\n      iszero\n      tag_290\n      jumpi\n        /* \"#utility.yul\":5249:5328   */\n      tag_291\n      tag_172\n      jump\t// in\n    tag_291:\n        /* \"#utility.yul\":5216:5338   */\n    tag_290:\n        /* \"#utility.yul\":5364:5370   */\n      dup4\n        /* \"#utility.yul\":5347:5782   */\n    tag_292:\n        /* \"#utility.yul\":5381:5387   */\n      dup2\n        /* \"#utility.yul\":5376:5379   */\n      dup2\n        /* \"#utility.yul\":5373:5388   */\n      lt\n        /* \"#utility.yul\":5347:5782   */\n      iszero\n      tag_294\n      jumpi\n        /* \"#utility.yul\":5470:5473   */\n      dup1\n        /* \"#utility.yul\":5457:5474   */\n      calldataload\n        /* \"#utility.yul\":5506:5524   */\n      0xffffffffffffffff\n        /* \"#utility.yul\":5493:5504   */\n      dup2\n        /* \"#utility.yul\":5490:5525   */\n      gt\n        /* \"#utility.yul\":5487:5609   */\n      iszero\n      tag_295\n      jumpi\n        /* \"#utility.yul\":5528:5607   */\n      tag_296\n      tag_161\n      jump\t// in\n    tag_296:\n        /* \"#utility.yul\":5487:5609   */\n    tag_295:\n        /* \"#utility.yul\":5652:5663   */\n      dup1\n        /* \"#utility.yul\":5644:5650   */\n      dup7\n        /* \"#utility.yul\":5640:5664   */\n      add\n        /* \"#utility.yul\":5690:5737   */\n      tag_297\n        /* \"#utility.yul\":5733:5736   */\n      dup10\n        /* \"#utility.yul\":5721:5731   */\n      dup3\n        /* \"#utility.yul\":5690:5737   */\n      tag_170\n      jump\t// in\n    tag_297:\n        /* \"#utility.yul\":5685:5688   */\n      dup6\n        /* \"#utility.yul\":5678:5738   */\n      mstore\n        /* \"#utility.yul\":5767:5771   */\n      0x20\n        /* \"#utility.yul\":5762:5765   */\n      dup6\n        /* \"#utility.yul\":5758:5772   */\n      add\n        /* \"#utility.yul\":5751:5772   */\n      swap5\n      pop\n        /* \"#utility.yul\":5423:5782   */\n      pop\n      pop\n        /* \"#utility.yul\":5407:5411   */\n      0x20\n        /* \"#utility.yul\":5402:5405   */\n      dup2\n        /* \"#utility.yul\":5398:5412   */\n      add\n        /* \"#utility.yul\":5391:5412   */\n      swap1\n      pop\n        /* \"#utility.yul\":5347:5782   */\n      jump(tag_292)\n    tag_294:\n        /* \"#utility.yul\":5351:5372   */\n      pop\n        /* \"#utility.yul\":5020:5788   */\n      pop\n      pop\n        /* \"#utility.yul\":4910:5788   */\n      swap4\n      swap3\n      pop\n      pop\n      pop\n      jump\t// out\n        /* \"#utility.yul\":5811:6170   */\n    tag_181:\n        /* \"#utility.yul\":5890:5895   */\n      0x00\n        /* \"#utility.yul\":5939:5942   */\n      dup3\n        /* \"#utility.yul\":5932:5936   */\n      0x1f\n        /* \"#utility.yul\":5924:5930   */\n      dup4\n        /* \"#utility.yul\":5920:5937   */\n      add\n        /* \"#utility.yul\":5916:5943   */\n      slt\n        /* \"#utility.yul\":5906:6028   */\n      tag_299\n      jumpi\n        /* \"#utility.yul\":5947:6026   */\n      tag_300\n      tag_161\n      jump\t// in\n    tag_300:\n        /* \"#utility.yul\":5906:6028   */\n    tag_299:\n        /* \"#utility.yul\":6051:6055   */\n      0x02\n        /* \"#utility.yul\":6073:6164   */\n      tag_301\n        /* \"#utility.yul\":6160:6163   */\n      dup5\n        /* \"#utility.yul\":6152:6158   */\n      dup3\n        /* \"#utility.yul\":6144:6150   */\n      dup6\n        /* \"#utility.yul\":6073:6164   */\n      tag_180\n      jump\t// in\n    tag_301:\n        /* \"#utility.yul\":6064:6164   */\n      swap2\n      pop\n        /* \"#utility.yul\":5896:6170   */\n      pop\n        /* \"#utility.yul\":5811:6170   */\n      swap3\n      swap2\n      pop\n      pop\n      jump\t// out\n        /* \"#utility.yul\":6176:7411   */\n    tag_15:\n        /* \"#utility.yul\":6321:6327   */\n      0x00\n        /* \"#utility.yul\":6329:6335   */\n      dup1\n        /* \"#utility.yul\":6337:6343   */\n      0x00\n        /* \"#utility.yul\":6386:6388   */\n      0x60\n        /* \"#utility.yul\":6374:6383   */\n      dup5\n        /* \"#utility.yul\":6365:6372   */\n      dup7\n        /* \"#utility.yul\":6361:6384   */\n      sub\n        /* \"#utility.yul\":6357:6389   */\n      slt\n        /* \"#utility.yul\":6354:6473   */\n      iszero\n      tag_303\n      jumpi\n        /* \"#utility.yul\":6392:6471   */\n      tag_304\n      tag_159\n      jump\t// in\n    tag_304:\n        /* \"#utility.yul\":6354:6473   */\n    tag_303:\n        /* \"#utility.yul\":6540:6541   */\n      0x00\n        /* \"#utility.yul\":6529:6538   */\n      dup5\n        /* \"#utility.yul\":6525:6542   */\n      add\n        /* \"#utility.yul\":6512:6543   */\n      calldataload\n        /* \"#utility.yul\":6570:6588   */\n      0xffffffffffffffff\n        /* \"#utility.yul\":6562:6568   */\n      dup2\n        /* \"#utility.yul\":6559:6589   */\n      gt\n        /* \"#utility.yul\":6556:6673   */\n      iszero\n      tag_305\n      jumpi\n        /* \"#utility.yul\":6592:6671   */\n      tag_306\n      tag_160\n      jump\t// in\n    tag_306:\n        /* \"#utility.yul\":6556:6673   */\n    tag_305:\n        /* \"#utility.yul\":6697:6760   */\n      tag_307\n        /* \"#utility.yul\":6752:6759   */\n      dup7\n        /* \"#utility.yul\":6743:6749   */\n      dup3\n        /* \"#utility.yul\":6732:6741   */\n      dup8\n        /* \"#utility.yul\":6728:6750   */\n      add\n        /* \"#utility.yul\":6697:6760   */\n      tag_170\n      jump\t// in\n    tag_307:\n        /* \"#utility.yul\":6687:6760   */\n      swap4\n      pop\n        /* \"#utility.yul\":6483:6770   */\n      pop\n        /* \"#utility.yul\":6837:6839   */\n      0x20\n        /* \"#utility.yul\":6826:6835   */\n      dup5\n        /* \"#utility.yul\":6822:6840   */\n      add\n        /* \"#utility.yul\":6809:6841   */\n      calldataload\n        /* \"#utility.yul\":6868:6886   */\n      0xffffffffffffffff\n        /* \"#utility.yul\":6860:6866   */\n      dup2\n        /* \"#utility.yul\":6857:6887   */\n      gt\n        /* \"#utility.yul\":6854:6971   */\n      iszero\n      tag_308\n      jumpi\n        /* \"#utility.yul\":6890:6969   */\n      tag_309\n      tag_160\n      jump\t// in\n    tag_309:\n        /* \"#utility.yul\":6854:6971   */\n    tag_308:\n        /* \"#utility.yul\":6995:7073   */\n      tag_310\n        /* \"#utility.yul\":7065:7072   */\n      dup7\n        /* \"#utility.yul\":7056:7062   */\n      dup3\n        /* \"#utility.yul\":7045:7054   */\n      dup8\n        /* \"#utility.yul\":7041:7063   */\n      add\n        /* \"#utility.yul\":6995:7073   */\n      tag_178\n      jump\t// in\n    tag_310:\n        /* \"#utility.yul\":6985:7073   */\n      swap3\n      pop\n        /* \"#utility.yul\":6780:7083   */\n      pop\n        /* \"#utility.yul\":7150:7152   */\n      0x40\n        /* \"#utility.yul\":7139:7148   */\n      dup5\n        /* \"#utility.yul\":7135:7153   */\n      add\n        /* \"#utility.yul\":7122:7154   */\n      calldataload\n        /* \"#utility.yul\":7181:7199   */\n      0xffffffffffffffff\n        /* \"#utility.yul\":7173:7179   */\n      dup2\n        /* \"#utility.yul\":7170:7200   */\n      gt\n        /* \"#utility.yul\":7167:7284   */\n      iszero\n      tag_311\n      jumpi\n        /* \"#utility.yul\":7203:7282   */\n      tag_312\n      tag_160\n      jump\t// in\n    tag_312:\n        /* \"#utility.yul\":7167:7284   */\n    tag_311:\n        /* \"#utility.yul\":7308:7394   */\n      tag_313\n        /* \"#utility.yul\":7386:7393   */\n      dup7\n        /* \"#utility.yul\":7377:7383   */\n      dup3\n        /* \"#utility.yul\":7366:7375   */\n      dup8\n        /* \"#utility.yul\":7362:7384   */\n      add\n        /* \"#utility.yul\":7308:7394   */\n      tag_181\n      jump\t// in\n    tag_313:\n        /* \"#utility.yul\":7298:7394   */\n      swap2\n      pop\n        /* \"#utility.yul\":7093:7404   */\n      pop\n        /* \"#utility.yul\":6176:7411   */\n      swap3\n      pop\n      swap3\n      pop\n      swap3\n      jump\t// out\n        /* \"#utility.yul\":7417:7507   */\n    tag_182:\n        /* \"#utility.yul\":7451:7458   */\n      0x00\n        /* \"#utility.yul\":7494:7499   */\n      dup2\n        /* \"#utility.yul\":7487:7500   */\n      iszero\n        /* \"#utility.yul\":7480:7501   */\n      iszero\n        /* \"#utility.yul\":7469:7501   */\n      swap1\n      pop\n        /* \"#utility.yul\":7417:7507   */\n      swap2\n      swap1\n      pop\n      jump\t// out\n        /* \"#utility.yul\":7513:7622   */\n    tag_183:\n        /* \"#utility.yul\":7594:7615   */\n      tag_316\n        /* \"#utility.yul\":7609:7614   */\n      dup2\n        /* \"#utility.yul\":7594:7615   */\n      tag_182\n      jump\t// in\n    tag_316:\n        /* \"#utility.yul\":7589:7592   */\n      dup3\n        /* \"#utility.yul\":7582:7616   */\n      mstore\n        /* \"#utility.yul\":7513:7622   */\n      pop\n      pop\n      jump\t// out\n        /* \"#utility.yul\":7628:7838   */\n    tag_18:\n        /* \"#utility.yul\":7715:7719   */\n      0x00\n        /* \"#utility.yul\":7753:7755   */\n      0x20\n        /* \"#utility.yul\":7742:7751   */\n      dup3\n        /* \"#utility.yul\":7738:7756   */\n      add\n        /* \"#utility.yul\":7730:7756   */\n      swap1\n      pop\n        /* \"#utility.yul\":7766:7831   */\n      tag_318\n        /* \"#utility.yul\":7828:7829   */\n      0x00\n        /* \"#utility.yul\":7817:7826   */\n      dup4\n        /* \"#utility.yul\":7813:7830   */\n      add\n        /* \"#utility.yul\":7804:7810   */\n      dup5\n        /* \"#utility.yul\":7766:7831   */\n      tag_183\n      jump\t// in\n    tag_318:\n        /* \"#utility.yul\":7628:7838   */\n      swap3\n      swap2\n      pop\n      pop\n      jump\t// out\n        /* \"#utility.yul\":7844:7921   */\n    tag_184:\n        /* \"#utility.yul\":7881:7888   */\n      0x00\n        /* \"#utility.yul\":7910:7915   */\n      dup2\n        /* \"#utility.yul\":7899:7915   */\n      swap1\n      pop\n        /* \"#utility.yul\":7844:7921   */\n      swap2\n      swap1\n      pop\n      jump\t// out\n        /* \"#utility.yul\":7927:8049   */\n    tag_185:\n        /* \"#utility.yul\":8000:8024   */\n      tag_321\n        /* \"#utility.yul\":8018:8023   */\n      dup2\n        /* \"#utility.yul\":8000:8024   */\n      tag_184\n      jump\t// in\n    tag_321:\n        /* \"#utility.yul\":7993:7998   */\n      dup2\n        /* \"#utility.yul\":7990:8025   */\n      eq\n        /* \"#utility.yul\":7980:8043   */\n      tag_322\n      jumpi\n        /* \"#utility.yul\":8039:8040   */\n      0x00\n        /* \"#utility.yul\":8036:8037   */\n      dup1\n        /* \"#utility.yul\":8029:8041   */\n      revert\n        /* \"#utility.yul\":7980:8043   */\n    tag_322:\n        /* \"#utility.yul\":7927:8049   */\n      pop\n      jump\t// out\n        /* \"#utility.yul\":8055:8194   */\n    tag_186:\n        /* \"#utility.yul\":8101:8106   */\n      0x00\n        /* \"#utility.yul\":8139:8145   */\n      dup2\n        /* \"#utility.yul\":8126:8146   */\n      calldataload\n        /* \"#utility.yul\":8117:8146   */\n      swap1\n      pop\n        /* \"#utility.yul\":8155:8188   */\n      tag_324\n        /* \"#utility.yul\":8182:8187   */\n      dup2\n        /* \"#utility.yul\":8155:8188   */\n      tag_185\n      jump\t// in\n    tag_324:\n        /* \"#utility.yul\":8055:8194   */\n      swap3\n      swap2\n      pop\n      pop\n      jump\t// out\n        /* \"#utility.yul\":8200:8529   */\n    tag_21:\n        /* \"#utility.yul\":8259:8265   */\n      0x00\n        /* \"#utility.yul\":8308:8310   */\n      0x20\n        /* \"#utility.yul\":8296:8305   */\n      dup3\n        /* \"#utility.yul\":8287:8294   */\n      dup5\n        /* \"#utility.yul\":8283:8306   */\n      sub\n        /* \"#utility.yul\":8279:8311   */\n      slt\n        /* \"#utility.yul\":8276:8395   */\n      iszero\n      tag_326\n      jumpi\n        /* \"#utility.yul\":8314:8393   */\n      tag_327\n      tag_159\n      jump\t// in\n    tag_327:\n        /* \"#utility.yul\":8276:8395   */\n    tag_326:\n        /* \"#utility.yul\":8434:8435   */\n      0x00\n        /* \"#utility.yul\":8459:8512   */\n      tag_328\n        /* \"#utility.yul\":8504:8511   */\n      dup5\n        /* \"#utility.yul\":8495:8501   */\n      dup3\n        /* \"#utility.yul\":8484:8493   */\n      dup6\n        /* \"#utility.yul\":8480:8502   */\n      add\n        /* \"#utility.yul\":8459:8512   */\n      tag_186\n      jump\t// in\n    tag_328:\n        /* \"#utility.yul\":8449:8512   */\n      swap2\n      pop\n        /* \"#utility.yul\":8405:8522   */\n      pop\n        /* \"#utility.yul\":8200:8529   */\n      swap3\n      swap2\n      pop\n      pop\n      jump\t// out\n        /* \"#utility.yul\":8535:8653   */\n    tag_187:\n        /* \"#utility.yul\":8622:8646   */\n      tag_330\n        /* \"#utility.yul\":8640:8645   */\n      dup2\n        /* \"#utility.yul\":8622:8646   */\n      tag_184\n      jump\t// in\n    tag_330:\n        /* \"#utility.yul\":8617:8620   */\n      dup3\n        /* \"#utility.yul\":8610:8647   */\n      mstore\n        /* \"#utility.yul\":8535:8653   */\n      pop\n      pop\n      jump\t// out\n        /* \"#utility.yul\":8659:8758   */\n    tag_188:\n        /* \"#utility.yul\":8711:8717   */\n      0x00\n        /* \"#utility.yul\":8745:8750   */\n      dup2\n        /* \"#utility.yul\":8739:8751   */\n      mload\n        /* \"#utility.yul\":8729:8751   */\n      swap1\n      pop\n        /* \"#utility.yul\":8659:8758   */\n      swap2\n      swap1\n      pop\n      jump\t// out\n        /* \"#utility.yul\":8764:8933   */\n    tag_189:\n        /* \"#utility.yul\":8848:8859   */\n      0x00\n        /* \"#utility.yul\":8882:8888   */\n      dup3\n        /* \"#utility.yul\":8877:8880   */\n      dup3\n        /* \"#utility.yul\":8870:8889   */\n      mstore\n        /* \"#utility.yul\":8922:8926   */\n      0x20\n        /* \"#utility.yul\":8917:8920   */\n      dup3\n        /* \"#utility.yul\":8913:8927   */\n      add\n        /* \"#utility.yul\":8898:8927   */\n      swap1\n      pop\n        /* \"#utility.yul\":8764:8933   */\n      swap3\n      swap2\n      pop\n      pop\n      jump\t// out\n        /* \"#utility.yul\":8939:9078   */\n    tag_190:\n        /* \"#utility.yul\":9028:9034   */\n      dup3\n        /* \"#utility.yul\":9023:9026   */\n      dup2\n        /* \"#utility.yul\":9018:9021   */\n      dup4\n        /* \"#utility.yul\":9012:9035   */\n      mcopy\n        /* \"#utility.yul\":9069:9070   */\n      0x00\n        /* \"#utility.yul\":9060:9066   */\n      dup4\n        /* \"#utility.yul\":9055:9058   */\n      dup4\n        /* \"#utility.yul\":9051:9067   */\n      add\n        /* \"#utility.yul\":9044:9071   */\n      mstore\n        /* \"#utility.yul\":8939:9078   */\n      pop\n      pop\n      pop\n      jump\t// out\n        /* \"#utility.yul\":9084:9461   */\n    tag_191:\n        /* \"#utility.yul\":9172:9175   */\n      0x00\n        /* \"#utility.yul\":9200:9239   */\n      tag_335\n        /* \"#utility.yul\":9233:9238   */\n      dup3\n        /* \"#utility.yul\":9200:9239   */\n      tag_188\n      jump\t// in\n    tag_335:\n        /* \"#utility.yul\":9255:9326   */\n      tag_336\n        /* \"#utility.yul\":9319:9325   */\n      dup2\n        /* \"#utility.yul\":9314:9317   */\n      dup6\n        /* \"#utility.yul\":9255:9326   */\n      tag_189\n      jump\t// in\n    tag_336:\n        /* \"#utility.yul\":9248:9326   */\n      swap4\n      pop\n        /* \"#utility.yul\":9335:9400   */\n      tag_337\n        /* \"#utility.yul\":9393:9399   */\n      dup2\n        /* \"#utility.yul\":9388:9391   */\n      dup6\n        /* \"#utility.yul\":9381:9385   */\n      0x20\n        /* \"#utility.yul\":9374:9379   */\n      dup7\n        /* \"#utility.yul\":9370:9386   */\n      add\n        /* \"#utility.yul\":9335:9400   */\n      tag_190\n      jump\t// in\n    tag_337:\n        /* \"#utility.yul\":9425:9454   */\n      tag_338\n        /* \"#utility.yul\":9447:9453   */\n      dup2\n        /* \"#utility.yul\":9425:9454   */\n      tag_163\n      jump\t// in\n    tag_338:\n        /* \"#utility.yul\":9420:9423   */\n      dup5\n        /* \"#utility.yul\":9416:9455   */\n      add\n        /* \"#utility.yul\":9409:9455   */\n      swap2\n      pop\n        /* \"#utility.yul\":9176:9461   */\n      pop\n        /* \"#utility.yul\":9084:9461   */\n      swap3\n      swap2\n      pop\n      pop\n      jump\t// out\n        /* \"#utility.yul\":9467:10099   */\n    tag_24:\n        /* \"#utility.yul\":9658:9662   */\n      0x00\n        /* \"#utility.yul\":9696:9699   */\n      0x80\n        /* \"#utility.yul\":9685:9694   */\n      dup3\n        /* \"#utility.yul\":9681:9700   */\n      add\n        /* \"#utility.yul\":9673:9700   */\n      swap1\n      pop\n        /* \"#utility.yul\":9710:9781   */\n      tag_340\n        /* \"#utility.yul\":9778:9779   */\n      0x00\n        /* \"#utility.yul\":9767:9776   */\n      dup4\n        /* \"#utility.yul\":9763:9780   */\n      add\n        /* \"#utility.yul\":9754:9760   */\n      dup8\n        /* \"#utility.yul\":9710:9781   */\n      tag_187\n      jump\t// in\n    tag_340:\n        /* \"#utility.yul\":9828:9837   */\n      dup2\n        /* \"#utility.yul\":9822:9826   */\n      dup2\n        /* \"#utility.yul\":9818:9838   */\n      sub\n        /* \"#utility.yul\":9813:9815   */\n      0x20\n        /* \"#utility.yul\":9802:9811   */\n      dup4\n        /* \"#utility.yul\":9798:9816   */\n      add\n        /* \"#utility.yul\":9791:9839   */\n      mstore\n        /* \"#utility.yul\":9856:9934   */\n      tag_341\n        /* \"#utility.yul\":9929:9933   */\n      dup2\n        /* \"#utility.yul\":9920:9926   */\n      dup7\n        /* \"#utility.yul\":9856:9934   */\n      tag_191\n      jump\t// in\n    tag_341:\n        /* \"#utility.yul\":9848:9934   */\n      swap1\n      pop\n        /* \"#utility.yul\":9944:10016   */\n      tag_342\n        /* \"#utility.yul\":10012:10014   */\n      0x40\n        /* \"#utility.yul\":10001:10010   */\n      dup4\n        /* \"#utility.yul\":9997:10015   */\n      add\n        /* \"#utility.yul\":9988:9994   */\n      dup6\n        /* \"#utility.yul\":9944:10016   */\n      tag_187\n      jump\t// in\n    tag_342:\n        /* \"#utility.yul\":10026:10092   */\n      tag_343\n        /* \"#utility.yul\":10088:10090   */\n      0x60\n        /* \"#utility.yul\":10077:10086   */\n      dup4\n        /* \"#utility.yul\":10073:10091   */\n      add\n        /* \"#utility.yul\":10064:10070   */\n      dup5\n        /* \"#utility.yul\":10026:10092   */\n      tag_183\n      jump\t// in\n    tag_343:\n        /* \"#utility.yul\":9467:10099   */\n      swap6\n      swap5\n      pop\n      pop\n      pop\n      pop\n      pop\n      jump\t// out\n        /* \"#utility.yul\":10105:10240   */\n    tag_192:\n        /* \"#utility.yul\":10193:10199   */\n      0x00\n        /* \"#utility.yul\":10227:10232   */\n      dup2\n        /* \"#utility.yul\":10221:10233   */\n      mload\n        /* \"#utility.yul\":10211:10233   */\n      swap1\n      pop\n        /* \"#utility.yul\":10105:10240   */\n      swap2\n      swap1\n      pop\n      jump\t// out\n        /* \"#utility.yul\":10246:10451   */\n    tag_193:\n        /* \"#utility.yul\":10366:10377   */\n      0x00\n        /* \"#utility.yul\":10400:10406   */\n      dup3\n        /* \"#utility.yul\":10395:10398   */\n      dup3\n        /* \"#utility.yul\":10388:10407   */\n      mstore\n        /* \"#utility.yul\":10440:10444   */\n      0x20\n        /* \"#utility.yul\":10435:10438   */\n      dup3\n        /* \"#utility.yul\":10431:10445   */\n      add\n        /* \"#utility.yul\":10416:10445   */\n      swap1\n      pop\n        /* \"#utility.yul\":10246:10451   */\n      swap3\n      swap2\n      pop\n      pop\n      jump\t// out\n        /* \"#utility.yul\":10457:10610   */\n    tag_194:\n        /* \"#utility.yul\":10545:10549   */\n      0x00\n        /* \"#utility.yul\":10568:10571   */\n      dup2\n        /* \"#utility.yul\":10560:10571   */\n      swap1\n      pop\n        /* \"#utility.yul\":10598:10602   */\n      0x20\n        /* \"#utility.yul\":10593:10596   */\n      dup3\n        /* \"#utility.yul\":10589:10603   */\n      add\n        /* \"#utility.yul\":10581:10603   */\n      swap1\n      pop\n        /* \"#utility.yul\":10457:10610   */\n      swap2\n      swap1\n      pop\n      jump\t// out\n        /* \"#utility.yul\":10616:10724   */\n    tag_195:\n        /* \"#utility.yul\":10693:10717   */\n      tag_348\n        /* \"#utility.yul\":10711:10716   */\n      dup2\n        /* \"#utility.yul\":10693:10717   */\n      tag_184\n      jump\t// in\n    tag_348:\n        /* \"#utility.yul\":10688:10691   */\n      dup3\n        /* \"#utility.yul\":10681:10718   */\n      mstore\n        /* \"#utility.yul\":10616:10724   */\n      pop\n      pop\n      jump\t// out\n        /* \"#utility.yul\":10730:10889   */\n    tag_196:\n        /* \"#utility.yul\":10804:10815   */\n      0x00\n        /* \"#utility.yul\":10838:10844   */\n      dup3\n        /* \"#utility.yul\":10833:10836   */\n      dup3\n        /* \"#utility.yul\":10826:10845   */\n      mstore\n        /* \"#utility.yul\":10878:10882   */\n      0x20\n        /* \"#utility.yul\":10873:10876   */\n      dup3\n        /* \"#utility.yul\":10869:10883   */\n      add\n        /* \"#utility.yul\":10854:10883   */\n      swap1\n      pop\n        /* \"#utility.yul\":10730:10889   */\n      swap3\n      swap2\n      pop\n      pop\n      jump\t// out\n        /* \"#utility.yul\":10895:11252   */\n    tag_197:\n        /* \"#utility.yul\":10973:10976   */\n      0x00\n        /* \"#utility.yul\":11001:11040   */\n      tag_351\n        /* \"#utility.yul\":11034:11039   */\n      dup3\n        /* \"#utility.yul\":11001:11040   */\n      tag_188\n      jump\t// in\n    tag_351:\n        /* \"#utility.yul\":11056:11117   */\n      tag_352\n        /* \"#utility.yul\":11110:11116   */\n      dup2\n        /* \"#utility.yul\":11105:11108   */\n      dup6\n        /* \"#utility.yul\":11056:11117   */\n      tag_196\n      jump\t// in\n    tag_352:\n        /* \"#utility.yul\":11049:11117   */\n      swap4\n      pop\n        /* \"#utility.yul\":11126:11191   */\n      tag_353\n        /* \"#utility.yul\":11184:11190   */\n      dup2\n        /* \"#utility.yul\":11179:11182   */\n      dup6\n        /* \"#utility.yul\":11172:11176   */\n      0x20\n        /* \"#utility.yul\":11165:11170   */\n      dup7\n        /* \"#utility.yul\":11161:11177   */\n      add\n        /* \"#utility.yul\":11126:11191   */\n      tag_190\n      jump\t// in\n    tag_353:\n        /* \"#utility.yul\":11216:11245   */\n      tag_354\n        /* \"#utility.yul\":11238:11244   */\n      dup2\n        /* \"#utility.yul\":11216:11245   */\n      tag_163\n      jump\t// in\n    tag_354:\n        /* \"#utility.yul\":11211:11214   */\n      dup5\n        /* \"#utility.yul\":11207:11246   */\n      add\n        /* \"#utility.yul\":11200:11246   */\n      swap2\n      pop\n        /* \"#utility.yul\":10977:11252   */\n      pop\n        /* \"#utility.yul\":10895:11252   */\n      swap3\n      swap2\n      pop\n      pop\n      jump\t// out\n        /* \"#utility.yul\":11258:11357   */\n    tag_198:\n        /* \"#utility.yul\":11329:11350   */\n      tag_356\n        /* \"#utility.yul\":11344:11349   */\n      dup2\n        /* \"#utility.yul\":11329:11350   */\n      tag_182\n      jump\t// in\n    tag_356:\n        /* \"#utility.yul\":11324:11327   */\n      dup3\n        /* \"#utility.yul\":11317:11351   */\n      mstore\n        /* \"#utility.yul\":11258:11357   */\n      pop\n      pop\n      jump\t// out\n        /* \"#utility.yul\":11431:12609   */\n    tag_199:\n        /* \"#utility.yul\":11532:11535   */\n      0x00\n        /* \"#utility.yul\":11568:11572   */\n      0xa0\n        /* \"#utility.yul\":11563:11566   */\n      dup4\n        /* \"#utility.yul\":11559:11573   */\n      add\n        /* \"#utility.yul\":11653:11657   */\n      0x00\n        /* \"#utility.yul\":11646:11651   */\n      dup4\n        /* \"#utility.yul\":11642:11658   */\n      add\n        /* \"#utility.yul\":11636:11659   */\n      mload\n        /* \"#utility.yul\":11672:11735   */\n      tag_358\n        /* \"#utility.yul\":11729:11733   */\n      0x00\n        /* \"#utility.yul\":11724:11727   */\n      dup7\n        /* \"#utility.yul\":11720:11734   */\n      add\n        /* \"#utility.yul\":11706:11718   */\n      dup3\n        /* \"#utility.yul\":11672:11735   */\n      tag_195\n      jump\t// in\n    tag_358:\n        /* \"#utility.yul\":11583:11745   */\n      pop\n        /* \"#utility.yul\":11827:11831   */\n      0x20\n        /* \"#utility.yul\":11820:11825   */\n      dup4\n        /* \"#utility.yul\":11816:11832   */\n      add\n        /* \"#utility.yul\":11810:11833   */\n      mload\n        /* \"#utility.yul\":11880:11883   */\n      dup5\n        /* \"#utility.yul\":11874:11878   */\n      dup3\n        /* \"#utility.yul\":11870:11884   */\n      sub\n        /* \"#utility.yul\":11863:11867   */\n      0x20\n        /* \"#utility.yul\":11858:11861   */\n      dup7\n        /* \"#utility.yul\":11854:11868   */\n      add\n        /* \"#utility.yul\":11847:11885   */\n      mstore\n        /* \"#utility.yul\":11906:11979   */\n      tag_359\n        /* \"#utility.yul\":11974:11978   */\n      dup3\n        /* \"#utility.yul\":11960:11972   */\n      dup3\n        /* \"#utility.yul\":11906:11979   */\n      tag_197\n      jump\t// in\n    tag_359:\n        /* \"#utility.yul\":11898:11979   */\n      swap2\n      pop\n        /* \"#utility.yul\":11755:11990   */\n      pop\n        /* \"#utility.yul\":12076:12080   */\n      0x40\n        /* \"#utility.yul\":12069:12074   */\n      dup4\n        /* \"#utility.yul\":12065:12081   */\n      add\n        /* \"#utility.yul\":12059:12082   */\n      mload\n        /* \"#utility.yul\":12129:12132   */\n      dup5\n        /* \"#utility.yul\":12123:12127   */\n      dup3\n        /* \"#utility.yul\":12119:12133   */\n      sub\n        /* \"#utility.yul\":12112:12116   */\n      0x40\n        /* \"#utility.yul\":12107:12110   */\n      dup7\n        /* \"#utility.yul\":12103:12117   */\n      add\n        /* \"#utility.yul\":12096:12134   */\n      mstore\n        /* \"#utility.yul\":12155:12228   */\n      tag_360\n        /* \"#utility.yul\":12223:12227   */\n      dup3\n        /* \"#utility.yul\":12209:12221   */\n      dup3\n        /* \"#utility.yul\":12155:12228   */\n      tag_197\n      jump\t// in\n    tag_360:\n        /* \"#utility.yul\":12147:12228   */\n      swap2\n      pop\n        /* \"#utility.yul\":12000:12239   */\n      pop\n        /* \"#utility.yul\":12323:12327   */\n      0x60\n        /* \"#utility.yul\":12316:12321   */\n      dup4\n        /* \"#utility.yul\":12312:12328   */\n      add\n        /* \"#utility.yul\":12306:12329   */\n      mload\n        /* \"#utility.yul\":12342:12399   */\n      tag_361\n        /* \"#utility.yul\":12393:12397   */\n      0x60\n        /* \"#utility.yul\":12388:12391   */\n      dup7\n        /* \"#utility.yul\":12384:12398   */\n      add\n        /* \"#utility.yul\":12370:12382   */\n      dup3\n        /* \"#utility.yul\":12342:12399   */\n      tag_198\n      jump\t// in\n    tag_361:\n        /* \"#utility.yul\":12249:12409   */\n      pop\n        /* \"#utility.yul\":12496:12500   */\n      0x80\n        /* \"#utility.yul\":12489:12494   */\n      dup4\n        /* \"#utility.yul\":12485:12501   */\n      add\n        /* \"#utility.yul\":12479:12502   */\n      mload\n        /* \"#utility.yul\":12515:12572   */\n      tag_362\n        /* \"#utility.yul\":12566:12570   */\n      0x80\n        /* \"#utility.yul\":12561:12564   */\n      dup7\n        /* \"#utility.yul\":12557:12571   */\n      add\n        /* \"#utility.yul\":12543:12555   */\n      dup3\n        /* \"#utility.yul\":12515:12572   */\n      tag_198\n      jump\t// in\n    tag_362:\n        /* \"#utility.yul\":12419:12582   */\n      pop\n        /* \"#utility.yul\":12599:12603   */\n      dup1\n        /* \"#utility.yul\":12592:12603   */\n      swap2\n      pop\n        /* \"#utility.yul\":11537:12609   */\n      pop\n        /* \"#utility.yul\":11431:12609   */\n      swap3\n      swap2\n      pop\n      pop\n      jump\t// out\n        /* \"#utility.yul\":12615:12855   */\n    tag_200:\n        /* \"#utility.yul\":12726:12736   */\n      0x00\n        /* \"#utility.yul\":12761:12849   */\n      tag_364\n        /* \"#utility.yul\":12845:12848   */\n      dup4\n        /* \"#utility.yul\":12837:12843   */\n      dup4\n        /* \"#utility.yul\":12761:12849   */\n      tag_199\n      jump\t// in\n    tag_364:\n        /* \"#utility.yul\":12747:12849   */\n      swap1\n      pop\n        /* \"#utility.yul\":12615:12855   */\n      swap3\n      swap2\n      pop\n      pop\n      jump\t// out\n        /* \"#utility.yul\":12861:12995   */\n    tag_201:\n        /* \"#utility.yul\":12952:12956   */\n      0x00\n        /* \"#utility.yul\":12984:12988   */\n      0x20\n        /* \"#utility.yul\":12979:12982   */\n      dup3\n        /* \"#utility.yul\":12975:12989   */\n      add\n        /* \"#utility.yul\":12967:12989   */\n      swap1\n      pop\n        /* \"#utility.yul\":12861:12995   */\n      swap2\n      swap1\n      pop\n      jump\t// out\n        /* \"#utility.yul\":13073:14152   */\n    tag_202:\n        /* \"#utility.yul\":13234:13237   */\n      0x00\n        /* \"#utility.yul\":13263:13338   */\n      tag_367\n        /* \"#utility.yul\":13332:13337   */\n      dup3\n        /* \"#utility.yul\":13263:13338   */\n      tag_192\n      jump\t// in\n    tag_367:\n        /* \"#utility.yul\":13354:13461   */\n      tag_368\n        /* \"#utility.yul\":13454:13460   */\n      dup2\n        /* \"#utility.yul\":13449:13452   */\n      dup6\n        /* \"#utility.yul\":13354:13461   */\n      tag_193\n      jump\t// in\n    tag_368:\n        /* \"#utility.yul\":13347:13461   */\n      swap4\n      pop\n        /* \"#utility.yul\":13487:13490   */\n      dup4\n        /* \"#utility.yul\":13532:13536   */\n      0x20\n        /* \"#utility.yul\":13524:13530   */\n      dup3\n        /* \"#utility.yul\":13520:13537   */\n      mul\n        /* \"#utility.yul\":13515:13518   */\n      dup6\n        /* \"#utility.yul\":13511:13538   */\n      add\n        /* \"#utility.yul\":13562:13639   */\n      tag_369\n        /* \"#utility.yul\":13633:13638   */\n      dup6\n        /* \"#utility.yul\":13562:13639   */\n      tag_194\n      jump\t// in\n    tag_369:\n        /* \"#utility.yul\":13662:13669   */\n      dup1\n        /* \"#utility.yul\":13693:13694   */\n      0x00\n        /* \"#utility.yul\":13678:14107   */\n    tag_370:\n        /* \"#utility.yul\":13703:13709   */\n      dup6\n        /* \"#utility.yul\":13700:13701   */\n      dup2\n        /* \"#utility.yul\":13697:13710   */\n      lt\n        /* \"#utility.yul\":13678:14107   */\n      iszero\n      tag_372\n      jumpi\n        /* \"#utility.yul\":13774:13783   */\n      dup5\n        /* \"#utility.yul\":13768:13772   */\n      dup5\n        /* \"#utility.yul\":13764:13784   */\n      sub\n        /* \"#utility.yul\":13759:13762   */\n      dup10\n        /* \"#utility.yul\":13752:13785   */\n      mstore\n        /* \"#utility.yul\":13825:13831   */\n      dup2\n        /* \"#utility.yul\":13819:13832   */\n      mload\n        /* \"#utility.yul\":13853:13959   */\n      tag_373\n        /* \"#utility.yul\":13954:13958   */\n      dup6\n        /* \"#utility.yul\":13939:13952   */\n      dup3\n        /* \"#utility.yul\":13853:13959   */\n      tag_200\n      jump\t// in\n    tag_373:\n        /* \"#utility.yul\":13845:13959   */\n      swap5\n      pop\n        /* \"#utility.yul\":13982:14063   */\n      tag_374\n        /* \"#utility.yul\":14056:14062   */\n      dup4\n        /* \"#utility.yul\":13982:14063   */\n      tag_201\n      jump\t// in\n    tag_374:\n        /* \"#utility.yul\":13972:14063   */\n      swap3\n      pop\n        /* \"#utility.yul\":14092:14096   */\n      0x20\n        /* \"#utility.yul\":14087:14090   */\n      dup11\n        /* \"#utility.yul\":14083:14097   */\n      add\n        /* \"#utility.yul\":14076:14097   */\n      swap10\n      pop\n        /* \"#utility.yul\":13738:14107   */\n      pop\n        /* \"#utility.yul\":13725:13726   */\n      0x01\n        /* \"#utility.yul\":13722:13723   */\n      dup2\n        /* \"#utility.yul\":13718:13727   */\n      add\n        /* \"#utility.yul\":13713:13727   */\n      swap1\n      pop\n        /* \"#utility.yul\":13678:14107   */\n      jump(tag_370)\n    tag_372:\n        /* \"#utility.yul\":13682:13696   */\n      pop\n        /* \"#utility.yul\":14123:14127   */\n      dup3\n        /* \"#utility.yul\":14116:14127   */\n      swap8\n      pop\n        /* \"#utility.yul\":14143:14146   */\n      dup8\n        /* \"#utility.yul\":14136:14146   */\n      swap6\n      pop\n        /* \"#utility.yul\":13239:14152   */\n      pop\n      pop\n      pop\n      pop\n      pop\n        /* \"#utility.yul\":13073:14152   */\n      swap3\n      swap2\n      pop\n      pop\n      jump\t// out\n        /* \"#utility.yul\":14158:14615   */\n    tag_28:\n        /* \"#utility.yul\":14343:14347   */\n      0x00\n        /* \"#utility.yul\":14381:14383   */\n      0x20\n        /* \"#utility.yul\":14370:14379   */\n      dup3\n        /* \"#utility.yul\":14366:14384   */\n      add\n        /* \"#utility.yul\":14358:14384   */\n      swap1\n      pop\n        /* \"#utility.yul\":14430:14439   */\n      dup2\n        /* \"#utility.yul\":14424:14428   */\n      dup2\n        /* \"#utility.yul\":14420:14440   */\n      sub\n        /* \"#utility.yul\":14416:14417   */\n      0x00\n        /* \"#utility.yul\":14405:14414   */\n      dup4\n        /* \"#utility.yul\":14401:14418   */\n      add\n        /* \"#utility.yul\":14394:14441   */\n      mstore\n        /* \"#utility.yul\":14458:14608   */\n      tag_376\n        /* \"#utility.yul\":14603:14607   */\n      dup2\n        /* \"#utility.yul\":14594:14600   */\n      dup5\n        /* \"#utility.yul\":14458:14608   */\n      tag_202\n      jump\t// in\n    tag_376:\n        /* \"#utility.yul\":14450:14608   */\n      swap1\n      pop\n        /* \"#utility.yul\":14158:14615   */\n      swap3\n      swap2\n      pop\n      pop\n      jump\t// out\n        /* \"#utility.yul\":14621:14843   */\n    tag_32:\n        /* \"#utility.yul\":14714:14718   */\n      0x00\n        /* \"#utility.yul\":14752:14754   */\n      0x20\n        /* \"#utility.yul\":14741:14750   */\n      dup3\n        /* \"#utility.yul\":14737:14755   */\n      add\n        /* \"#utility.yul\":14729:14755   */\n      swap1\n      pop\n        /* \"#utility.yul\":14765:14836   */\n      tag_378\n        /* \"#utility.yul\":14833:14834   */\n      0x00\n        /* \"#utility.yul\":14822:14831   */\n      dup4\n        /* \"#utility.yul\":14818:14835   */\n      add\n        /* \"#utility.yul\":14809:14815   */\n      dup5\n        /* \"#utility.yul\":14765:14836   */\n      tag_187\n      jump\t// in\n    tag_378:\n        /* \"#utility.yul\":14621:14843   */\n      swap3\n      swap2\n      pop\n      pop\n      jump\t// out\n        /* \"#utility.yul\":14849:15358   */\n    tag_35:\n        /* \"#utility.yul\":14918:14924   */\n      0x00\n        /* \"#utility.yul\":14967:14969   */\n      0x20\n        /* \"#utility.yul\":14955:14964   */\n      dup3\n        /* \"#utility.yul\":14946:14953   */\n      dup5\n        /* \"#utility.yul\":14942:14965   */\n      sub\n        /* \"#utility.yul\":14938:14970   */\n      slt\n        /* \"#utility.yul\":14935:15054   */\n      iszero\n      tag_380\n      jumpi\n        /* \"#utility.yul\":14973:15052   */\n      tag_381\n      tag_159\n      jump\t// in\n    tag_381:\n        /* \"#utility.yul\":14935:15054   */\n    tag_380:\n        /* \"#utility.yul\":15121:15122   */\n      0x00\n        /* \"#utility.yul\":15110:15119   */\n      dup3\n        /* \"#utility.yul\":15106:15123   */\n      add\n        /* \"#utility.yul\":15093:15124   */\n      calldataload\n        /* \"#utility.yul\":15151:15169   */\n      0xffffffffffffffff\n        /* \"#utility.yul\":15143:15149   */\n      dup2\n        /* \"#utility.yul\":15140:15170   */\n      gt\n        /* \"#utility.yul\":15137:15254   */\n      iszero\n      tag_382\n      jumpi\n        /* \"#utility.yul\":15173:15252   */\n      tag_383\n      tag_160\n      jump\t// in\n    tag_383:\n        /* \"#utility.yul\":15137:15254   */\n    tag_382:\n        /* \"#utility.yul\":15278:15341   */\n      tag_384\n        /* \"#utility.yul\":15333:15340   */\n      dup5\n        /* \"#utility.yul\":15324:15330   */\n      dup3\n        /* \"#utility.yul\":15313:15322   */\n      dup6\n        /* \"#utility.yul\":15309:15331   */\n      add\n        /* \"#utility.yul\":15278:15341   */\n      tag_170\n      jump\t// in\n    tag_384:\n        /* \"#utility.yul\":15268:15341   */\n      swap2\n      pop\n        /* \"#utility.yul\":15064:15351   */\n      pop\n        /* \"#utility.yul\":14849:15358   */\n      swap3\n      swap2\n      pop\n      pop\n      jump\t// out\n        /* \"#utility.yul\":15364:16186   */\n    tag_42:\n        /* \"#utility.yul\":15597:15601   */\n      0x00\n        /* \"#utility.yul\":15635:15638   */\n      0xa0\n        /* \"#utility.yul\":15624:15633   */\n      dup3\n        /* \"#utility.yul\":15620:15639   */\n      add\n        /* \"#utility.yul\":15612:15639   */\n      swap1\n      pop\n        /* \"#utility.yul\":15649:15720   */\n      tag_386\n        /* \"#utility.yul\":15717:15718   */\n      0x00\n        /* \"#utility.yul\":15706:15715   */\n      dup4\n        /* \"#utility.yul\":15702:15719   */\n      add\n        /* \"#utility.yul\":15693:15699   */\n      dup9\n        /* \"#utility.yul\":15649:15720   */\n      tag_187\n      jump\t// in\n    tag_386:\n        /* \"#utility.yul\":15767:15776   */\n      dup2\n        /* \"#utility.yul\":15761:15765   */\n      dup2\n        /* \"#utility.yul\":15757:15777   */\n      sub\n        /* \"#utility.yul\":15752:15754   */\n      0x20\n        /* \"#utility.yul\":15741:15750   */\n      dup4\n        /* \"#utility.yul\":15737:15755   */\n      add\n        /* \"#utility.yul\":15730:15778   */\n      mstore\n        /* \"#utility.yul\":15795:15873   */\n      tag_387\n        /* \"#utility.yul\":15868:15872   */\n      dup2\n        /* \"#utility.yul\":15859:15865   */\n      dup8\n        /* \"#utility.yul\":15795:15873   */\n      tag_191\n      jump\t// in\n    tag_387:\n        /* \"#utility.yul\":15787:15873   */\n      swap1\n      pop\n        /* \"#utility.yul\":15920:15929   */\n      dup2\n        /* \"#utility.yul\":15914:15918   */\n      dup2\n        /* \"#utility.yul\":15910:15930   */\n      sub\n        /* \"#utility.yul\":15905:15907   */\n      0x40\n        /* \"#utility.yul\":15894:15903   */\n      dup4\n        /* \"#utility.yul\":15890:15908   */\n      add\n        /* \"#utility.yul\":15883:15931   */\n      mstore\n        /* \"#utility.yul\":15948:16026   */\n      tag_388\n        /* \"#utility.yul\":16021:16025   */\n      dup2\n        /* \"#utility.yul\":16012:16018   */\n      dup7\n        /* \"#utility.yul\":15948:16026   */\n      tag_191\n      jump\t// in\n    tag_388:\n        /* \"#utility.yul\":15940:16026   */\n      swap1\n      pop\n        /* \"#utility.yul\":16036:16102   */\n      tag_389\n        /* \"#utility.yul\":16098:16100   */\n      0x60\n        /* \"#utility.yul\":16087:16096   */\n      dup4\n        /* \"#utility.yul\":16083:16101   */\n      add\n        /* \"#utility.yul\":16074:16080   */\n      dup6\n        /* \"#utility.yul\":16036:16102   */\n      tag_183\n      jump\t// in\n    tag_389:\n        /* \"#utility.yul\":16112:16179   */\n      tag_390\n        /* \"#utility.yul\":16174:16177   */\n      0x80\n        /* \"#utility.yul\":16163:16172   */\n      dup4\n        /* \"#utility.yul\":16159:16178   */\n      add\n        /* \"#utility.yul\":16150:16156   */\n      dup5\n        /* \"#utility.yul\":16112:16179   */\n      tag_183\n      jump\t// in\n    tag_390:\n        /* \"#utility.yul\":15364:16186   */\n      swap7\n      swap6\n      pop\n      pop\n      pop\n      pop\n      pop\n      pop\n      jump\t// out\n        /* \"#utility.yul\":16192:16666   */\n    tag_48:\n        /* \"#utility.yul\":16260:16266   */\n      0x00\n        /* \"#utility.yul\":16268:16274   */\n      dup1\n        /* \"#utility.yul\":16317:16319   */\n      0x40\n        /* \"#utility.yul\":16305:16314   */\n      dup4\n        /* \"#utility.yul\":16296:16303   */\n      dup6\n        /* \"#utility.yul\":16292:16315   */\n      sub\n        /* \"#utility.yul\":16288:16320   */\n      slt\n        /* \"#utility.yul\":16285:16404   */\n      iszero\n      tag_392\n      jumpi\n        /* \"#utility.yul\":16323:16402   */\n      tag_393\n      tag_159\n      jump\t// in\n    tag_393:\n        /* \"#utility.yul\":16285:16404   */\n    tag_392:\n        /* \"#utility.yul\":16443:16444   */\n      0x00\n        /* \"#utility.yul\":16468:16521   */\n      tag_394\n        /* \"#utility.yul\":16513:16520   */\n      dup6\n        /* \"#utility.yul\":16504:16510   */\n      dup3\n        /* \"#utility.yul\":16493:16502   */\n      dup7\n        /* \"#utility.yul\":16489:16511   */\n      add\n        /* \"#utility.yul\":16468:16521   */\n      tag_176\n      jump\t// in\n    tag_394:\n        /* \"#utility.yul\":16458:16521   */\n      swap3\n      pop\n        /* \"#utility.yul\":16414:16531   */\n      pop\n        /* \"#utility.yul\":16570:16572   */\n      0x20\n        /* \"#utility.yul\":16596:16649   */\n      tag_395\n        /* \"#utility.yul\":16641:16648   */\n      dup6\n        /* \"#utility.yul\":16632:16638   */\n      dup3\n        /* \"#utility.yul\":16621:16630   */\n      dup7\n        /* \"#utility.yul\":16617:16639   */\n      add\n        /* \"#utility.yul\":16596:16649   */\n      tag_186\n      jump\t// in\n    tag_395:\n        /* \"#utility.yul\":16586:16649   */\n      swap2\n      pop\n        /* \"#utility.yul\":16541:16659   */\n      pop\n        /* \"#utility.yul\":16192:16666   */\n      swap3\n      pop\n      swap3\n      swap1\n      pop\n      jump\t// out\n        /* \"#utility.yul\":16672:17001   */\n    tag_53:\n        /* \"#utility.yul\":16731:16737   */\n      0x00\n        /* \"#utility.yul\":16780:16782   */\n      0x20\n        /* \"#utility.yul\":16768:16777   */\n      dup3\n        /* \"#utility.yul\":16759:16766   */\n      dup5\n        /* \"#utility.yul\":16755:16778   */\n      sub\n        /* \"#utility.yul\":16751:16783   */\n      slt\n        /* \"#utility.yul\":16748:16867   */\n      iszero\n      tag_397\n      jumpi\n        /* \"#utility.yul\":16786:16865   */\n      tag_398\n      tag_159\n      jump\t// in\n    tag_398:\n        /* \"#utility.yul\":16748:16867   */\n    tag_397:\n        /* \"#utility.yul\":16906:16907   */\n      0x00\n        /* \"#utility.yul\":16931:16984   */\n      tag_399\n        /* \"#utility.yul\":16976:16983   */\n      dup5\n        /* \"#utility.yul\":16967:16973   */\n      dup3\n        /* \"#utility.yul\":16956:16965   */\n      dup6\n        /* \"#utility.yul\":16952:16974   */\n      add\n        /* \"#utility.yul\":16931:16984   */\n      tag_176\n      jump\t// in\n    tag_399:\n        /* \"#utility.yul\":16921:16984   */\n      swap2\n      pop\n        /* \"#utility.yul\":16877:16994   */\n      pop\n        /* \"#utility.yul\":16672:17001   */\n      swap3\n      swap2\n      pop\n      pop\n      jump\t// out\n        /* \"#utility.yul\":17007:17180   */\n    tag_203:\n        /* \"#utility.yul\":17147:17172   */\n      0x456c656374696f6e20616c726561647920657869737473000000000000000000\n        /* \"#utility.yul\":17143:17144   */\n      0x00\n        /* \"#utility.yul\":17135:17141   */\n      dup3\n        /* \"#utility.yul\":17131:17145   */\n      add\n        /* \"#utility.yul\":17124:17173   */\n      mstore\n        /* \"#utility.yul\":17007:17180   */\n      pop\n      jump\t// out\n        /* \"#utility.yul\":17186:17552   */\n    tag_204:\n        /* \"#utility.yul\":17328:17331   */\n      0x00\n        /* \"#utility.yul\":17349:17416   */\n      tag_402\n        /* \"#utility.yul\":17413:17415   */\n      0x17\n        /* \"#utility.yul\":17408:17411   */\n      dup4\n        /* \"#utility.yul\":17349:17416   */\n      tag_189\n      jump\t// in\n    tag_402:\n        /* \"#utility.yul\":17342:17416   */\n      swap2\n      pop\n        /* \"#utility.yul\":17425:17518   */\n      tag_403\n        /* \"#utility.yul\":17514:17517   */\n      dup3\n        /* \"#utility.yul\":17425:17518   */\n      tag_203\n      jump\t// in\n    tag_403:\n        /* \"#utility.yul\":17543:17545   */\n      0x20\n        /* \"#utility.yul\":17538:17541   */\n      dup3\n        /* \"#utility.yul\":17534:17546   */\n      add\n        /* \"#utility.yul\":17527:17546   */\n      swap1\n      pop\n        /* \"#utility.yul\":17186:17552   */\n      swap2\n      swap1\n      pop\n      jump\t// out\n        /* \"#utility.yul\":17558:17977   */\n    tag_59:\n        /* \"#utility.yul\":17724:17728   */\n      0x00\n        /* \"#utility.yul\":17762:17764   */\n      0x20\n        /* \"#utility.yul\":17751:17760   */\n      dup3\n        /* \"#utility.yul\":17747:17765   */\n      add\n        /* \"#utility.yul\":17739:17765   */\n      swap1\n      pop\n        /* \"#utility.yul\":17811:17820   */\n      dup2\n        /* \"#utility.yul\":17805:17809   */\n      dup2\n        /* \"#utility.yul\":17801:17821   */\n      sub\n        /* \"#utility.yul\":17797:17798   */\n      0x00\n        /* \"#utility.yul\":17786:17795   */\n      dup4\n        /* \"#utility.yul\":17782:17799   */\n      add\n        /* \"#utility.yul\":17775:17822   */\n      mstore\n        /* \"#utility.yul\":17839:17970   */\n      tag_405\n        /* \"#utility.yul\":17965:17969   */\n      dup2\n        /* \"#utility.yul\":17839:17970   */\n      tag_204\n      jump\t// in\n    tag_405:\n        /* \"#utility.yul\":17831:17970   */\n      swap1\n      pop\n        /* \"#utility.yul\":17558:17977   */\n      swap2\n      swap1\n      pop\n      jump\t// out\n        /* \"#utility.yul\":17983:18163   */\n    tag_205:\n        /* \"#utility.yul\":18031:18108   */\n      0x4e487b7100000000000000000000000000000000000000000000000000000000\n        /* \"#utility.yul\":18028:18029   */\n      0x00\n        /* \"#utility.yul\":18021:18109   */\n      mstore\n        /* \"#utility.yul\":18128:18132   */\n      0x22\n        /* \"#utility.yul\":18125:18126   */\n      0x04\n        /* \"#utility.yul\":18118:18133   */\n      mstore\n        /* \"#utility.yul\":18152:18156   */\n      0x24\n        /* \"#utility.yul\":18149:18150   */\n      0x00\n        /* \"#utility.yul\":18142:18157   */\n      revert\n        /* \"#utility.yul\":18169:18489   */\n    tag_70:\n        /* \"#utility.yul\":18213:18219   */\n      0x00\n        /* \"#utility.yul\":18250:18251   */\n      0x02\n        /* \"#utility.yul\":18244:18248   */\n      dup3\n        /* \"#utility.yul\":18240:18252   */\n      div\n        /* \"#utility.yul\":18230:18252   */\n      swap1\n      pop\n        /* \"#utility.yul\":18297:18298   */\n      0x01\n        /* \"#utility.yul\":18291:18295   */\n      dup3\n        /* \"#utility.yul\":18287:18299   */\n      and\n        /* \"#utility.yul\":18318:18336   */\n      dup1\n        /* \"#utility.yul\":18308:18389   */\n      tag_408\n      jumpi\n        /* \"#utility.yul\":18374:18378   */\n      0x7f\n        /* \"#utility.yul\":18366:18372   */\n      dup3\n        /* \"#utility.yul\":18362:18379   */\n      and\n        /* \"#utility.yul\":18352:18379   */\n      swap2\n      pop\n        /* \"#utility.yul\":18308:18389   */\n    tag_408:\n        /* \"#utility.yul\":18436:18438   */\n      0x20\n        /* \"#utility.yul\":18428:18434   */\n      dup3\n        /* \"#utility.yul\":18425:18439   */\n      lt\n        /* \"#utility.yul\":18405:18423   */\n      dup2\n        /* \"#utility.yul\":18402:18440   */\n      sub\n        /* \"#utility.yul\":18399:18483   */\n      tag_409\n      jumpi\n        /* \"#utility.yul\":18455:18473   */\n      tag_410\n      tag_205\n      jump\t// in\n    tag_410:\n        /* \"#utility.yul\":18399:18483   */\n    tag_409:\n        /* \"#utility.yul\":18220:18489   */\n      pop\n        /* \"#utility.yul\":18169:18489   */\n      swap2\n      swap1\n      pop\n      jump\t// out\n        /* \"#utility.yul\":18495:18636   */\n    tag_206:\n        /* \"#utility.yul\":18544:18548   */\n      0x00\n        /* \"#utility.yul\":18567:18570   */\n      dup2\n        /* \"#utility.yul\":18559:18570   */\n      swap1\n      pop\n        /* \"#utility.yul\":18590:18593   */\n      dup2\n        /* \"#utility.yul\":18587:18588   */\n      0x00\n        /* \"#utility.yul\":18580:18594   */\n      mstore\n        /* \"#utility.yul\":18624:18628   */\n      0x20\n        /* \"#utility.yul\":18621:18622   */\n      0x00\n        /* \"#utility.yul\":18611:18629   */\n      keccak256\n        /* \"#utility.yul\":18603:18629   */\n      swap1\n      pop\n        /* \"#utility.yul\":18495:18636   */\n      swap2\n      swap1\n      pop\n      jump\t// out\n        /* \"#utility.yul\":18642:18735   */\n    tag_207:\n        /* \"#utility.yul\":18679:18685   */\n      0x00\n        /* \"#utility.yul\":18726:18728   */\n      0x20\n        /* \"#utility.yul\":18721:18723   */\n      0x1f\n        /* \"#utility.yul\":18714:18719   */\n      dup4\n        /* \"#utility.yul\":18710:18724   */\n      add\n        /* \"#utility.yul\":18706:18729   */\n      div\n        /* \"#utility.yul\":18696:18729   */\n      swap1\n      pop\n        /* \"#utility.yul\":18642:18735   */\n      swap2\n      swap1\n      pop\n      jump\t// out\n        /* \"#utility.yul\":18741:18848   */\n    tag_208:\n        /* \"#utility.yul\":18785:18793   */\n      0x00\n        /* \"#utility.yul\":18835:18840   */\n      dup3\n        /* \"#utility.yul\":18829:18833   */\n      dup3\n        /* \"#utility.yul\":18825:18841   */\n      shl\n        /* \"#utility.yul\":18804:18841   */\n      swap1\n      pop\n        /* \"#utility.yul\":18741:18848   */\n      swap3\n      swap2\n      pop\n      pop\n      jump\t// out\n        /* \"#utility.yul\":18854:19247   */\n    tag_209:\n        /* \"#utility.yul\":18923:18929   */\n      0x00\n        /* \"#utility.yul\":18973:18974   */\n      0x08\n        /* \"#utility.yul\":18961:18971   */\n      dup4\n        /* \"#utility.yul\":18957:18975   */\n      mul\n        /* \"#utility.yul\":18996:19093   */\n      tag_415\n        /* \"#utility.yul\":19026:19092   */\n      0xffffffffffffffffffffffffffffffffffffffffffffffffffffffffffffffff\n        /* \"#utility.yul\":19015:19024   */\n      dup3\n        /* \"#utility.yul\":18996:19093   */\n      tag_208\n      jump\t// in\n    tag_415:\n        /* \"#utility.yul\":19114:19153   */\n      tag_416\n        /* \"#utility.yul\":19144:19152   */\n      dup7\n        /* \"#utility.yul\":19133:19142   */\n      dup4\n        /* \"#utility.yul\":19114:19153   */\n      tag_208\n      jump\t// in\n    tag_416:\n        /* \"#utility.yul\":19102:19153   */\n      swap6\n      pop\n        /* \"#utility.yul\":19186:19190   */\n      dup1\n        /* \"#utility.yul\":19182:19191   */\n      not\n        /* \"#utility.yul\":19175:19180   */\n      dup5\n        /* \"#utility.yul\":19171:19192   */\n      and\n        /* \"#utility.yul\":19162:19192   */\n      swap4\n      pop\n        /* \"#utility.yul\":19235:19239   */\n      dup1\n        /* \"#utility.yul\":19225:19233   */\n      dup7\n        /* \"#utility.yul\":19221:19240   */\n      and\n        /* \"#utility.yul\":19214:19219   */\n      dup5\n        /* \"#utility.yul\":19211:19241   */\n      or\n        /* \"#utility.yul\":19201:19241   */\n      swap3\n      pop\n        /* \"#utility.yul\":18930:19247   */\n      pop\n      pop\n        /* \"#utility.yul\":18854:19247   */\n      swap4\n      swap3\n      pop\n      pop\n      pop\n      jump\t// out\n        /* \"#utility.yul\":19253:19313   */\n    tag_210:\n        /* \"#utility.yul\":19281:19284   */\n      0x00\n        /* \"#utility.yul\":19302:19307   */\n      dup2\n        /* \"#utility.yul\":19295:19307   */\n      swap1\n      pop\n        /* \"#utility.yul\":19253:19313   */\n      swap2\n      swap1\n      pop\n      jump\t// out\n        /* \"#utility.yul\":19319:19461   */\n    tag_211:\n        /* \"#utility.yul\":19369:19378   */\n      0x00\n        /* \"#utility.yul\":19402:19455   */\n      tag_419\n        /* \"#utility.yul\":19420:19454   */\n      tag_420\n        /* \"#utility.yul\":19429:19453   */\n      tag_421\n        /* \"#utility.yul\":19447:19452   */\n      dup5\n        /* \"#utility.yul\":19429:19453   */\n      tag_184\n      jump\t// in\n    tag_421:\n        /* \"#utility.yul\":19420:19454   */\n      tag_210\n      jump\t// in\n    tag_420:\n        /* \"#utility.yul\":19402:19455   */\n      tag_184\n      jump\t// in\n    tag_419:\n        /* \"#utility.yul\":19389:19455   */\n      swap1\n      pop\n        /* \"#utility.yul\":19319:19461   */\n      swap2\n      swap1\n      pop\n      jump\t// out\n        /* \"#utility.yul\":19467:19542   */\n    tag_212:\n        /* \"#utility.yul\":19510:19513   */\n      0x00\n        /* \"#utility.yul\":19531:19536   */\n      dup2\n        /* \"#utility.yul\":19524:19536   */\n      swap1\n      pop\n        /* \"#utility.yul\":19467:19542   */\n      swap2\n      swap1\n      pop\n      jump\t// out\n        /* \"#utility.yul\":19548:19817   */\n    tag_213:\n        /* \"#utility.yul\":19658:19697   */\n      tag_424\n        /* \"#utility.yul\":19689:19696   */\n      dup4\n        /* \"#utility.yul\":19658:19697   */\n      tag_211\n      jump\t// in\n    tag_424:\n        /* \"#utility.yul\":19719:19810   */\n      tag_425\n        /* \"#utility.yul\":19768:19809   */\n      tag_426\n        /* \"#utility.yul\":19792:19808   */\n      dup3\n        /* \"#utility.yul\":19768:19809   */\n      tag_212\n      jump\t// in\n    tag_426:\n        /* \"#utility.yul\":19760:19766   */\n      dup5\n        /* \"#utility.yul\":19753:19757   */\n      dup5\n        /* \"#utility.yul\":19747:19758   */\n      sload\n        /* \"#utility.yul\":19719:19810   */\n      tag_209\n      jump\t// in\n    tag_425:\n        /* \"#utility.yul\":19713:19717   */\n      dup3\n        /* \"#utility.yul\":19706:19811   */\n      sstore\n        /* \"#utility.yul\":19624:19817   */\n      pop\n        /* \"#utility.yul\":19548:19817   */\n      pop\n      pop\n      pop\n      jump\t// out\n        /* \"#utility.yul\":19823:19896   */\n    tag_214:\n        /* \"#utility.yul\":19868:19871   */\n      0x00\n        /* \"#utility.yul\":19823:19896   */\n      swap1\n      jump\t// out\n        /* \"#utility.yul\":19902:20091   */\n    tag_215:\n        /* \"#utility.yul\":19979:20011   */\n      tag_429\n      tag_214\n      jump\t// in\n    tag_429:\n        /* \"#utility.yul\":20020:20085   */\n      tag_430\n        /* \"#utility.yul\":20078:20084   */\n      dup2\n        /* \"#utility.yul\":20070:20076   */\n      dup5\n        /* \"#utility.yul\":20064:20068   */\n      dup5\n        /* \"#utility.yul\":20020:20085   */\n      tag_213\n      jump\t// in\n    tag_430:\n        /* \"#utility.yul\":19955:20091   */\n      pop\n        /* \"#utility.yul\":19902:20091   */\n      pop\n      pop\n      jump\t// out\n        /* \"#utility.yul\":20097:20283   */\n    tag_216:\n        /* \"#utility.yul\":20157:20277   */\n    tag_432:\n        /* \"#utility.yul\":20174:20177   */\n      dup2\n        /* \"#utility.yul\":20167:20172   */\n      dup2\n        /* \"#utility.yul\":20164:20178   */\n      lt\n        /* \"#utility.yul\":20157:20277   */\n      iszero\n      tag_434\n      jumpi\n        /* \"#utility.yul\":20228:20267   */\n      tag_435\n        /* \"#utility.yul\":20265:20266   */\n      0x00\n        /* \"#utility.yul\":20258:20263   */\n      dup3\n        /* \"#utility.yul\":20228:20267   */\n      tag_215\n      jump\t// in\n    tag_435:\n        /* \"#utility.yul\":20201:20202   */\n      0x01\n        /* \"#utility.yul\":20194:20199   */\n      dup2\n        /* \"#utility.yul\":20190:20203   */\n      add\n        /* \"#utility.yul\":20181:20203   */\n      swap1\n      pop\n        /* \"#utility.yul\":20157:20277   */\n      jump(tag_432)\n    tag_434:\n        /* \"#utility.yul\":20097:20283   */\n      pop\n      pop\n      jump\t// out\n        /* \"#utility.yul\":20289:20832   */\n    tag_217:\n        /* \"#utility.yul\":20390:20392   */\n      0x1f\n        /* \"#utility.yul\":20385:20388   */\n      dup3\n        /* \"#utility.yul\":20382:20393   */\n      gt\n        /* \"#utility.yul\":20379:20825   */\n      iszero\n      tag_437\n      jumpi\n        /* \"#utility.yul\":20424:20462   */\n      tag_438\n        /* \"#utility.yul\":20456:20461   */\n      dup2\n        /* \"#utility.yul\":20424:20462   */\n      tag_206\n      jump\t// in\n    tag_438:\n        /* \"#utility.yul\":20508:20537   */\n      tag_439\n        /* \"#utility.yul\":20526:20536   */\n      dup5\n        /* \"#utility.yul\":20508:20537   */\n      tag_207\n      jump\t// in\n    tag_439:\n        /* \"#utility.yul\":20498:20506   */\n      dup2\n        /* \"#utility.yul\":20494:20538   */\n      add\n        /* \"#utility.yul\":20691:20693   */\n      0x20\n        /* \"#utility.yul\":20679:20689   */\n      dup6\n        /* \"#utility.yul\":20676:20694   */\n      lt\n        /* \"#utility.yul\":20673:20722   */\n      iszero\n      tag_440\n      jumpi\n        /* \"#utility.yul\":20712:20720   */\n      dup2\n        /* \"#utility.yul\":20697:20720   */\n      swap1\n      pop\n        /* \"#utility.yul\":20673:20722   */\n    tag_440:\n        /* \"#utility.yul\":20735:20815   */\n      tag_441\n        /* \"#utility.yul\":20791:20813   */\n      tag_442\n        /* \"#utility.yul\":20809:20812   */\n      dup6\n        /* \"#utility.yul\":20791:20813   */\n      tag_207\n      jump\t// in\n    tag_442:\n        /* \"#utility.yul\":20781:20789   */\n      dup4\n        /* \"#utility.yul\":20777:20814   */\n      add\n        /* \"#utility.yul\":20764:20775   */\n      dup3\n        /* \"#utility.yul\":20735:20815   */\n      tag_216\n      jump\t// in\n    tag_441:\n        /* \"#utility.yul\":20394:20825   */\n      pop\n      pop\n        /* \"#utility.yul\":20379:20825   */\n    tag_437:\n        /* \"#utility.yul\":20289:20832   */\n      pop\n      pop\n      pop\n      jump\t// out\n        /* \"#utility.yul\":20838:20955   */\n    tag_218:\n        /* \"#utility.yul\":20892:20900   */\n      0x00\n        /* \"#utility.yul\":20942:20947   */\n      dup3\n        /* \"#utility.yul\":20936:20940   */\n      dup3\n        /* \"#utility.yul\":20932:20948   */\n      shr\n        /* \"#utility.yul\":20911:20948   */\n      swap1\n      pop\n        /* \"#utility.yul\":20838:20955   */\n      swap3\n      swap2\n      pop\n      pop\n      jump\t// out\n        /* \"#utility.yul\":20961:21130   */\n    tag_219:\n        /* \"#utility.yul\":21005:21011   */\n      0x00\n        /* \"#utility.yul\":21038:21089   */\n      tag_445\n        /* \"#utility.yul\":21086:21087   */\n      0x00\n        /* \"#utility.yul\":21082:21088   */\n      not\n        /* \"#utility.yul\":21074:21079   */\n      dup5\n        /* \"#utility.yul\":21071:21072   */\n      0x08\n        /* \"#utility.yul\":21067:21080   */\n      mul\n        /* \"#utility.yul\":21038:21089   */\n      tag_218\n      jump\t// in\n    tag_445:\n        /* \"#utility.yul\":21034:21090   */\n      not\n        /* \"#utility.yul\":21119:21123   */\n      dup1\n        /* \"#utility.yul\":21113:21117   */\n      dup4\n        /* \"#utility.yul\":21109:21124   */\n      and\n        /* \"#utility.yul\":21099:21124   */\n      swap2\n      pop\n        /* \"#utility.yul\":21012:21130   */\n      pop\n        /* \"#utility.yul\":20961:21130   */\n      swap3\n      swap2\n      pop\n      pop\n      jump\t// out\n        /* \"#utility.yul\":21135:21430   */\n    tag_220:\n        /* \"#utility.yul\":21211:21215   */\n      0x00\n        /* \"#utility.yul\":21357:21386   */\n      tag_447\n        /* \"#utility.yul\":21382:21385   */\n      dup4\n        /* \"#utility.yul\":21376:21380   */\n      dup4\n        /* \"#utility.yul\":21357:21386   */\n      tag_219\n      jump\t// in\n    tag_447:\n        /* \"#utility.yul\":21349:21386   */\n      swap2\n      pop\n        /* \"#utility.yul\":21419:21422   */\n      dup3\n        /* \"#utility.yul\":21416:21417   */\n      0x02\n        /* \"#utility.yul\":21412:21423   */\n      mul\n        /* \"#utility.yul\":21406:21410   */\n      dup3\n        /* \"#utility.yul\":21403:21424   */\n      or\n        /* \"#utility.yul\":21395:21424   */\n      swap1\n      pop\n        /* \"#utility.yul\":21135:21430   */\n      swap3\n      swap2\n      pop\n      pop\n      jump\t// out\n        /* \"#utility.yul\":21435:22830   */\n    tag_61:\n        /* \"#utility.yul\":21552:21589   */\n      tag_449\n        /* \"#utility.yul\":21585:21588   */\n      dup3\n        /* \"#utility.yul\":21552:21589   */\n      tag_188\n      jump\t// in\n    tag_449:\n        /* \"#utility.yul\":21654:21672   */\n      0xffffffffffffffff\n        /* \"#utility.yul\":21646:21652   */\n      dup2\n        /* \"#utility.yul\":21643:21673   */\n      gt\n        /* \"#utility.yul\":21640:21696   */\n      iszero\n      tag_450\n      jumpi\n        /* \"#utility.yul\":21676:21694   */\n      tag_451\n      tag_164\n      jump\t// in\n    tag_451:\n        /* \"#utility.yul\":21640:21696   */\n    tag_450:\n        /* \"#utility.yul\":21720:21758   */\n      tag_452\n        /* \"#utility.yul\":21752:21756   */\n      dup3\n        /* \"#utility.yul\":21746:21757   */\n      sload\n        /* \"#utility.yul\":21720:21758   */\n      tag_70\n      jump\t// in\n    tag_452:\n        /* \"#utility.yul\":21805:21872   */\n      tag_453\n        /* \"#utility.yul\":21865:21871   */\n      dup3\n        /* \"#utility.yul\":21857:21863   */\n      dup3\n        /* \"#utility.yul\":21851:21855   */\n      dup6\n        /* \"#utility.yul\":21805:21872   */\n      tag_217\n      jump\t// in\n    tag_453:\n        /* \"#utility.yul\":21899:21900   */\n      0x00\n        /* \"#utility.yul\":21923:21927   */\n      0x20\n        /* \"#utility.yul\":21910:21927   */\n      swap1\n      pop\n        /* \"#utility.yul\":21955:21957   */\n      0x1f\n        /* \"#utility.yul\":21947:21953   */\n      dup4\n        /* \"#utility.yul\":21944:21958   */\n      gt\n        /* \"#utility.yul\":21972:21973   */\n      0x01\n        /* \"#utility.yul\":21967:22585   */\n      dup2\n      eq\n      tag_455\n      jumpi\n        /* \"#utility.yul\":22629:22630   */\n      0x00\n        /* \"#utility.yul\":22646:22652   */\n      dup5\n        /* \"#utility.yul\":22643:22720   */\n      iszero\n      tag_456\n      jumpi\n        /* \"#utility.yul\":22695:22704   */\n      dup3\n        /* \"#utility.yul\":22690:22693   */\n      dup8\n        /* \"#utility.yul\":22686:22705   */\n      add\n        /* \"#utility.yul\":22680:22706   */\n      mload\n        /* \"#utility.yul\":22671:22706   */\n      swap1\n      pop\n        /* \"#utility.yul\":22643:22720   */\n    tag_456:\n        /* \"#utility.yul\":22746:22813   */\n      tag_457\n        /* \"#utility.yul\":22806:22812   */\n      dup6\n        /* \"#utility.yul\":22799:22804   */\n      dup3\n        /* \"#utility.yul\":22746:22813   */\n      tag_220\n      jump\t// in\n    tag_457:\n        /* \"#utility.yul\":22740:22744   */\n      dup7\n        /* \"#utility.yul\":22733:22814   */\n      sstore\n        /* \"#utility.yul\":22602:22824   */\n      pop\n        /* \"#utility.yul\":21937:22824   */\n      jump(tag_454)\n        /* \"#utility.yul\":21967:22585   */\n    tag_455:\n        /* \"#utility.yul\":22019:22023   */\n      0x1f\n        /* \"#utility.yul\":22015:22024   */\n      not\n        /* \"#utility.yul\":22007:22013   */\n      dup5\n        /* \"#utility.yul\":22003:22025   */\n      and\n        /* \"#utility.yul\":22053:22090   */\n      tag_458\n        /* \"#utility.yul\":22085:22089   */\n      dup7\n        /* \"#utility.yul\":22053:22090   */\n      tag_206\n      jump\t// in\n    tag_458:\n        /* \"#utility.yul\":22112:22113   */\n      0x00\n        /* \"#utility.yul\":22126:22334   */\n    tag_459:\n        /* \"#utility.yul\":22140:22147   */\n      dup3\n        /* \"#utility.yul\":22137:22138   */\n      dup2\n        /* \"#utility.yul\":22134:22148   */\n      lt\n        /* \"#utility.yul\":22126:22334   */\n      iszero\n      tag_461\n      jumpi\n        /* \"#utility.yul\":22219:22228   */\n      dup5\n        /* \"#utility.yul\":22214:22217   */\n      dup10\n        /* \"#utility.yul\":22210:22229   */\n      add\n        /* \"#utility.yul\":22204:22230   */\n      mload\n        /* \"#utility.yul\":22196:22202   */\n      dup3\n        /* \"#utility.yul\":22189:22231   */\n      sstore\n        /* \"#utility.yul\":22270:22271   */\n      0x01\n        /* \"#utility.yul\":22262:22268   */\n      dup3\n        /* \"#utility.yul\":22258:22272   */\n      add\n        /* \"#utility.yul\":22248:22272   */\n      swap2\n      pop\n        /* \"#utility.yul\":22317:22319   */\n      0x20\n        /* \"#utility.yul\":22306:22315   */\n      dup6\n        /* \"#utility.yul\":22302:22320   */\n      add\n        /* \"#utility.yul\":22289:22320   */\n      swap5\n      pop\n        /* \"#utility.yul\":22163:22167   */\n      0x20\n        /* \"#utility.yul\":22160:22161   */\n      dup2\n        /* \"#utility.yul\":22156:22168   */\n      add\n        /* \"#utility.yul\":22151:22168   */\n      swap1\n      pop\n        /* \"#utility.yul\":22126:22334   */\n      jump(tag_459)\n    tag_461:\n        /* \"#utility.yul\":22362:22368   */\n      dup7\n        /* \"#utility.yul\":22353:22360   */\n      dup4\n        /* \"#utility.yul\":22350:22369   */\n      lt\n        /* \"#utility.yul\":22347:22526   */\n      iszero\n      tag_462\n      jumpi\n        /* \"#utility.yul\":22420:22429   */\n      dup5\n        /* \"#utility.yul\":22415:22418   */\n      dup10\n        /* \"#utility.yul\":22411:22430   */\n      add\n        /* \"#utility.yul\":22405:22431   */\n      mload\n        /* \"#utility.yul\":22463:22511   */\n      tag_463\n        /* \"#utility.yul\":22505:22509   */\n      0x1f\n        /* \"#utility.yul\":22497:22503   */\n      dup10\n        /* \"#utility.yul\":22493:22510   */\n      and\n        /* \"#utility.yul\":22482:22491   */\n      dup3\n        /* \"#utility.yul\":22463:22511   */\n      tag_219\n      jump\t// in\n    tag_463:\n        /* \"#utility.yul\":22455:22461   */\n      dup4\n        /* \"#utility.yul\":22448:22512   */\n      sstore\n        /* \"#utility.yul\":22370:22526   */\n      pop\n        /* \"#utility.yul\":22347:22526   */\n    tag_462:\n        /* \"#utility.yul\":22572:22573   */\n      0x01\n        /* \"#utility.yul\":22568:22569   */\n      0x02\n        /* \"#utility.yul\":22560:22566   */\n      dup9\n        /* \"#utility.yul\":22556:22570   */\n      mul\n        /* \"#utility.yul\":22552:22574   */\n      add\n        /* \"#utility.yul\":22546:22550   */\n      dup9\n        /* \"#utility.yul\":22539:22575   */\n      sstore\n        /* \"#utility.yul\":21974:22585   */\n      pop\n      pop\n      pop\n        /* \"#utility.yul\":21937:22824   */\n    tag_454:\n      pop\n        /* \"#utility.yul\":21527:22830   */\n      pop\n      pop\n      pop\n        /* \"#utility.yul\":21435:22830   */\n      pop\n      pop\n      jump\t// out\n        /* \"#utility.yul\":22836:23016   */\n    tag_221:\n        /* \"#utility.yul\":22884:22961   */\n      0x4e487b7100000000000000000000000000000000000000000000000000000000\n        /* \"#utility.yul\":22881:22882   */\n      0x00\n        /* \"#utility.yul\":22874:22962   */\n      mstore\n        /* \"#utility.yul\":22981:22985   */\n      0x11\n        /* \"#utility.yul\":22978:22979   */\n      0x04\n        /* \"#utility.yul\":22971:22986   */\n      mstore\n        /* \"#utility.yul\":23005:23009   */\n      0x24\n        /* \"#utility.yul\":23002:23003   */\n      0x00\n        /* \"#utility.yul\":22995:23010   */\n      revert\n        /* \"#utility.yul\":23022:23213   */\n    tag_68:\n        /* \"#utility.yul\":23062:23065   */\n      0x00\n        /* \"#utility.yul\":23081:23101   */\n      tag_466\n        /* \"#utility.yul\":23099:23100   */\n      dup3\n        /* \"#utility.yul\":23081:23101   */\n      tag_184\n      jump\t// in\n    tag_466:\n        /* \"#utility.yul\":23076:23101   */\n      swap2\n      pop\n        /* \"#utility.yul\":23115:23135   */\n      tag_467\n        /* \"#utility.yul\":23133:23134   */\n      dup4\n        /* \"#utility.yul\":23115:23135   */\n      tag_184\n      jump\t// in\n    tag_467:\n        /* \"#utility.yul\":23110:23135   */\n      swap3\n      pop\n        /* \"#utility.yul\":23158:23159   */\n      dup3\n        /* \"#utility.yul\":23155:23156   */\n      dup3\n        /* \"#utility.yul\":23151:23160   */\n      add\n        /* \"#utility.yul\":23144:23160   */\n      swap1\n      pop\n        /* \"#utility.yul\":23179:23182   */\n      dup1\n        /* \"#utility.yul\":23176:23177   */\n      dup3\n        /* \"#utility.yul\":23173:23183   */\n      gt\n        /* \"#utility.yul\":23170:23206   */\n      iszero\n      tag_468\n      jumpi\n        /* \"#utility.yul\":23186:23204   */\n      tag_469\n      tag_221\n      jump\t// in\n    tag_469:\n        /* \"#utility.yul\":23170:23206   */\n    tag_468:\n        /* \"#utility.yul\":23022:23213   */\n      swap3\n      swap2\n      pop\n      pop\n      jump\t// out\n        /* \"#utility.yul\":23219:23391   */\n    tag_222:\n        /* \"#utility.yul\":23359:23383   */\n      0x43414e204f4e4c59205245474953544552204f4e434500000000000000000000\n        /* \"#utility.yul\":23355:23356   */\n      0x00\n        /* \"#utility.yul\":23347:23353   */\n      dup3\n        /* \"#utility.yul\":23343:23357   */\n      add\n        /* \"#utility.yul\":23336:23384   */\n      mstore\n        /* \"#utility.yul\":23219:23391   */\n      pop\n      jump\t// out\n        /* \"#utility.yul\":23397:23763   */\n    tag_223:\n        /* \"#utility.yul\":23539:23542   */\n      0x00\n        /* \"#utility.yul\":23560:23627   */\n      tag_472\n        /* \"#utility.yul\":23624:23626   */\n      0x16\n        /* \"#utility.yul\":23619:23622   */\n      dup4\n        /* \"#utility.yul\":23560:23627   */\n      tag_189\n      jump\t// in\n    tag_472:\n        /* \"#utility.yul\":23553:23627   */\n      swap2\n      pop\n        /* \"#utility.yul\":23636:23729   */\n      tag_473\n        /* \"#utility.yul\":23725:23728   */\n      dup3\n        /* \"#utility.yul\":23636:23729   */\n      tag_222\n      jump\t// in\n    tag_473:\n        /* \"#utility.yul\":23754:23756   */\n      0x20\n        /* \"#utility.yul\":23749:23752   */\n      dup3\n        /* \"#utility.yul\":23745:23757   */\n      add\n        /* \"#utility.yul\":23738:23757   */\n      swap1\n      pop\n        /* \"#utility.yul\":23397:23763   */\n      swap2\n      swap1\n      pop\n      jump\t// out\n        /* \"#utility.yul\":23769:24188   */\n    tag_92:\n        /* \"#utility.yul\":23935:23939   */\n      0x00\n        /* \"#utility.yul\":23973:23975   */\n      0x20\n        /* \"#utility.yul\":23962:23971   */\n      dup3\n        /* \"#utility.yul\":23958:23976   */\n      add\n        /* \"#utility.yul\":23950:23976   */\n      swap1\n      pop\n        /* \"#utility.yul\":24022:24031   */\n      dup2\n        /* \"#utility.yul\":24016:24020   */\n      dup2\n        /* \"#utility.yul\":24012:24032   */\n      sub\n        /* \"#utility.yul\":24008:24009   */\n      0x00\n        /* \"#utility.yul\":23997:24006   */\n      dup4\n        /* \"#utility.yul\":23993:24010   */\n      add\n        /* \"#utility.yul\":23986:24033   */\n      mstore\n        /* \"#utility.yul\":24050:24181   */\n      tag_475\n        /* \"#utility.yul\":24176:24180   */\n      dup2\n        /* \"#utility.yul\":24050:24181   */\n      tag_223\n      jump\t// in\n    tag_475:\n        /* \"#utility.yul\":24042:24181   */\n      swap1\n      pop\n        /* \"#utility.yul\":23769:24188   */\n      swap2\n      swap1\n      pop\n      jump\t// out\n        /* \"#utility.yul\":24194:24343   */\n    tag_224:\n        /* \"#utility.yul\":24243:24249   */\n      0x00\n        /* \"#utility.yul\":24277:24282   */\n      dup2\n        /* \"#utility.yul\":24271:24283   */\n      sload\n        /* \"#utility.yul\":24261:24283   */\n      swap1\n      pop\n        /* \"#utility.yul\":24303:24336   */\n      tag_477\n        /* \"#utility.yul\":24329:24335   */\n      dup2\n        /* \"#utility.yul\":24303:24336   */\n      tag_70\n      jump\t// in\n    tag_477:\n        /* \"#utility.yul\":24293:24336   */\n      swap1\n      pop\n        /* \"#utility.yul\":24194:24343   */\n      swap2\n      swap1\n      pop\n      jump\t// out\n        /* \"#utility.yul\":24349:25800   */\n    tag_97:\n        /* \"#utility.yul\":24460:24463   */\n      dup2\n        /* \"#utility.yul\":24454:24458   */\n      dup2\n        /* \"#utility.yul\":24451:24464   */\n      sub\n        /* \"#utility.yul\":24448:24474   */\n      tag_479\n      jumpi\n        /* \"#utility.yul\":24467:24472   */\n      pop\n      pop\n      jump(tag_478)\n        /* \"#utility.yul\":24448:24474   */\n    tag_479:\n        /* \"#utility.yul\":24498:24532   */\n      tag_480\n        /* \"#utility.yul\":24528:24531   */\n      dup3\n        /* \"#utility.yul\":24498:24532   */\n      tag_224\n      jump\t// in\n    tag_480:\n        /* \"#utility.yul\":24597:24615   */\n      0xffffffffffffffff\n        /* \"#utility.yul\":24589:24595   */\n      dup2\n        /* \"#utility.yul\":24586:24616   */\n      gt\n        /* \"#utility.yul\":24583:24639   */\n      iszero\n      tag_481\n      jumpi\n        /* \"#utility.yul\":24619:24637   */\n      tag_482\n      tag_164\n      jump\t// in\n    tag_482:\n        /* \"#utility.yul\":24583:24639   */\n    tag_481:\n        /* \"#utility.yul\":24663:24701   */\n      tag_483\n        /* \"#utility.yul\":24695:24699   */\n      dup3\n        /* \"#utility.yul\":24689:24700   */\n      sload\n        /* \"#utility.yul\":24663:24701   */\n      tag_70\n      jump\t// in\n    tag_483:\n        /* \"#utility.yul\":24748:24815   */\n      tag_484\n        /* \"#utility.yul\":24808:24814   */\n      dup3\n        /* \"#utility.yul\":24800:24806   */\n      dup3\n        /* \"#utility.yul\":24794:24798   */\n      dup6\n        /* \"#utility.yul\":24748:24815   */\n      tag_217\n      jump\t// in\n    tag_484:\n        /* \"#utility.yul\":24842:24843   */\n      0x00\n        /* \"#utility.yul\":24871:24873   */\n      0x1f\n        /* \"#utility.yul\":24863:24869   */\n      dup4\n        /* \"#utility.yul\":24860:24874   */\n      gt\n        /* \"#utility.yul\":24888:24889   */\n      0x01\n        /* \"#utility.yul\":24883:25555   */\n      dup2\n      eq\n      tag_486\n      jumpi\n        /* \"#utility.yul\":25599:25600   */\n      0x00\n        /* \"#utility.yul\":25616:25622   */\n      dup5\n        /* \"#utility.yul\":25613:25690   */\n      iszero\n      tag_487\n      jumpi\n        /* \"#utility.yul\":25665:25674   */\n      dup3\n        /* \"#utility.yul\":25660:25663   */\n      dup8\n        /* \"#utility.yul\":25656:25675   */\n      add\n        /* \"#utility.yul\":25650:25676   */\n      sload\n        /* \"#utility.yul\":25641:25676   */\n      swap1\n      pop\n        /* \"#utility.yul\":25613:25690   */\n    tag_487:\n        /* \"#utility.yul\":25716:25783   */\n      tag_488\n        /* \"#utility.yul\":25776:25782   */\n      dup6\n        /* \"#utility.yul\":25769:25774   */\n      dup3\n        /* \"#utility.yul\":25716:25783   */\n      tag_220\n      jump\t// in\n    tag_488:\n        /* \"#utility.yul\":25710:25714   */\n      dup7\n        /* \"#utility.yul\":25703:25784   */\n      sstore\n        /* \"#utility.yul\":25572:25794   */\n      pop\n        /* \"#utility.yul\":24853:25794   */\n      jump(tag_485)\n        /* \"#utility.yul\":24883:25555   */\n    tag_486:\n        /* \"#utility.yul\":24935:24939   */\n      0x1f\n        /* \"#utility.yul\":24931:24940   */\n      not\n        /* \"#utility.yul\":24923:24929   */\n      dup5\n        /* \"#utility.yul\":24919:24941   */\n      and\n        /* \"#utility.yul\":24961:24997   */\n      tag_489\n        /* \"#utility.yul\":24993:24996   */\n      dup8\n        /* \"#utility.yul\":24961:24997   */\n      tag_206\n      jump\t// in\n    tag_489:\n        /* \"#utility.yul\":24954:24997   */\n      swap7\n      pop\n        /* \"#utility.yul\":25024:25061   */\n      tag_490\n        /* \"#utility.yul\":25056:25060   */\n      dup7\n        /* \"#utility.yul\":25024:25061   */\n      tag_206\n      jump\t// in\n    tag_490:\n        /* \"#utility.yul\":25083:25084   */\n      0x00\n        /* \"#utility.yul\":25097:25304   */\n    tag_491:\n        /* \"#utility.yul\":25111:25118   */\n      dup3\n        /* \"#utility.yul\":25108:25109   */\n      dup2\n        /* \"#utility.yul\":25105:25119   */\n      lt\n        /* \"#utility.yul\":25097:25304   */\n      iszero\n      tag_493\n      jumpi\n        /* \"#utility.yul\":25190:25199   */\n      dup5\n        /* \"#utility.yul\":25185:25188   */\n      dup10\n        /* \"#utility.yul\":25181:25200   */\n      add\n        /* \"#utility.yul\":25175:25201   */\n      sload\n        /* \"#utility.yul\":25167:25173   */\n      dup3\n        /* \"#utility.yul\":25160:25202   */\n      sstore\n        /* \"#utility.yul\":25241:25242   */\n      0x01\n        /* \"#utility.yul\":25233:25239   */\n      dup3\n        /* \"#utility.yul\":25229:25243   */\n      add\n        /* \"#utility.yul\":25219:25243   */\n      swap2\n      pop\n        /* \"#utility.yul\":25288:25289   */\n      0x01\n        /* \"#utility.yul\":25277:25286   */\n      dup6\n        /* \"#utility.yul\":25273:25290   */\n      add\n        /* \"#utility.yul\":25260:25290   */\n      swap5\n      pop\n        /* \"#utility.yul\":25134:25138   */\n      0x20\n        /* \"#utility.yul\":25131:25132   */\n      dup2\n        /* \"#utility.yul\":25127:25139   */\n      add\n        /* \"#utility.yul\":25122:25139   */\n      swap1\n      pop\n        /* \"#utility.yul\":25097:25304   */\n      jump(tag_491)\n    tag_493:\n        /* \"#utility.yul\":25332:25338   */\n      dup7\n        /* \"#utility.yul\":25323:25330   */\n      dup4\n        /* \"#utility.yul\":25320:25339   */\n      lt\n        /* \"#utility.yul\":25317:25496   */\n      iszero\n      tag_494\n      jumpi\n        /* \"#utility.yul\":25390:25399   */\n      dup5\n        /* \"#utility.yul\":25385:25388   */\n      dup10\n        /* \"#utility.yul\":25381:25400   */\n      add\n        /* \"#utility.yul\":25375:25401   */\n      sload\n        /* \"#utility.yul\":25433:25481   */\n      tag_495\n        /* \"#utility.yul\":25475:25479   */\n      0x1f\n        /* \"#utility.yul\":25467:25473   */\n      dup10\n        /* \"#utility.yul\":25463:25480   */\n      and\n        /* \"#utility.yul\":25452:25461   */\n      dup3\n        /* \"#utility.yul\":25433:25481   */\n      tag_219\n      jump\t// in\n    tag_495:\n        /* \"#utility.yul\":25425:25431   */\n      dup4\n        /* \"#utility.yul\":25418:25482   */\n      sstore\n        /* \"#utility.yul\":25340:25496   */\n      pop\n        /* \"#utility.yul\":25317:25496   */\n    tag_494:\n        /* \"#utility.yul\":25542:25543   */\n      0x01\n        /* \"#utility.yul\":25538:25539   */\n      0x02\n        /* \"#utility.yul\":25530:25536   */\n      dup9\n        /* \"#utility.yul\":25526:25540   */\n      mul\n        /* \"#utility.yul\":25522:25544   */\n      add\n        /* \"#utility.yul\":25516:25520   */\n      dup9\n        /* \"#utility.yul\":25509:25545   */\n      sstore\n        /* \"#utility.yul\":24890:25555   */\n      pop\n      pop\n      pop\n        /* \"#utility.yul\":24853:25794   */\n    tag_485:\n      pop\n        /* \"#utility.yul\":24438:25800   */\n      pop\n      pop\n      pop\n        /* \"#utility.yul\":24349:25800   */\n      pop\n      pop\n    tag_478:\n      jump\t// out\n        /* \"#utility.yul\":25806:25986   */\n    tag_118:\n        /* \"#utility.yul\":25854:25931   */\n      0x4e487b7100000000000000000000000000000000000000000000000000000000\n        /* \"#utility.yul\":25851:25852   */\n      0x00\n        /* \"#utility.yul\":25844:25932   */\n      mstore\n        /* \"#utility.yul\":25951:25955   */\n      0x32\n        /* \"#utility.yul\":25948:25949   */\n      0x04\n        /* \"#utility.yul\":25941:25956   */\n      mstore\n        /* \"#utility.yul\":25975:25979   */\n      0x24\n        /* \"#utility.yul\":25972:25973   */\n      0x00\n        /* \"#utility.yul\":25965:25980   */\n      revert\n        /* \"#utility.yul\":25992:26169   */\n    tag_225:\n        /* \"#utility.yul\":26132:26161   */\n      0x43414e44494441544520414c5245414459204e4f4d494e415445440000000000\n        /* \"#utility.yul\":26128:26129   */\n      0x00\n        /* \"#utility.yul\":26120:26126   */\n      dup3\n        /* \"#utility.yul\":26116:26130   */\n      add\n        /* \"#utility.yul\":26109:26162   */\n      mstore\n        /* \"#utility.yul\":25992:26169   */\n      pop\n      jump\t// out\n        /* \"#utility.yul\":26175:26541   */\n    tag_226:\n        /* \"#utility.yul\":26317:26320   */\n      0x00\n        /* \"#utility.yul\":26338:26405   */\n      tag_499\n        /* \"#utility.yul\":26402:26404   */\n      0x1b\n        /* \"#utility.yul\":26397:26400   */\n      dup4\n        /* \"#utility.yul\":26338:26405   */\n      tag_189\n      jump\t// in\n    tag_499:\n        /* \"#utility.yul\":26331:26405   */\n      swap2\n      pop\n        /* \"#utility.yul\":26414:26507   */\n      tag_500\n        /* \"#utility.yul\":26503:26506   */\n      dup3\n        /* \"#utility.yul\":26414:26507   */\n      tag_225\n      jump\t// in\n    tag_500:\n        /* \"#utility.yul\":26532:26534   */\n      0x20\n        /* \"#utility.yul\":26527:26530   */\n      dup3\n        /* \"#utility.yul\":26523:26535   */\n      add\n        /* \"#utility.yul\":26516:26535   */\n      swap1\n      pop\n        /* \"#utility.yul\":26175:26541   */\n      swap2\n      swap1\n      pop\n      jump\t// out\n        /* \"#utility.yul\":26547:26966   */\n    tag_122:\n        /* \"#utility.yul\":26713:26717   */\n      0x00\n        /* \"#utility.yul\":26751:26753   */\n      0x20\n        /* \"#utility.yul\":26740:26749   */\n      dup3\n        /* \"#utility.yul\":26736:26754   */\n      add\n        /* \"#utility.yul\":26728:26754   */\n      swap1\n      pop\n        /* \"#utility.yul\":26800:26809   */\n      dup2\n        /* \"#utility.yul\":26794:26798   */\n      dup2\n        /* \"#utility.yul\":26790:26810   */\n      sub\n        /* \"#utility.yul\":26786:26787   */\n      0x00\n        /* \"#utility.yul\":26775:26784   */\n      dup4\n        /* \"#utility.yul\":26771:26788   */\n      add\n        /* \"#utility.yul\":26764:26811   */\n      mstore\n        /* \"#utility.yul\":26828:26959   */\n      tag_502\n        /* \"#utility.yul\":26954:26958   */\n      dup2\n        /* \"#utility.yul\":26828:26959   */\n      tag_226\n      jump\t// in\n    tag_502:\n        /* \"#utility.yul\":26820:26959   */\n      swap1\n      pop\n        /* \"#utility.yul\":26547:26966   */\n      swap2\n      swap1\n      pop\n      jump\t// out\n        /* \"#utility.yul\":26972:27141   */\n    tag_227:\n        /* \"#utility.yul\":27112:27133   */\n      0x494e56414c494420454c454354494f4e20494400000000000000000000000000\n        /* \"#utility.yul\":27108:27109   */\n      0x00\n        /* \"#utility.yul\":27100:27106   */\n      dup3\n        /* \"#utility.yul\":27096:27110   */\n      add\n        /* \"#utility.yul\":27089:27134   */\n      mstore\n        /* \"#utility.yul\":26972:27141   */\n      pop\n      jump\t// out\n        /* \"#utility.yul\":27147:27513   */\n    tag_228:\n        /* \"#utility.yul\":27289:27292   */\n      0x00\n        /* \"#utility.yul\":27310:27377   */\n      tag_505\n        /* \"#utility.yul\":27374:27376   */\n      0x13\n        /* \"#utility.yul\":27369:27372   */\n      dup4\n        /* \"#utility.yul\":27310:27377   */\n      tag_189\n      jump\t// in\n    tag_505:\n        /* \"#utility.yul\":27303:27377   */\n      swap2\n      pop\n        /* \"#utility.yul\":27386:27479   */\n      tag_506\n        /* \"#utility.yul\":27475:27478   */\n      dup3\n        /* \"#utility.yul\":27386:27479   */\n      tag_227\n      jump\t// in\n    tag_506:\n        /* \"#utility.yul\":27504:27506   */\n      0x20\n        /* \"#utility.yul\":27499:27502   */\n      dup3\n        /* \"#utility.yul\":27495:27507   */\n      add\n        /* \"#utility.yul\":27488:27507   */\n      swap1\n      pop\n        /* \"#utility.yul\":27147:27513   */\n      swap2\n      swap1\n      pop\n      jump\t// out\n        /* \"#utility.yul\":27519:27938   */\n    tag_125:\n        /* \"#utility.yul\":27685:27689   */\n      0x00\n        /* \"#utility.yul\":27723:27725   */\n      0x20\n        /* \"#utility.yul\":27712:27721   */\n      dup3\n        /* \"#utility.yul\":27708:27726   */\n      add\n        /* \"#utility.yul\":27700:27726   */\n      swap1\n      pop\n        /* \"#utility.yul\":27772:27781   */\n      dup2\n        /* \"#utility.yul\":27766:27770   */\n      dup2\n        /* \"#utility.yul\":27762:27782   */\n      sub\n        /* \"#utility.yul\":27758:27759   */\n      0x00\n        /* \"#utility.yul\":27747:27756   */\n      dup4\n        /* \"#utility.yul\":27743:27760   */\n      add\n        /* \"#utility.yul\":27736:27783   */\n      mstore\n        /* \"#utility.yul\":27800:27931   */\n      tag_508\n        /* \"#utility.yul\":27926:27930   */\n      dup2\n        /* \"#utility.yul\":27800:27931   */\n      tag_228\n      jump\t// in\n    tag_508:\n        /* \"#utility.yul\":27792:27931   */\n      swap1\n      pop\n        /* \"#utility.yul\":27519:27938   */\n      swap2\n      swap1\n      pop\n      jump\t// out\n\n    auxdata: 0xa264697066735822122014a2185a358f1c1501abf70e992b2c5513fc36a468180af940e766a550a24f3c64736f6c634300081a0033\n}\n",
				"bytecode": {
					"linkReferences": {},
					"object": "60806040525f6003555f6004553480156016575f80fd5b50611c85806100245f395ff3fe608060405234801561000f575f80fd5b5060043610610091575f3560e01c80636428a486116100645780636428a4861461013457806385650674146101645780639f91e6bf14610198578063f34bbf0c146101b6578063fdedaa8a146101e657610091565b8063065b2430146100955780631e9598e2146100c557806335bbe70e146100f85780634681704114610116575b5f80fd5b6100af60048036038101906100aa919061118e565b61021a565b6040516100bc919061124c565b60405180910390f35b6100df60048036038101906100da9190611298565b61035c565b6040516100ef9493929190611332565b60405180910390f35b61010061041a565b60405161010d9190611517565b60405180910390f35b61011e6105d4565b60405161012b9190611537565b60405180910390f35b61014e60048036038101906101499190611550565b6105da565b60405161015b919061124c565b60405180910390f35b61017e60048036038101906101799190611298565b610851565b60405161018f959493929190611597565b60405180910390f35b6101a06109b7565b6040516101ad9190611537565b60405180910390f35b6101d060048036038101906101cb91906115f6565b6109bd565b6040516101dd919061124c565b60405180910390f35b61020060048036038101906101fb9190611634565b610bb3565b604051610211959493929190611597565b60405180910390f35b5f60025f60045481526020019081526020015f206006015f9054906101000a900460ff161561027e576040517f08c379a0000000000000000000000000000000000000000000000000000000008152600401610275906116a9565b60405180910390fd5b5f60025f60045481526020019081526020015f209050600454815f0181905550848160010190816102af91906118c1565b50838160020190805190602001906102c8929190610d09565b5082816003019060026102dc929190610d90565b505f81600501819055506001816006015f6101000a81548160ff0219169083151502179055507f878bb103e2c92788427ea47308fc2c171b1f607553d68c2e7c2e98e6cdb631816004546040516103339190611537565b60405180910390a1600160045461034a91906119bd565b60048190555060019150509392505050565b6002602052805f5260405f205f91509050805f015490806001018054610381906116f4565b80601f01602080910402602001604051908101604052809291908181526020018280546103ad906116f4565b80156103f85780601f106103cf576101008083540402835291602001916103f8565b820191905f5260205f20905b8154815290600101906020018083116103db57829003601f168201915b505050505090806005015490806006015f9054906101000a900460ff16905084565b60606001805480602002602001604051908101604052809291908181526020015f905b828210156105cb578382905f5260205f2090600402016040518060a00160405290815f8201548152602001600182018054610477906116f4565b80601f01602080910402602001604051908101604052809291908181526020018280546104a3906116f4565b80156104ee5780601f106104c5576101008083540402835291602001916104ee565b820191905f5260205f20905b8154815290600101906020018083116104d157829003601f168201915b50505050508152602001600282018054610507906116f4565b80601f0160208091040260200160405190810160405280929190818152602001828054610533906116f4565b801561057e5780601f106105555761010080835404028352916020019161057e565b820191905f5260205f20905b81548152906001019060200180831161056157829003601f168201915b50505050508152602001600382015f9054906101000a900460ff161515151581526020016003820160019054906101000a900460ff1615151515815250508152602001906001019061043d565b50505050905090565b60045481565b5f805f3373ffffffffffffffffffffffffffffffffffffffff1673ffffffffffffffffffffffffffffffffffffffff1681526020019081526020015f2060030160019054906101000a900460ff1615610668576040517f08c379a000000000000000000000000000000000000000000000000000000000815260040161065f90611a3a565b60405180910390fd5b5f805f3373ffffffffffffffffffffffffffffffffffffffff1673ffffffffffffffffffffffffffffffffffffffff1681526020019081526020015f209050600354815f0181905550828160010190816106c291906118c1565b5060405180602001604052805f8152508160020190816106e291906118c1565b506001816003015f6101000a81548160ff02191690831515021790555060015f803373ffffffffffffffffffffffffffffffffffffffff1673ffffffffffffffffffffffffffffffffffffffff1681526020019081526020015f20908060018154018082558091505060019003905f5260205f2090600402015f909190919091505f820154815f01556001820181600101908161077f9190611a6d565b50600282018160020190816107949190611a6d565b50600382015f9054906101000a900460ff16816003015f6101000a81548160ff0219169083151502179055506003820160019054906101000a900460ff168160030160016101000a81548160ff02191690831515021790555050503373ffffffffffffffffffffffffffffffffffffffff167ff91e406c7179dd602438066c1f63cb1221d2b1904b9d0d2dc96b936aea7e336a60405160405180910390a2600160035461084191906119bd565b6003819055506001915050919050565b60018181548110610860575f80fd5b905f5260205f2090600402015f91509050805f015490806001018054610885906116f4565b80601f01602080910402602001604051908101604052809291908181526020018280546108b1906116f4565b80156108fc5780601f106108d3576101008083540402835291602001916108fc565b820191905f5260205f20905b8154815290600101906020018083116108df57829003601f168201915b505050505090806002018054610911906116f4565b80601f016020809104026020016040519081016040528092919081815260200182805461093d906116f4565b80156109885780601f1061095f57610100808354040283529160200191610988565b820191905f5260205f20905b81548152906001019060200180831161096b57829003601f168201915b505050505090806003015f9054906101000a900460ff16908060030160019054906101000a900460ff16905085565b60035481565b5f8060025f8481526020019081526020015f2090505f5b8160020180549050811015610a9b578473ffffffffffffffffffffffffffffffffffffffff16826002018281548110610a1057610a0f611b52565b5b905f5260205f20015f9054906101000a900473ffffffffffffffffffffffffffffffffffffffff1673ffffffffffffffffffffffffffffffffffffffff1603610a8e576040517f08c379a0000000000000000000000000000000000000000000000000000000008152600401610a8590611bc9565b60405180910390fd5b80806001019150506109d4565b50806006015f9054906101000a900460ff16610aec576040517f08c379a0000000000000000000000000000000000000000000000000000000008152600401610ae390611c31565b60405180910390fd5b8060020184908060018154018082558091505060019003905f5260205f20015f9091909190916101000a81548173ffffffffffffffffffffffffffffffffffffffff021916908373ffffffffffffffffffffffffffffffffffffffff1602179055508373ffffffffffffffffffffffffffffffffffffffff163373ffffffffffffffffffffffffffffffffffffffff167f0a670283ffe8576680acd5bee3864eb87dba2c4e3e519ca802a35007a65d1f8460405160405180910390a3600191505092915050565b5f602052805f5260405f205f91509050805f015490806001018054610bd7906116f4565b80601f0160208091040260200160405190810160405280929190818152602001828054610c03906116f4565b8015610c4e5780601f10610c2557610100808354040283529160200191610c4e565b820191905f5260205f20905b815481529060010190602001808311610c3157829003601f168201915b505050505090806002018054610c63906116f4565b80601f0160208091040260200160405190810160405280929190818152602001828054610c8f906116f4565b8015610cda5780601f10610cb157610100808354040283529160200191610cda565b820191905f5260205f20905b815481529060010190602001808311610cbd57829003601f168201915b505050505090806003015f9054906101000a900460ff16908060030160019054906101000a900460ff16905085565b828054828255905f5260205f20908101928215610d7f579160200282015b82811115610d7e578251825f6101000a81548173ffffffffffffffffffffffffffffffffffffffff021916908373ffffffffffffffffffffffffffffffffffffffff16021790555091602001919060010190610d27565b5b509050610d8c9190610ddc565b5090565b8260028101928215610dcb579160200282015b82811115610dca578251829081610dba91906118c1565b5091602001919060010190610da3565b5b509050610dd89190610df7565b5090565b5b80821115610df3575f815f905550600101610ddd565b5090565b5b80821115610e16575f8181610e0d9190610e1a565b50600101610df8565b5090565b508054610e26906116f4565b5f825580601f10610e375750610e54565b601f0160209004905f5260205f2090810190610e539190610ddc565b5b50565b5f604051905090565b5f80fd5b5f80fd5b5f80fd5b5f80fd5b5f601f19601f8301169050919050565b7f4e487b71000000000000000000000000000000000000000000000000000000005f52604160045260245ffd5b610eb682610e70565b810181811067ffffffffffffffff82111715610ed557610ed4610e80565b5b80604052505050565b5f610ee7610e57565b9050610ef38282610ead565b919050565b5f67ffffffffffffffff821115610f1257610f11610e80565b5b610f1b82610e70565b9050602081019050919050565b828183375f83830152505050565b5f610f48610f4384610ef8565b610ede565b905082815260208101848484011115610f6457610f63610e6c565b5b610f6f848285610f28565b509392505050565b5f82601f830112610f8b57610f8a610e68565b5b8135610f9b848260208601610f36565b91505092915050565b5f67ffffffffffffffff821115610fbe57610fbd610e80565b5b602082029050602081019050919050565b5f80fd5b5f73ffffffffffffffffffffffffffffffffffffffff82169050919050565b5f610ffc82610fd3565b9050919050565b61100c81610ff2565b8114611016575f80fd5b50565b5f8135905061102781611003565b92915050565b5f61103f61103a84610fa4565b610ede565b9050808382526020820190506020840283018581111561106257611061610fcf565b5b835b8181101561108b57806110778882611019565b845260208401935050602081019050611064565b5050509392505050565b5f82601f8301126110a9576110a8610e68565b5b81356110b984826020860161102d565b91505092915050565b5f67ffffffffffffffff8211156110dc576110db610e80565b5b602082029050919050565b5f6110f96110f4846110c2565b610ede565b9050806020840283018581111561111357611112610fcf565b5b835b8181101561115a57803567ffffffffffffffff81111561113857611137610e68565b5b8086016111458982610f77565b85526020850194505050602081019050611115565b5050509392505050565b5f82601f83011261117857611177610e68565b5b60026111858482856110e7565b91505092915050565b5f805f606084860312156111a5576111a4610e60565b5b5f84013567ffffffffffffffff8111156111c2576111c1610e64565b5b6111ce86828701610f77565b935050602084013567ffffffffffffffff8111156111ef576111ee610e64565b5b6111fb86828701611095565b925050604084013567ffffffffffffffff81111561121c5761121b610e64565b5b61122886828701611164565b9150509250925092565b5f8115159050919050565b61124681611232565b82525050565b5f60208201905061125f5f83018461123d565b92915050565b5f819050919050565b61127781611265565b8114611281575f80fd5b50565b5f813590506112928161126e565b92915050565b5f602082840312156112ad576112ac610e60565b5b5f6112ba84828501611284565b91505092915050565b6112cc81611265565b82525050565b5f81519050919050565b5f82825260208201905092915050565b8281835e5f83830152505050565b5f611304826112d2565b61130e81856112dc565b935061131e8185602086016112ec565b61132781610e70565b840191505092915050565b5f6080820190506113455f8301876112c3565b818103602083015261135781866112fa565b905061136660408301856112c3565b611373606083018461123d565b95945050505050565b5f81519050919050565b5f82825260208201905092915050565b5f819050602082019050919050565b6113ae81611265565b82525050565b5f82825260208201905092915050565b5f6113ce826112d2565b6113d881856113b4565b93506113e88185602086016112ec565b6113f181610e70565b840191505092915050565b61140581611232565b82525050565b5f60a083015f8301516114205f8601826113a5565b506020830151848203602086015261143882826113c4565b9150506040830151848203604086015261145282826113c4565b915050606083015161146760608601826113fc565b50608083015161147a60808601826113fc565b508091505092915050565b5f611490838361140b565b905092915050565b5f602082019050919050565b5f6114ae8261137c565b6114b88185611386565b9350836020820285016114ca85611396565b805f5b8581101561150557848403895281516114e68582611485565b94506114f183611498565b925060208a019950506001810190506114cd565b50829750879550505050505092915050565b5f6020820190508181035f83015261152f81846114a4565b905092915050565b5f60208201905061154a5f8301846112c3565b92915050565b5f6020828403121561156557611564610e60565b5b5f82013567ffffffffffffffff81111561158257611581610e64565b5b61158e84828501610f77565b91505092915050565b5f60a0820190506115aa5f8301886112c3565b81810360208301526115bc81876112fa565b905081810360408301526115d081866112fa565b90506115df606083018561123d565b6115ec608083018461123d565b9695505050505050565b5f806040838503121561160c5761160b610e60565b5b5f61161985828601611019565b925050602061162a85828601611284565b9150509250929050565b5f6020828403121561164957611648610e60565b5b5f61165684828501611019565b91505092915050565b7f456c656374696f6e20616c7265616479206578697374730000000000000000005f82015250565b5f6116936017836112dc565b915061169e8261165f565b602082019050919050565b5f6020820190508181035f8301526116c081611687565b9050919050565b7f4e487b71000000000000000000000000000000000000000000000000000000005f52602260045260245ffd5b5f600282049050600182168061170b57607f821691505b60208210810361171e5761171d6116c7565b5b50919050565b5f819050815f5260205f209050919050565b5f6020601f8301049050919050565b5f82821b905092915050565b5f600883026117807fffffffffffffffffffffffffffffffffffffffffffffffffffffffffffffffff82611745565b61178a8683611745565b95508019841693508086168417925050509392505050565b5f819050919050565b5f6117c56117c06117bb84611265565b6117a2565b611265565b9050919050565b5f819050919050565b6117de836117ab565b6117f26117ea826117cc565b848454611751565b825550505050565b5f90565b6118066117fa565b6118118184846117d5565b505050565b5b81811015611834576118295f826117fe565b600181019050611817565b5050565b601f8211156118795761184a81611724565b61185384611736565b81016020851015611862578190505b61187661186e85611736565b830182611816565b50505b505050565b5f82821c905092915050565b5f6118995f198460080261187e565b1980831691505092915050565b5f6118b1838361188a565b9150826002028217905092915050565b6118ca826112d2565b67ffffffffffffffff8111156118e3576118e2610e80565b5b6118ed82546116f4565b6118f8828285611838565b5f60209050601f831160018114611929575f8415611917578287015190505b61192185826118a6565b865550611988565b601f19841661193786611724565b5f5b8281101561195e57848901518255600182019150602085019450602081019050611939565b8683101561197b5784890151611977601f89168261188a565b8355505b6001600288020188555050505b505050505050565b7f4e487b71000000000000000000000000000000000000000000000000000000005f52601160045260245ffd5b5f6119c782611265565b91506119d283611265565b92508282019050808211156119ea576119e9611990565b5b92915050565b7f43414e204f4e4c59205245474953544552204f4e4345000000000000000000005f82015250565b5f611a246016836112dc565b9150611a2f826119f0565b602082019050919050565b5f6020820190508181035f830152611a5181611a18565b9050919050565b5f81549050611a66816116f4565b9050919050565b818103611a7b575050611b50565b611a8482611a58565b67ffffffffffffffff811115611a9d57611a9c610e80565b5b611aa782546116f4565b611ab2828285611838565b5f601f831160018114611adf575f8415611acd578287015490505b611ad785826118a6565b865550611b49565b601f198416611aed87611724565b9650611af886611724565b5f5b82811015611b1f57848901548255600182019150600185019450602081019050611afa565b86831015611b3c5784890154611b38601f89168261188a565b8355505b6001600288020188555050505b5050505050505b565b7f4e487b71000000000000000000000000000000000000000000000000000000005f52603260045260245ffd5b7f43414e44494441544520414c5245414459204e4f4d494e4154454400000000005f82015250565b5f611bb3601b836112dc565b9150611bbe82611b7f565b602082019050919050565b5f6020820190508181035f830152611be081611ba7565b9050919050565b7f494e56414c494420454c454354494f4e204944000000000000000000000000005f82015250565b5f611c1b6013836112dc565b9150611c2682611be7565b602082019050919050565b5f6020820190508181035f830152611c4881611c0f565b905091905056fea264697066735822122014a2185a358f1c1501abf70e992b2c5513fc36a468180af940e766a550a24f3c64736f6c634300081a0033",
					"opcodes": "PUSH1 0x80 PUSH1 0x40 MSTORE PUSH0 PUSH1 0x3 SSTORE PUSH0 PUSH1 0x4 SSTORE CALLVALUE DUP1 ISZERO PUSH1 0x16 JUMPI PUSH0 DUP1 REVERT JUMPDEST POP PUSH2 0x1C85 DUP1 PUSH2 0x24 PUSH0 CODECOPY PUSH0 RETURN INVALID PUSH1 0x80 PUSH1 0x40 MSTORE CALLVALUE DUP1 ISZERO PUSH2 0xF JUMPI PUSH0 DUP1 REVERT JUMPDEST POP PUSH1 0x4 CALLDATASIZE LT PUSH2 0x91 JUMPI PUSH0 CALLDATALOAD PUSH1 0xE0 SHR DUP1 PUSH4 0x6428A486 GT PUSH2 0x64 JUMPI DUP1 PUSH4 0x6428A486 EQ PUSH2 0x134 JUMPI DUP1 PUSH4 0x85650674 EQ PUSH2 0x164 JUMPI DUP1 PUSH4 0x9F91E6BF EQ PUSH2 0x198 JUMPI DUP1 PUSH4 0xF34BBF0C EQ PUSH2 0x1B6 JUMPI DUP1 PUSH4 0xFDEDAA8A EQ PUSH2 0x1E6 JUMPI PUSH2 0x91 JUMP JUMPDEST DUP1 PUSH4 0x65B2430 EQ PUSH2 0x95 JUMPI DUP1 PUSH4 0x1E9598E2 EQ PUSH2 0xC5 JUMPI DUP1 PUSH4 0x35BBE70E EQ PUSH2 0xF8 JUMPI DUP1 PUSH4 0x46817041 EQ PUSH2 0x116 JUMPI JUMPDEST PUSH0 DUP1 REVERT JUMPDEST PUSH2 0xAF PUSH1 0x4 DUP1 CALLDATASIZE SUB DUP2 ADD SWAP1 PUSH2 0xAA SWAP2 SWAP1 PUSH2 0x118E JUMP JUMPDEST PUSH2 0x21A JUMP JUMPDEST PUSH1 0x40 MLOAD PUSH2 0xBC SWAP2 SWAP1 PUSH2 0x124C JUMP JUMPDEST PUSH1 0x40 MLOAD DUP1 SWAP2 SUB SWAP1 RETURN JUMPDEST PUSH2 0xDF PUSH1 0x4 DUP1 CALLDATASIZE SUB DUP2 ADD SWAP1 PUSH2 0xDA SWAP2 SWAP1 PUSH2 0x1298 JUMP JUMPDEST PUSH2 0x35C JUMP JUMPDEST PUSH1 0x40 MLOAD PUSH2 0xEF SWAP5 SWAP4 SWAP3 SWAP2 SWAP1 PUSH2 0x1332 JUMP JUMPDEST PUSH1 0x40 MLOAD DUP1 SWAP2 SUB SWAP1 RETURN JUMPDEST PUSH2 0x100 PUSH2 0x41A JUMP JUMPDEST PUSH1 0x40 MLOAD PUSH2 0x10D SWAP2 SWAP1 PUSH2 0x1517 JUMP JUMPDEST PUSH1 0x40 MLOAD DUP1 SWAP2 SUB SWAP1 RETURN JUMPDEST PUSH2 0x11E PUSH2 0x5D4 JUMP JUMPDEST PUSH1 0x40 MLOAD PUSH2 0x12B SWAP2 SWAP1 PUSH2 0x1537 JUMP JUMPDEST PUSH1 0x40 MLOAD DUP1 SWAP2 SUB SWAP1 RETURN JUMPDEST PUSH2 0x14E PUSH1 0x4 DUP1 CALLDATASIZE SUB DUP2 ADD SWAP1 PUSH2 0x149 SWAP2 SWAP1 PUSH2 0x1550 JUMP JUMPDEST PUSH2 0x5DA JUMP JUMPDEST PUSH1 0x40 MLOAD PUSH2 0x15B SWAP2 SWAP1 PUSH2 0x124C JUMP JUMPDEST PUSH1 0x40 MLOAD DUP1 SWAP2 SUB SWAP1 RETURN JUMPDEST PUSH2 0x17E PUSH1 0x4 DUP1 CALLDATASIZE SUB DUP2 ADD SWAP1 PUSH2 0x179 SWAP2 SWAP1 PUSH2 0x1298 JUMP JUMPDEST PUSH2 0x851 JUMP JUMPDEST PUSH1 0x40 MLOAD PUSH2 0x18F SWAP6 SWAP5 SWAP4 SWAP3 SWAP2 SWAP1 PUSH2 0x1597 JUMP JUMPDEST PUSH1 0x40 MLOAD DUP1 SWAP2 SUB SWAP1 RETURN JUMPDEST PUSH2 0x1A0 PUSH2 0x9B7 JUMP JUMPDEST PUSH1 0x40 MLOAD PUSH2 0x1AD SWAP2 SWAP1 PUSH2 0x1537 JUMP JUMPDEST PUSH1 0x40 MLOAD DUP1 SWAP2 SUB SWAP1 RETURN JUMPDEST PUSH2 0x1D0 PUSH1 0x4 DUP1 CALLDATASIZE SUB DUP2 ADD SWAP1 PUSH2 0x1CB SWAP2 SWAP1 PUSH2 0x15F6 JUMP JUMPDEST PUSH2 0x9BD JUMP JUMPDEST PUSH1 0x40 MLOAD PUSH2 0x1DD SWAP2 SWAP1 PUSH2 0x124C JUMP JUMPDEST PUSH1 0x40 MLOAD DUP1 SWAP2 SUB SWAP1 RETURN JUMPDEST PUSH2 0x200 PUSH1 0x4 DUP1 CALLDATASIZE SUB DUP2 ADD SWAP1 PUSH2 0x1FB SWAP2 SWAP1 PUSH2 0x1634 JUMP JUMPDEST PUSH2 0xBB3 JUMP JUMPDEST PUSH1 0x40 MLOAD PUSH2 0x211 SWAP6 SWAP5 SWAP4 SWAP3 SWAP2 SWAP1 PUSH2 0x1597 JUMP JUMPDEST PUSH1 0x40 MLOAD DUP1 SWAP2 SUB SWAP1 RETURN JUMPDEST PUSH0 PUSH1 0x2 PUSH0 PUSH1 0x4 SLOAD DUP2 MSTORE PUSH1 0x20 ADD SWAP1 DUP2 MSTORE PUSH1 0x20 ADD PUSH0 KECCAK256 PUSH1 0x6 ADD PUSH0 SWAP1 SLOAD SWAP1 PUSH2 0x100 EXP SWAP1 DIV PUSH1 0xFF AND ISZERO PUSH2 0x27E JUMPI PUSH1 0x40 MLOAD PUSH32 0x8C379A000000000000000000000000000000000000000000000000000000000 DUP2 MSTORE PUSH1 0x4 ADD PUSH2 0x275 SWAP1 PUSH2 0x16A9 JUMP JUMPDEST PUSH1 0x40 MLOAD DUP1 SWAP2 SUB SWAP1 REVERT JUMPDEST PUSH0 PUSH1 0x2 PUSH0 PUSH1 0x4 SLOAD DUP2 MSTORE PUSH1 0x20 ADD SWAP1 DUP2 MSTORE PUSH1 0x20 ADD PUSH0 KECCAK256 SWAP1 POP PUSH1 0x4 SLOAD DUP2 PUSH0 ADD DUP2 SWAP1 SSTORE POP DUP5 DUP2 PUSH1 0x1 ADD SWAP1 DUP2 PUSH2 0x2AF SWAP2 SWAP1 PUSH2 0x18C1 JUMP JUMPDEST POP DUP4 DUP2 PUSH1 0x2 ADD SWAP1 DUP1 MLOAD SWAP1 PUSH1 0x20 ADD SWAP1 PUSH2 0x2C8 SWAP3 SWAP2 SWAP1 PUSH2 0xD09 JUMP JUMPDEST POP DUP3 DUP2 PUSH1 0x3 ADD SWAP1 PUSH1 0x2 PUSH2 0x2DC SWAP3 SWAP2 SWAP1 PUSH2 0xD90 JUMP JUMPDEST POP PUSH0 DUP2 PUSH1 0x5 ADD DUP2 SWAP1 SSTORE POP PUSH1 0x1 DUP2 PUSH1 0x6 ADD PUSH0 PUSH2 0x100 EXP DUP2 SLOAD DUP2 PUSH1 0xFF MUL NOT AND SWAP1 DUP4 ISZERO ISZERO MUL OR SWAP1 SSTORE POP PUSH32 0x878BB103E2C92788427EA47308FC2C171B1F607553D68C2E7C2E98E6CDB63181 PUSH1 0x4 SLOAD PUSH1 0x40 MLOAD PUSH2 0x333 SWAP2 SWAP1 PUSH2 0x1537 JUMP JUMPDEST PUSH1 0x40 MLOAD DUP1 SWAP2 SUB SWAP1 LOG1 PUSH1 0x1 PUSH1 0x4 SLOAD PUSH2 0x34A SWAP2 SWAP1 PUSH2 0x19BD JUMP JUMPDEST PUSH1 0x4 DUP2 SWAP1 SSTORE POP PUSH1 0x1 SWAP2 POP POP SWAP4 SWAP3 POP POP POP JUMP JUMPDEST PUSH1 0x2 PUSH1 0x20 MSTORE DUP1 PUSH0 MSTORE PUSH1 0x40 PUSH0 KECCAK256 PUSH0 SWAP2 POP SWAP1 POP DUP1 PUSH0 ADD SLOAD SWAP1 DUP1 PUSH1 0x1 ADD DUP1 SLOAD PUSH2 0x381 SWAP1 PUSH2 0x16F4 JUMP JUMPDEST DUP1 PUSH1 0x1F ADD PUSH1 0x20 DUP1 SWAP2 DIV MUL PUSH1 0x20 ADD PUSH1 0x40 MLOAD SWAP1 DUP2 ADD PUSH1 0x40 MSTORE DUP1 SWAP3 SWAP2 SWAP1 DUP2 DUP2 MSTORE PUSH1 0x20 ADD DUP3 DUP1 SLOAD PUSH2 0x3AD SWAP1 PUSH2 0x16F4 JUMP JUMPDEST DUP1 ISZERO PUSH2 0x3F8 JUMPI DUP1 PUSH1 0x1F LT PUSH2 0x3CF JUMPI PUSH2 0x100 DUP1 DUP4 SLOAD DIV MUL DUP4 MSTORE SWAP2 PUSH1 0x20 ADD SWAP2 PUSH2 0x3F8 JUMP JUMPDEST DUP3 ADD SWAP2 SWAP1 PUSH0 MSTORE PUSH1 0x20 PUSH0 KECCAK256 SWAP1 JUMPDEST DUP2 SLOAD DUP2 MSTORE SWAP1 PUSH1 0x1 ADD SWAP1 PUSH1 0x20 ADD DUP1 DUP4 GT PUSH2 0x3DB JUMPI DUP3 SWAP1 SUB PUSH1 0x1F AND DUP3 ADD SWAP2 JUMPDEST POP POP POP POP POP SWAP1 DUP1 PUSH1 0x5 ADD SLOAD SWAP1 DUP1 PUSH1 0x6 ADD PUSH0 SWAP1 SLOAD SWAP1 PUSH2 0x100 EXP SWAP1 DIV PUSH1 0xFF AND SWAP1 POP DUP5 JUMP JUMPDEST PUSH1 0x60 PUSH1 0x1 DUP1 SLOAD DUP1 PUSH1 0x20 MUL PUSH1 0x20 ADD PUSH1 0x40 MLOAD SWAP1 DUP2 ADD PUSH1 0x40 MSTORE DUP1 SWAP3 SWAP2 SWAP1 DUP2 DUP2 MSTORE PUSH1 0x20 ADD PUSH0 SWAP1 JUMPDEST DUP3 DUP3 LT ISZERO PUSH2 0x5CB JUMPI DUP4 DUP3 SWAP1 PUSH0 MSTORE PUSH1 0x20 PUSH0 KECCAK256 SWAP1 PUSH1 0x4 MUL ADD PUSH1 0x40 MLOAD DUP1 PUSH1 0xA0 ADD PUSH1 0x40 MSTORE SWAP1 DUP2 PUSH0 DUP3 ADD SLOAD DUP2 MSTORE PUSH1 0x20 ADD PUSH1 0x1 DUP3 ADD DUP1 SLOAD PUSH2 0x477 SWAP1 PUSH2 0x16F4 JUMP JUMPDEST DUP1 PUSH1 0x1F ADD PUSH1 0x20 DUP1 SWAP2 DIV MUL PUSH1 0x20 ADD PUSH1 0x40 MLOAD SWAP1 DUP2 ADD PUSH1 0x40 MSTORE DUP1 SWAP3 SWAP2 SWAP1 DUP2 DUP2 MSTORE PUSH1 0x20 ADD DUP3 DUP1 SLOAD PUSH2 0x4A3 SWAP1 PUSH2 0x16F4 JUMP JUMPDEST DUP1 ISZERO PUSH2 0x4EE JUMPI DUP1 PUSH1 0x1F LT PUSH2 0x4C5 JUMPI PUSH2 0x100 DUP1 DUP4 SLOAD DIV MUL DUP4 MSTORE SWAP2 PUSH1 0x20 ADD SWAP2 PUSH2 0x4EE JUMP JUMPDEST DUP3 ADD SWAP2 SWAP1 PUSH0 MSTORE PUSH1 0x20 PUSH0 KECCAK256 SWAP1 JUMPDEST DUP2 SLOAD DUP2 MSTORE SWAP1 PUSH1 0x1 ADD SWAP1 PUSH1 0x20 ADD DUP1 DUP4 GT PUSH2 0x4D1 JUMPI DUP3 SWAP1 SUB PUSH1 0x1F AND DUP3 ADD SWAP2 JUMPDEST POP POP POP POP POP DUP2 MSTORE PUSH1 0x20 ADD PUSH1 0x2 DUP3 ADD DUP1 SLOAD PUSH2 0x507 SWAP1 PUSH2 0x16F4 JUMP JUMPDEST DUP1 PUSH1 0x1F ADD PUSH1 0x20 DUP1 SWAP2 DIV MUL PUSH1 0x20 ADD PUSH1 0x40 MLOAD SWAP1 DUP2 ADD PUSH1 0x40 MSTORE DUP1 SWAP3 SWAP2 SWAP1 DUP2 DUP2 MSTORE PUSH1 0x20 ADD DUP3 DUP1 SLOAD PUSH2 0x533 SWAP1 PUSH2 0x16F4 JUMP JUMPDEST DUP1 ISZERO PUSH2 0x57E JUMPI DUP1 PUSH1 0x1F LT PUSH2 0x555 JUMPI PUSH2 0x100 DUP1 DUP4 SLOAD DIV MUL DUP4 MSTORE SWAP2 PUSH1 0x20 ADD SWAP2 PUSH2 0x57E JUMP JUMPDEST DUP3 ADD SWAP2 SWAP1 PUSH0 MSTORE PUSH1 0x20 PUSH0 KECCAK256 SWAP1 JUMPDEST DUP2 SLOAD DUP2 MSTORE SWAP1 PUSH1 0x1 ADD SWAP1 PUSH1 0x20 ADD DUP1 DUP4 GT PUSH2 0x561 JUMPI DUP3 SWAP1 SUB PUSH1 0x1F AND DUP3 ADD SWAP2 JUMPDEST POP POP POP POP POP DUP2 MSTORE PUSH1 0x20 ADD PUSH1 0x3 DUP3 ADD PUSH0 SWAP1 SLOAD SWAP1 PUSH2 0x100 EXP SWAP1 DIV PUSH1 0xFF AND ISZERO ISZERO ISZERO ISZERO DUP2 MSTORE PUSH1 0x20 ADD PUSH1 0x3 DUP3 ADD PUSH1 0x1 SWAP1 SLOAD SWAP1 PUSH2 0x100 EXP SWAP1 DIV PUSH1 0xFF AND ISZERO ISZERO ISZERO ISZERO DUP2 MSTORE POP POP DUP2 MSTORE PUSH1 0x20 ADD SWAP1 PUSH1 0x1 ADD SWAP1 PUSH2 0x43D JUMP JUMPDEST POP POP POP POP SWAP1 POP SWAP1 JUMP JUMPDEST PUSH1 0x4 SLOAD DUP2 JUMP JUMPDEST PUSH0 DUP1 PUSH0 CALLER PUSH20 0xFFFFFFFFFFFFFFFFFFFFFFFFFFFFFFFFFFFFFFFF AND PUSH20 0xFFFFFFFFFFFFFFFFFFFFFFFFFFFFFFFFFFFFFFFF AND DUP2 MSTORE PUSH1 0x20 ADD SWAP1 DUP2 MSTORE PUSH1 0x20 ADD PUSH0 KECCAK256 PUSH1 0x3 ADD PUSH1 0x1 SWAP1 SLOAD SWAP1 PUSH2 0x100 EXP SWAP1 DIV PUSH1 0xFF AND ISZERO PUSH2 0x668 JUMPI PUSH1 0x40 MLOAD PUSH32 0x8C379A000000000000000000000000000000000000000000000000000000000 DUP2 MSTORE PUSH1 0x4 ADD PUSH2 0x65F SWAP1 PUSH2 0x1A3A JUMP JUMPDEST PUSH1 0x40 MLOAD DUP1 SWAP2 SUB SWAP1 REVERT JUMPDEST PUSH0 DUP1 PUSH0 CALLER PUSH20 0xFFFFFFFFFFFFFFFFFFFFFFFFFFFFFFFFFFFFFFFF AND PUSH20 0xFFFFFFFFFFFFFFFFFFFFFFFFFFFFFFFFFFFFFFFF AND DUP2 MSTORE PUSH1 0x20 ADD SWAP1 DUP2 MSTORE PUSH1 0x20 ADD PUSH0 KECCAK256 SWAP1 POP PUSH1 0x3 SLOAD DUP2 PUSH0 ADD DUP2 SWAP1 SSTORE POP DUP3 DUP2 PUSH1 0x1 ADD SWAP1 DUP2 PUSH2 0x6C2 SWAP2 SWAP1 PUSH2 0x18C1 JUMP JUMPDEST POP PUSH1 0x40 MLOAD DUP1 PUSH1 0x20 ADD PUSH1 0x40 MSTORE DUP1 PUSH0 DUP2 MSTORE POP DUP2 PUSH1 0x2 ADD SWAP1 DUP2 PUSH2 0x6E2 SWAP2 SWAP1 PUSH2 0x18C1 JUMP JUMPDEST POP PUSH1 0x1 DUP2 PUSH1 0x3 ADD PUSH0 PUSH2 0x100 EXP DUP2 SLOAD DUP2 PUSH1 0xFF MUL NOT AND SWAP1 DUP4 ISZERO ISZERO MUL OR SWAP1 SSTORE POP PUSH1 0x1 PUSH0 DUP1 CALLER PUSH20 0xFFFFFFFFFFFFFFFFFFFFFFFFFFFFFFFFFFFFFFFF AND PUSH20 0xFFFFFFFFFFFFFFFFFFFFFFFFFFFFFFFFFFFFFFFF AND DUP2 MSTORE PUSH1 0x20 ADD SWAP1 DUP2 MSTORE PUSH1 0x20 ADD PUSH0 KECCAK256 SWAP1 DUP1 PUSH1 0x1 DUP2 SLOAD ADD DUP1 DUP3 SSTORE DUP1 SWAP2 POP POP PUSH1 0x1 SWAP1 SUB SWAP1 PUSH0 MSTORE PUSH1 0x20 PUSH0 KECCAK256 SWAP1 PUSH1 0x4 MUL ADD PUSH0 SWAP1 SWAP2 SWAP1 SWAP2 SWAP1 SWAP2 POP PUSH0 DUP3 ADD SLOAD DUP2 PUSH0 ADD SSTORE PUSH1 0x1 DUP3 ADD DUP2 PUSH1 0x1 ADD SWAP1 DUP2 PUSH2 0x77F SWAP2 SWAP1 PUSH2 0x1A6D JUMP JUMPDEST POP PUSH1 0x2 DUP3 ADD DUP2 PUSH1 0x2 ADD SWAP1 DUP2 PUSH2 0x794 SWAP2 SWAP1 PUSH2 0x1A6D JUMP JUMPDEST POP PUSH1 0x3 DUP3 ADD PUSH0 SWAP1 SLOAD SWAP1 PUSH2 0x100 EXP SWAP1 DIV PUSH1 0xFF AND DUP2 PUSH1 0x3 ADD PUSH0 PUSH2 0x100 EXP DUP2 SLOAD DUP2 PUSH1 0xFF MUL NOT AND SWAP1 DUP4 ISZERO ISZERO MUL OR SWAP1 SSTORE POP PUSH1 0x3 DUP3 ADD PUSH1 0x1 SWAP1 SLOAD SWAP1 PUSH2 0x100 EXP SWAP1 DIV PUSH1 0xFF AND DUP2 PUSH1 0x3 ADD PUSH1 0x1 PUSH2 0x100 EXP DUP2 SLOAD DUP2 PUSH1 0xFF MUL NOT AND SWAP1 DUP4 ISZERO ISZERO MUL OR SWAP1 SSTORE POP POP POP CALLER PUSH20 0xFFFFFFFFFFFFFFFFFFFFFFFFFFFFFFFFFFFFFFFF AND PUSH32 0xF91E406C7179DD602438066C1F63CB1221D2B1904B9D0D2DC96B936AEA7E336A PUSH1 0x40 MLOAD PUSH1 0x40 MLOAD DUP1 SWAP2 SUB SWAP1 LOG2 PUSH1 0x1 PUSH1 0x3 SLOAD PUSH2 0x841 SWAP2 SWAP1 PUSH2 0x19BD JUMP JUMPDEST PUSH1 0x3 DUP2 SWAP1 SSTORE POP PUSH1 0x1 SWAP2 POP POP SWAP2 SWAP1 POP JUMP JUMPDEST PUSH1 0x1 DUP2 DUP2 SLOAD DUP2 LT PUSH2 0x860 JUMPI PUSH0 DUP1 REVERT JUMPDEST SWAP1 PUSH0 MSTORE PUSH1 0x20 PUSH0 KECCAK256 SWAP1 PUSH1 0x4 MUL ADD PUSH0 SWAP2 POP SWAP1 POP DUP1 PUSH0 ADD SLOAD SWAP1 DUP1 PUSH1 0x1 ADD DUP1 SLOAD PUSH2 0x885 SWAP1 PUSH2 0x16F4 JUMP JUMPDEST DUP1 PUSH1 0x1F ADD PUSH1 0x20 DUP1 SWAP2 DIV MUL PUSH1 0x20 ADD PUSH1 0x40 MLOAD SWAP1 DUP2 ADD PUSH1 0x40 MSTORE DUP1 SWAP3 SWAP2 SWAP1 DUP2 DUP2 MSTORE PUSH1 0x20 ADD DUP3 DUP1 SLOAD PUSH2 0x8B1 SWAP1 PUSH2 0x16F4 JUMP JUMPDEST DUP1 ISZERO PUSH2 0x8FC JUMPI DUP1 PUSH1 0x1F LT PUSH2 0x8D3 JUMPI PUSH2 0x100 DUP1 DUP4 SLOAD DIV MUL DUP4 MSTORE SWAP2 PUSH1 0x20 ADD SWAP2 PUSH2 0x8FC JUMP JUMPDEST DUP3 ADD SWAP2 SWAP1 PUSH0 MSTORE PUSH1 0x20 PUSH0 KECCAK256 SWAP1 JUMPDEST DUP2 SLOAD DUP2 MSTORE SWAP1 PUSH1 0x1 ADD SWAP1 PUSH1 0x20 ADD DUP1 DUP4 GT PUSH2 0x8DF JUMPI DUP3 SWAP1 SUB PUSH1 0x1F AND DUP3 ADD SWAP2 JUMPDEST POP POP POP POP POP SWAP1 DUP1 PUSH1 0x2 ADD DUP1 SLOAD PUSH2 0x911 SWAP1 PUSH2 0x16F4 JUMP JUMPDEST DUP1 PUSH1 0x1F ADD PUSH1 0x20 DUP1 SWAP2 DIV MUL PUSH1 0x20 ADD PUSH1 0x40 MLOAD SWAP1 DUP2 ADD PUSH1 0x40 MSTORE DUP1 SWAP3 SWAP2 SWAP1 DUP2 DUP2 MSTORE PUSH1 0x20 ADD DUP3 DUP1 SLOAD PUSH2 0x93D SWAP1 PUSH2 0x16F4 JUMP JUMPDEST DUP1 ISZERO PUSH2 0x988 JUMPI DUP1 PUSH1 0x1F LT PUSH2 0x95F JUMPI PUSH2 0x100 DUP1 DUP4 SLOAD DIV MUL DUP4 MSTORE SWAP2 PUSH1 0x20 ADD SWAP2 PUSH2 0x988 JUMP JUMPDEST DUP3 ADD SWAP2 SWAP1 PUSH0 MSTORE PUSH1 0x20 PUSH0 KECCAK256 SWAP1 JUMPDEST DUP2 SLOAD DUP2 MSTORE SWAP1 PUSH1 0x1 ADD SWAP1 PUSH1 0x20 ADD DUP1 DUP4 GT PUSH2 0x96B JUMPI DUP3 SWAP1 SUB PUSH1 0x1F AND DUP3 ADD SWAP2 JUMPDEST POP POP POP POP POP SWAP1 DUP1 PUSH1 0x3 ADD PUSH0 SWAP1 SLOAD SWAP1 PUSH2 0x100 EXP SWAP1 DIV PUSH1 0xFF AND SWAP1 DUP1 PUSH1 0x3 ADD PUSH1 0x1 SWAP1 SLOAD SWAP1 PUSH2 0x100 EXP SWAP1 DIV PUSH1 0xFF AND SWAP1 POP DUP6 JUMP JUMPDEST PUSH1 0x3 SLOAD DUP2 JUMP JUMPDEST PUSH0 DUP1 PUSH1 0x2 PUSH0 DUP5 DUP2 MSTORE PUSH1 0x20 ADD SWAP1 DUP2 MSTORE PUSH1 0x20 ADD PUSH0 KECCAK256 SWAP1 POP PUSH0 JUMPDEST DUP2 PUSH1 0x2 ADD DUP1 SLOAD SWAP1 POP DUP2 LT ISZERO PUSH2 0xA9B JUMPI DUP5 PUSH20 0xFFFFFFFFFFFFFFFFFFFFFFFFFFFFFFFFFFFFFFFF AND DUP3 PUSH1 0x2 ADD DUP3 DUP2 SLOAD DUP2 LT PUSH2 0xA10 JUMPI PUSH2 0xA0F PUSH2 0x1B52 JUMP JUMPDEST JUMPDEST SWAP1 PUSH0 MSTORE PUSH1 0x20 PUSH0 KECCAK256 ADD PUSH0 SWAP1 SLOAD SWAP1 PUSH2 0x100 EXP SWAP1 DIV PUSH20 0xFFFFFFFFFFFFFFFFFFFFFFFFFFFFFFFFFFFFFFFF AND PUSH20 0xFFFFFFFFFFFFFFFFFFFFFFFFFFFFFFFFFFFFFFFF AND SUB PUSH2 0xA8E JUMPI PUSH1 0x40 MLOAD PUSH32 0x8C379A000000000000000000000000000000000000000000000000000000000 DUP2 MSTORE PUSH1 0x4 ADD PUSH2 0xA85 SWAP1 PUSH2 0x1BC9 JUMP JUMPDEST PUSH1 0x40 MLOAD DUP1 SWAP2 SUB SWAP1 REVERT JUMPDEST DUP1 DUP1 PUSH1 0x1 ADD SWAP2 POP POP PUSH2 0x9D4 JUMP JUMPDEST POP DUP1 PUSH1 0x6 ADD PUSH0 SWAP1 SLOAD SWAP1 PUSH2 0x100 EXP SWAP1 DIV PUSH1 0xFF AND PUSH2 0xAEC JUMPI PUSH1 0x40 MLOAD PUSH32 0x8C379A000000000000000000000000000000000000000000000000000000000 DUP2 MSTORE PUSH1 0x4 ADD PUSH2 0xAE3 SWAP1 PUSH2 0x1C31 JUMP JUMPDEST PUSH1 0x40 MLOAD DUP1 SWAP2 SUB SWAP1 REVERT JUMPDEST DUP1 PUSH1 0x2 ADD DUP5 SWAP1 DUP1 PUSH1 0x1 DUP2 SLOAD ADD DUP1 DUP3 SSTORE DUP1 SWAP2 POP POP PUSH1 0x1 SWAP1 SUB SWAP1 PUSH0 MSTORE PUSH1 0x20 PUSH0 KECCAK256 ADD PUSH0 SWAP1 SWAP2 SWAP1 SWAP2 SWAP1 SWAP2 PUSH2 0x100 EXP DUP2 SLOAD DUP2 PUSH20 0xFFFFFFFFFFFFFFFFFFFFFFFFFFFFFFFFFFFFFFFF MUL NOT AND SWAP1 DUP4 PUSH20 0xFFFFFFFFFFFFFFFFFFFFFFFFFFFFFFFFFFFFFFFF AND MUL OR SWAP1 SSTORE POP DUP4 PUSH20 0xFFFFFFFFFFFFFFFFFFFFFFFFFFFFFFFFFFFFFFFF AND CALLER PUSH20 0xFFFFFFFFFFFFFFFFFFFFFFFFFFFFFFFFFFFFFFFF AND PUSH32 0xA670283FFE8576680ACD5BEE3864EB87DBA2C4E3E519CA802A35007A65D1F84 PUSH1 0x40 MLOAD PUSH1 0x40 MLOAD DUP1 SWAP2 SUB SWAP1 LOG3 PUSH1 0x1 SWAP2 POP POP SWAP3 SWAP2 POP POP JUMP JUMPDEST PUSH0 PUSH1 0x20 MSTORE DUP1 PUSH0 MSTORE PUSH1 0x40 PUSH0 KECCAK256 PUSH0 SWAP2 POP SWAP1 POP DUP1 PUSH0 ADD SLOAD SWAP1 DUP1 PUSH1 0x1 ADD DUP1 SLOAD PUSH2 0xBD7 SWAP1 PUSH2 0x16F4 JUMP JUMPDEST DUP1 PUSH1 0x1F ADD PUSH1 0x20 DUP1 SWAP2 DIV MUL PUSH1 0x20 ADD PUSH1 0x40 MLOAD SWAP1 DUP2 ADD PUSH1 0x40 MSTORE DUP1 SWAP3 SWAP2 SWAP1 DUP2 DUP2 MSTORE PUSH1 0x20 ADD DUP3 DUP1 SLOAD PUSH2 0xC03 SWAP1 PUSH2 0x16F4 JUMP JUMPDEST DUP1 ISZERO PUSH2 0xC4E JUMPI DUP1 PUSH1 0x1F LT PUSH2 0xC25 JUMPI PUSH2 0x100 DUP1 DUP4 SLOAD DIV MUL DUP4 MSTORE SWAP2 PUSH1 0x20 ADD SWAP2 PUSH2 0xC4E JUMP JUMPDEST DUP3 ADD SWAP2 SWAP1 PUSH0 MSTORE PUSH1 0x20 PUSH0 KECCAK256 SWAP1 JUMPDEST DUP2 SLOAD DUP2 MSTORE SWAP1 PUSH1 0x1 ADD SWAP1 PUSH1 0x20 ADD DUP1 DUP4 GT PUSH2 0xC31 JUMPI DUP3 SWAP1 SUB PUSH1 0x1F AND DUP3 ADD SWAP2 JUMPDEST POP POP POP POP POP SWAP1 DUP1 PUSH1 0x2 ADD DUP1 SLOAD PUSH2 0xC63 SWAP1 PUSH2 0x16F4 JUMP JUMPDEST DUP1 PUSH1 0x1F ADD PUSH1 0x20 DUP1 SWAP2 DIV MUL PUSH1 0x20 ADD PUSH1 0x40 MLOAD SWAP1 DUP2 ADD PUSH1 0x40 MSTORE DUP1 SWAP3 SWAP2 SWAP1 DUP2 DUP2 MSTORE PUSH1 0x20 ADD DUP3 DUP1 SLOAD PUSH2 0xC8F SWAP1 PUSH2 0x16F4 JUMP JUMPDEST DUP1 ISZERO PUSH2 0xCDA JUMPI DUP1 PUSH1 0x1F LT PUSH2 0xCB1 JUMPI PUSH2 0x100 DUP1 DUP4 SLOAD DIV MUL DUP4 MSTORE SWAP2 PUSH1 0x20 ADD SWAP2 PUSH2 0xCDA JUMP JUMPDEST DUP3 ADD SWAP2 SWAP1 PUSH0 MSTORE PUSH1 0x20 PUSH0 KECCAK256 SWAP1 JUMPDEST DUP2 SLOAD DUP2 MSTORE SWAP1 PUSH1 0x1 ADD SWAP1 PUSH1 0x20 ADD DUP1 DUP4 GT PUSH2 0xCBD JUMPI DUP3 SWAP1 SUB PUSH1 0x1F AND DUP3 ADD SWAP2 JUMPDEST POP POP POP POP POP SWAP1 DUP1 PUSH1 0x3 ADD PUSH0 SWAP1 SLOAD SWAP1 PUSH2 0x100 EXP SWAP1 DIV PUSH1 0xFF AND SWAP1 DUP1 PUSH1 0x3 ADD PUSH1 0x1 SWAP1 SLOAD SWAP1 PUSH2 0x100 EXP SWAP1 DIV PUSH1 0xFF AND SWAP1 POP DUP6 JUMP JUMPDEST DUP3 DUP1 SLOAD DUP3 DUP3 SSTORE SWAP1 PUSH0 MSTORE PUSH1 0x20 PUSH0 KECCAK256 SWAP1 DUP2 ADD SWAP3 DUP3 ISZERO PUSH2 0xD7F JUMPI SWAP2 PUSH1 0x20 MUL DUP3 ADD JUMPDEST DUP3 DUP2 GT ISZERO PUSH2 0xD7E JUMPI DUP3 MLOAD DUP3 PUSH0 PUSH2 0x100 EXP DUP2 SLOAD DUP2 PUSH20 0xFFFFFFFFFFFFFFFFFFFFFFFFFFFFFFFFFFFFFFFF MUL NOT AND SWAP1 DUP4 PUSH20 0xFFFFFFFFFFFFFFFFFFFFFFFFFFFFFFFFFFFFFFFF AND MUL OR SWAP1 SSTORE POP SWAP2 PUSH1 0x20 ADD SWAP2 SWAP1 PUSH1 0x1 ADD SWAP1 PUSH2 0xD27 JUMP JUMPDEST JUMPDEST POP SWAP1 POP PUSH2 0xD8C SWAP2 SWAP1 PUSH2 0xDDC JUMP JUMPDEST POP SWAP1 JUMP JUMPDEST DUP3 PUSH1 0x2 DUP2 ADD SWAP3 DUP3 ISZERO PUSH2 0xDCB JUMPI SWAP2 PUSH1 0x20 MUL DUP3 ADD JUMPDEST DUP3 DUP2 GT ISZERO PUSH2 0xDCA JUMPI DUP3 MLOAD DUP3 SWAP1 DUP2 PUSH2 0xDBA SWAP2 SWAP1 PUSH2 0x18C1 JUMP JUMPDEST POP SWAP2 PUSH1 0x20 ADD SWAP2 SWAP1 PUSH1 0x1 ADD SWAP1 PUSH2 0xDA3 JUMP JUMPDEST JUMPDEST POP SWAP1 POP PUSH2 0xDD8 SWAP2 SWAP1 PUSH2 0xDF7 JUMP JUMPDEST POP SWAP1 JUMP JUMPDEST JUMPDEST DUP1 DUP3 GT ISZERO PUSH2 0xDF3 JUMPI PUSH0 DUP2 PUSH0 SWAP1 SSTORE POP PUSH1 0x1 ADD PUSH2 0xDDD JUMP JUMPDEST POP SWAP1 JUMP JUMPDEST JUMPDEST DUP1 DUP3 GT ISZERO PUSH2 0xE16 JUMPI PUSH0 DUP2 DUP2 PUSH2 0xE0D SWAP2 SWAP1 PUSH2 0xE1A JUMP JUMPDEST POP PUSH1 0x1 ADD PUSH2 0xDF8 JUMP JUMPDEST POP SWAP1 JUMP JUMPDEST POP DUP1 SLOAD PUSH2 0xE26 SWAP1 PUSH2 0x16F4 JUMP JUMPDEST PUSH0 DUP3 SSTORE DUP1 PUSH1 0x1F LT PUSH2 0xE37 JUMPI POP PUSH2 0xE54 JUMP JUMPDEST PUSH1 0x1F ADD PUSH1 0x20 SWAP1 DIV SWAP1 PUSH0 MSTORE PUSH1 0x20 PUSH0 KECCAK256 SWAP1 DUP2 ADD SWAP1 PUSH2 0xE53 SWAP2 SWAP1 PUSH2 0xDDC JUMP JUMPDEST JUMPDEST POP JUMP JUMPDEST PUSH0 PUSH1 0x40 MLOAD SWAP1 POP SWAP1 JUMP JUMPDEST PUSH0 DUP1 REVERT JUMPDEST PUSH0 DUP1 REVERT JUMPDEST PUSH0 DUP1 REVERT JUMPDEST PUSH0 DUP1 REVERT JUMPDEST PUSH0 PUSH1 0x1F NOT PUSH1 0x1F DUP4 ADD AND SWAP1 POP SWAP2 SWAP1 POP JUMP JUMPDEST PUSH32 0x4E487B7100000000000000000000000000000000000000000000000000000000 PUSH0 MSTORE PUSH1 0x41 PUSH1 0x4 MSTORE PUSH1 0x24 PUSH0 REVERT JUMPDEST PUSH2 0xEB6 DUP3 PUSH2 0xE70 JUMP JUMPDEST DUP2 ADD DUP2 DUP2 LT PUSH8 0xFFFFFFFFFFFFFFFF DUP3 GT OR ISZERO PUSH2 0xED5 JUMPI PUSH2 0xED4 PUSH2 0xE80 JUMP JUMPDEST JUMPDEST DUP1 PUSH1 0x40 MSTORE POP POP POP JUMP JUMPDEST PUSH0 PUSH2 0xEE7 PUSH2 0xE57 JUMP JUMPDEST SWAP1 POP PUSH2 0xEF3 DUP3 DUP3 PUSH2 0xEAD JUMP JUMPDEST SWAP2 SWAP1 POP JUMP JUMPDEST PUSH0 PUSH8 0xFFFFFFFFFFFFFFFF DUP3 GT ISZERO PUSH2 0xF12 JUMPI PUSH2 0xF11 PUSH2 0xE80 JUMP JUMPDEST JUMPDEST PUSH2 0xF1B DUP3 PUSH2 0xE70 JUMP JUMPDEST SWAP1 POP PUSH1 0x20 DUP2 ADD SWAP1 POP SWAP2 SWAP1 POP JUMP JUMPDEST DUP3 DUP2 DUP4 CALLDATACOPY PUSH0 DUP4 DUP4 ADD MSTORE POP POP POP JUMP JUMPDEST PUSH0 PUSH2 0xF48 PUSH2 0xF43 DUP5 PUSH2 0xEF8 JUMP JUMPDEST PUSH2 0xEDE JUMP JUMPDEST SWAP1 POP DUP3 DUP2 MSTORE PUSH1 0x20 DUP2 ADD DUP5 DUP5 DUP5 ADD GT ISZERO PUSH2 0xF64 JUMPI PUSH2 0xF63 PUSH2 0xE6C JUMP JUMPDEST JUMPDEST PUSH2 0xF6F DUP5 DUP3 DUP6 PUSH2 0xF28 JUMP JUMPDEST POP SWAP4 SWAP3 POP POP POP JUMP JUMPDEST PUSH0 DUP3 PUSH1 0x1F DUP4 ADD SLT PUSH2 0xF8B JUMPI PUSH2 0xF8A PUSH2 0xE68 JUMP JUMPDEST JUMPDEST DUP2 CALLDATALOAD PUSH2 0xF9B DUP5 DUP3 PUSH1 0x20 DUP7 ADD PUSH2 0xF36 JUMP JUMPDEST SWAP2 POP POP SWAP3 SWAP2 POP POP JUMP JUMPDEST PUSH0 PUSH8 0xFFFFFFFFFFFFFFFF DUP3 GT ISZERO PUSH2 0xFBE JUMPI PUSH2 0xFBD PUSH2 0xE80 JUMP JUMPDEST JUMPDEST PUSH1 0x20 DUP3 MUL SWAP1 POP PUSH1 0x20 DUP2 ADD SWAP1 POP SWAP2 SWAP1 POP JUMP JUMPDEST PUSH0 DUP1 REVERT JUMPDEST PUSH0 PUSH20 0xFFFFFFFFFFFFFFFFFFFFFFFFFFFFFFFFFFFFFFFF DUP3 AND SWAP1 POP SWAP2 SWAP1 POP JUMP JUMPDEST PUSH0 PUSH2 0xFFC DUP3 PUSH2 0xFD3 JUMP JUMPDEST SWAP1 POP SWAP2 SWAP1 POP JUMP JUMPDEST PUSH2 0x100C DUP2 PUSH2 0xFF2 JUMP JUMPDEST DUP2 EQ PUSH2 0x1016 JUMPI PUSH0 DUP1 REVERT JUMPDEST POP JUMP JUMPDEST PUSH0 DUP2 CALLDATALOAD SWAP1 POP PUSH2 0x1027 DUP2 PUSH2 0x1003 JUMP JUMPDEST SWAP3 SWAP2 POP POP JUMP JUMPDEST PUSH0 PUSH2 0x103F PUSH2 0x103A DUP5 PUSH2 0xFA4 JUMP JUMPDEST PUSH2 0xEDE JUMP JUMPDEST SWAP1 POP DUP1 DUP4 DUP3 MSTORE PUSH1 0x20 DUP3 ADD SWAP1 POP PUSH1 0x20 DUP5 MUL DUP4 ADD DUP6 DUP2 GT ISZERO PUSH2 0x1062 JUMPI PUSH2 0x1061 PUSH2 0xFCF JUMP JUMPDEST JUMPDEST DUP4 JUMPDEST DUP2 DUP2 LT ISZERO PUSH2 0x108B JUMPI DUP1 PUSH2 0x1077 DUP9 DUP3 PUSH2 0x1019 JUMP JUMPDEST DUP5 MSTORE PUSH1 0x20 DUP5 ADD SWAP4 POP POP PUSH1 0x20 DUP2 ADD SWAP1 POP PUSH2 0x1064 JUMP JUMPDEST POP POP POP SWAP4 SWAP3 POP POP POP JUMP JUMPDEST PUSH0 DUP3 PUSH1 0x1F DUP4 ADD SLT PUSH2 0x10A9 JUMPI PUSH2 0x10A8 PUSH2 0xE68 JUMP JUMPDEST JUMPDEST DUP2 CALLDATALOAD PUSH2 0x10B9 DUP5 DUP3 PUSH1 0x20 DUP7 ADD PUSH2 0x102D JUMP JUMPDEST SWAP2 POP POP SWAP3 SWAP2 POP POP JUMP JUMPDEST PUSH0 PUSH8 0xFFFFFFFFFFFFFFFF DUP3 GT ISZERO PUSH2 0x10DC JUMPI PUSH2 0x10DB PUSH2 0xE80 JUMP JUMPDEST JUMPDEST PUSH1 0x20 DUP3 MUL SWAP1 POP SWAP2 SWAP1 POP JUMP JUMPDEST PUSH0 PUSH2 0x10F9 PUSH2 0x10F4 DUP5 PUSH2 0x10C2 JUMP JUMPDEST PUSH2 0xEDE JUMP JUMPDEST SWAP1 POP DUP1 PUSH1 0x20 DUP5 MUL DUP4 ADD DUP6 DUP2 GT ISZERO PUSH2 0x1113 JUMPI PUSH2 0x1112 PUSH2 0xFCF JUMP JUMPDEST JUMPDEST DUP4 JUMPDEST DUP2 DUP2 LT ISZERO PUSH2 0x115A JUMPI DUP1 CALLDATALOAD PUSH8 0xFFFFFFFFFFFFFFFF DUP2 GT ISZERO PUSH2 0x1138 JUMPI PUSH2 0x1137 PUSH2 0xE68 JUMP JUMPDEST JUMPDEST DUP1 DUP7 ADD PUSH2 0x1145 DUP10 DUP3 PUSH2 0xF77 JUMP JUMPDEST DUP6 MSTORE PUSH1 0x20 DUP6 ADD SWAP5 POP POP POP PUSH1 0x20 DUP2 ADD SWAP1 POP PUSH2 0x1115 JUMP JUMPDEST POP POP POP SWAP4 SWAP3 POP POP POP JUMP JUMPDEST PUSH0 DUP3 PUSH1 0x1F DUP4 ADD SLT PUSH2 0x1178 JUMPI PUSH2 0x1177 PUSH2 0xE68 JUMP JUMPDEST JUMPDEST PUSH1 0x2 PUSH2 0x1185 DUP5 DUP3 DUP6 PUSH2 0x10E7 JUMP JUMPDEST SWAP2 POP POP SWAP3 SWAP2 POP POP JUMP JUMPDEST PUSH0 DUP1 PUSH0 PUSH1 0x60 DUP5 DUP7 SUB SLT ISZERO PUSH2 0x11A5 JUMPI PUSH2 0x11A4 PUSH2 0xE60 JUMP JUMPDEST JUMPDEST PUSH0 DUP5 ADD CALLDATALOAD PUSH8 0xFFFFFFFFFFFFFFFF DUP2 GT ISZERO PUSH2 0x11C2 JUMPI PUSH2 0x11C1 PUSH2 0xE64 JUMP JUMPDEST JUMPDEST PUSH2 0x11CE DUP7 DUP3 DUP8 ADD PUSH2 0xF77 JUMP JUMPDEST SWAP4 POP POP PUSH1 0x20 DUP5 ADD CALLDATALOAD PUSH8 0xFFFFFFFFFFFFFFFF DUP2 GT ISZERO PUSH2 0x11EF JUMPI PUSH2 0x11EE PUSH2 0xE64 JUMP JUMPDEST JUMPDEST PUSH2 0x11FB DUP7 DUP3 DUP8 ADD PUSH2 0x1095 JUMP JUMPDEST SWAP3 POP POP PUSH1 0x40 DUP5 ADD CALLDATALOAD PUSH8 0xFFFFFFFFFFFFFFFF DUP2 GT ISZERO PUSH2 0x121C JUMPI PUSH2 0x121B PUSH2 0xE64 JUMP JUMPDEST JUMPDEST PUSH2 0x1228 DUP7 DUP3 DUP8 ADD PUSH2 0x1164 JUMP JUMPDEST SWAP2 POP POP SWAP3 POP SWAP3 POP SWAP3 JUMP JUMPDEST PUSH0 DUP2 ISZERO ISZERO SWAP1 POP SWAP2 SWAP1 POP JUMP JUMPDEST PUSH2 0x1246 DUP2 PUSH2 0x1232 JUMP JUMPDEST DUP3 MSTORE POP POP JUMP JUMPDEST PUSH0 PUSH1 0x20 DUP3 ADD SWAP1 POP PUSH2 0x125F PUSH0 DUP4 ADD DUP5 PUSH2 0x123D JUMP JUMPDEST SWAP3 SWAP2 POP POP JUMP JUMPDEST PUSH0 DUP2 SWAP1 POP SWAP2 SWAP1 POP JUMP JUMPDEST PUSH2 0x1277 DUP2 PUSH2 0x1265 JUMP JUMPDEST DUP2 EQ PUSH2 0x1281 JUMPI PUSH0 DUP1 REVERT JUMPDEST POP JUMP JUMPDEST PUSH0 DUP2 CALLDATALOAD SWAP1 POP PUSH2 0x1292 DUP2 PUSH2 0x126E JUMP JUMPDEST SWAP3 SWAP2 POP POP JUMP JUMPDEST PUSH0 PUSH1 0x20 DUP3 DUP5 SUB SLT ISZERO PUSH2 0x12AD JUMPI PUSH2 0x12AC PUSH2 0xE60 JUMP JUMPDEST JUMPDEST PUSH0 PUSH2 0x12BA DUP5 DUP3 DUP6 ADD PUSH2 0x1284 JUMP JUMPDEST SWAP2 POP POP SWAP3 SWAP2 POP POP JUMP JUMPDEST PUSH2 0x12CC DUP2 PUSH2 0x1265 JUMP JUMPDEST DUP3 MSTORE POP POP JUMP JUMPDEST PUSH0 DUP2 MLOAD SWAP1 POP SWAP2 SWAP1 POP JUMP JUMPDEST PUSH0 DUP3 DUP3 MSTORE PUSH1 0x20 DUP3 ADD SWAP1 POP SWAP3 SWAP2 POP POP JUMP JUMPDEST DUP3 DUP2 DUP4 MCOPY PUSH0 DUP4 DUP4 ADD MSTORE POP POP POP JUMP JUMPDEST PUSH0 PUSH2 0x1304 DUP3 PUSH2 0x12D2 JUMP JUMPDEST PUSH2 0x130E DUP2 DUP6 PUSH2 0x12DC JUMP JUMPDEST SWAP4 POP PUSH2 0x131E DUP2 DUP6 PUSH1 0x20 DUP7 ADD PUSH2 0x12EC JUMP JUMPDEST PUSH2 0x1327 DUP2 PUSH2 0xE70 JUMP JUMPDEST DUP5 ADD SWAP2 POP POP SWAP3 SWAP2 POP POP JUMP JUMPDEST PUSH0 PUSH1 0x80 DUP3 ADD SWAP1 POP PUSH2 0x1345 PUSH0 DUP4 ADD DUP8 PUSH2 0x12C3 JUMP JUMPDEST DUP2 DUP2 SUB PUSH1 0x20 DUP4 ADD MSTORE PUSH2 0x1357 DUP2 DUP7 PUSH2 0x12FA JUMP JUMPDEST SWAP1 POP PUSH2 0x1366 PUSH1 0x40 DUP4 ADD DUP6 PUSH2 0x12C3 JUMP JUMPDEST PUSH2 0x1373 PUSH1 0x60 DUP4 ADD DUP5 PUSH2 0x123D JUMP JUMPDEST SWAP6 SWAP5 POP POP POP POP POP JUMP JUMPDEST PUSH0 DUP2 MLOAD SWAP1 POP SWAP2 SWAP1 POP JUMP JUMPDEST PUSH0 DUP3 DUP3 MSTORE PUSH1 0x20 DUP3 ADD SWAP1 POP SWAP3 SWAP2 POP POP JUMP JUMPDEST PUSH0 DUP2 SWAP1 POP PUSH1 0x20 DUP3 ADD SWAP1 POP SWAP2 SWAP1 POP JUMP JUMPDEST PUSH2 0x13AE DUP2 PUSH2 0x1265 JUMP JUMPDEST DUP3 MSTORE POP POP JUMP JUMPDEST PUSH0 DUP3 DUP3 MSTORE PUSH1 0x20 DUP3 ADD SWAP1 POP SWAP3 SWAP2 POP POP JUMP JUMPDEST PUSH0 PUSH2 0x13CE DUP3 PUSH2 0x12D2 JUMP JUMPDEST PUSH2 0x13D8 DUP2 DUP6 PUSH2 0x13B4 JUMP JUMPDEST SWAP4 POP PUSH2 0x13E8 DUP2 DUP6 PUSH1 0x20 DUP7 ADD PUSH2 0x12EC JUMP JUMPDEST PUSH2 0x13F1 DUP2 PUSH2 0xE70 JUMP JUMPDEST DUP5 ADD SWAP2 POP POP SWAP3 SWAP2 POP POP JUMP JUMPDEST PUSH2 0x1405 DUP2 PUSH2 0x1232 JUMP JUMPDEST DUP3 MSTORE POP POP JUMP JUMPDEST PUSH0 PUSH1 0xA0 DUP4 ADD PUSH0 DUP4 ADD MLOAD PUSH2 0x1420 PUSH0 DUP7 ADD DUP3 PUSH2 0x13A5 JUMP JUMPDEST POP PUSH1 0x20 DUP4 ADD MLOAD DUP5 DUP3 SUB PUSH1 0x20 DUP7 ADD MSTORE PUSH2 0x1438 DUP3 DUP3 PUSH2 0x13C4 JUMP JUMPDEST SWAP2 POP POP PUSH1 0x40 DUP4 ADD MLOAD DUP5 DUP3 SUB PUSH1 0x40 DUP7 ADD MSTORE PUSH2 0x1452 DUP3 DUP3 PUSH2 0x13C4 JUMP JUMPDEST SWAP2 POP POP PUSH1 0x60 DUP4 ADD MLOAD PUSH2 0x1467 PUSH1 0x60 DUP7 ADD DUP3 PUSH2 0x13FC JUMP JUMPDEST POP PUSH1 0x80 DUP4 ADD MLOAD PUSH2 0x147A PUSH1 0x80 DUP7 ADD DUP3 PUSH2 0x13FC JUMP JUMPDEST POP DUP1 SWAP2 POP POP SWAP3 SWAP2 POP POP JUMP JUMPDEST PUSH0 PUSH2 0x1490 DUP4 DUP4 PUSH2 0x140B JUMP JUMPDEST SWAP1 POP SWAP3 SWAP2 POP POP JUMP JUMPDEST PUSH0 PUSH1 0x20 DUP3 ADD SWAP1 POP SWAP2 SWAP1 POP JUMP JUMPDEST PUSH0 PUSH2 0x14AE DUP3 PUSH2 0x137C JUMP JUMPDEST PUSH2 0x14B8 DUP2 DUP6 PUSH2 0x1386 JUMP JUMPDEST SWAP4 POP DUP4 PUSH1 0x20 DUP3 MUL DUP6 ADD PUSH2 0x14CA DUP6 PUSH2 0x1396 JUMP JUMPDEST DUP1 PUSH0 JUMPDEST DUP6 DUP2 LT ISZERO PUSH2 0x1505 JUMPI DUP5 DUP5 SUB DUP10 MSTORE DUP2 MLOAD PUSH2 0x14E6 DUP6 DUP3 PUSH2 0x1485 JUMP JUMPDEST SWAP5 POP PUSH2 0x14F1 DUP4 PUSH2 0x1498 JUMP JUMPDEST SWAP3 POP PUSH1 0x20 DUP11 ADD SWAP10 POP POP PUSH1 0x1 DUP2 ADD SWAP1 POP PUSH2 0x14CD JUMP JUMPDEST POP DUP3 SWAP8 POP DUP8 SWAP6 POP POP POP POP POP POP SWAP3 SWAP2 POP POP JUMP JUMPDEST PUSH0 PUSH1 0x20 DUP3 ADD SWAP1 POP DUP2 DUP2 SUB PUSH0 DUP4 ADD MSTORE PUSH2 0x152F DUP2 DUP5 PUSH2 0x14A4 JUMP JUMPDEST SWAP1 POP SWAP3 SWAP2 POP POP JUMP JUMPDEST PUSH0 PUSH1 0x20 DUP3 ADD SWAP1 POP PUSH2 0x154A PUSH0 DUP4 ADD DUP5 PUSH2 0x12C3 JUMP JUMPDEST SWAP3 SWAP2 POP POP JUMP JUMPDEST PUSH0 PUSH1 0x20 DUP3 DUP5 SUB SLT ISZERO PUSH2 0x1565 JUMPI PUSH2 0x1564 PUSH2 0xE60 JUMP JUMPDEST JUMPDEST PUSH0 DUP3 ADD CALLDATALOAD PUSH8 0xFFFFFFFFFFFFFFFF DUP2 GT ISZERO PUSH2 0x1582 JUMPI PUSH2 0x1581 PUSH2 0xE64 JUMP JUMPDEST JUMPDEST PUSH2 0x158E DUP5 DUP3 DUP6 ADD PUSH2 0xF77 JUMP JUMPDEST SWAP2 POP POP SWAP3 SWAP2 POP POP JUMP JUMPDEST PUSH0 PUSH1 0xA0 DUP3 ADD SWAP1 POP PUSH2 0x15AA PUSH0 DUP4 ADD DUP9 PUSH2 0x12C3 JUMP JUMPDEST DUP2 DUP2 SUB PUSH1 0x20 DUP4 ADD MSTORE PUSH2 0x15BC DUP2 DUP8 PUSH2 0x12FA JUMP JUMPDEST SWAP1 POP DUP2 DUP2 SUB PUSH1 0x40 DUP4 ADD MSTORE PUSH2 0x15D0 DUP2 DUP7 PUSH2 0x12FA JUMP JUMPDEST SWAP1 POP PUSH2 0x15DF PUSH1 0x60 DUP4 ADD DUP6 PUSH2 0x123D JUMP JUMPDEST PUSH2 0x15EC PUSH1 0x80 DUP4 ADD DUP5 PUSH2 0x123D JUMP JUMPDEST SWAP7 SWAP6 POP POP POP POP POP POP JUMP JUMPDEST PUSH0 DUP1 PUSH1 0x40 DUP4 DUP6 SUB SLT ISZERO PUSH2 0x160C JUMPI PUSH2 0x160B PUSH2 0xE60 JUMP JUMPDEST JUMPDEST PUSH0 PUSH2 0x1619 DUP6 DUP3 DUP7 ADD PUSH2 0x1019 JUMP JUMPDEST SWAP3 POP POP PUSH1 0x20 PUSH2 0x162A DUP6 DUP3 DUP7 ADD PUSH2 0x1284 JUMP JUMPDEST SWAP2 POP POP SWAP3 POP SWAP3 SWAP1 POP JUMP JUMPDEST PUSH0 PUSH1 0x20 DUP3 DUP5 SUB SLT ISZERO PUSH2 0x1649 JUMPI PUSH2 0x1648 PUSH2 0xE60 JUMP JUMPDEST JUMPDEST PUSH0 PUSH2 0x1656 DUP5 DUP3 DUP6 ADD PUSH2 0x1019 JUMP JUMPDEST SWAP2 POP POP SWAP3 SWAP2 POP POP JUMP JUMPDEST PUSH32 0x456C656374696F6E20616C726561647920657869737473000000000000000000 PUSH0 DUP3 ADD MSTORE POP JUMP JUMPDEST PUSH0 PUSH2 0x1693 PUSH1 0x17 DUP4 PUSH2 0x12DC JUMP JUMPDEST SWAP2 POP PUSH2 0x169E DUP3 PUSH2 0x165F JUMP JUMPDEST PUSH1 0x20 DUP3 ADD SWAP1 POP SWAP2 SWAP1 POP JUMP JUMPDEST PUSH0 PUSH1 0x20 DUP3 ADD SWAP1 POP DUP2 DUP2 SUB PUSH0 DUP4 ADD MSTORE PUSH2 0x16C0 DUP2 PUSH2 0x1687 JUMP JUMPDEST SWAP1 POP SWAP2 SWAP1 POP JUMP JUMPDEST PUSH32 0x4E487B7100000000000000000000000000000000000000000000000000000000 PUSH0 MSTORE PUSH1 0x22 PUSH1 0x4 MSTORE PUSH1 0x24 PUSH0 REVERT JUMPDEST PUSH0 PUSH1 0x2 DUP3 DIV SWAP1 POP PUSH1 0x1 DUP3 AND DUP1 PUSH2 0x170B JUMPI PUSH1 0x7F DUP3 AND SWAP2 POP JUMPDEST PUSH1 0x20 DUP3 LT DUP2 SUB PUSH2 0x171E JUMPI PUSH2 0x171D PUSH2 0x16C7 JUMP JUMPDEST JUMPDEST POP SWAP2 SWAP1 POP JUMP JUMPDEST PUSH0 DUP2 SWAP1 POP DUP2 PUSH0 MSTORE PUSH1 0x20 PUSH0 KECCAK256 SWAP1 POP SWAP2 SWAP1 POP JUMP JUMPDEST PUSH0 PUSH1 0x20 PUSH1 0x1F DUP4 ADD DIV SWAP1 POP SWAP2 SWAP1 POP JUMP JUMPDEST PUSH0 DUP3 DUP3 SHL SWAP1 POP SWAP3 SWAP2 POP POP JUMP JUMPDEST PUSH0 PUSH1 0x8 DUP4 MUL PUSH2 0x1780 PUSH32 0xFFFFFFFFFFFFFFFFFFFFFFFFFFFFFFFFFFFFFFFFFFFFFFFFFFFFFFFFFFFFFFFF DUP3 PUSH2 0x1745 JUMP JUMPDEST PUSH2 0x178A DUP7 DUP4 PUSH2 0x1745 JUMP JUMPDEST SWAP6 POP DUP1 NOT DUP5 AND SWAP4 POP DUP1 DUP7 AND DUP5 OR SWAP3 POP POP POP SWAP4 SWAP3 POP POP POP JUMP JUMPDEST PUSH0 DUP2 SWAP1 POP SWAP2 SWAP1 POP JUMP JUMPDEST PUSH0 PUSH2 0x17C5 PUSH2 0x17C0 PUSH2 0x17BB DUP5 PUSH2 0x1265 JUMP JUMPDEST PUSH2 0x17A2 JUMP JUMPDEST PUSH2 0x1265 JUMP JUMPDEST SWAP1 POP SWAP2 SWAP1 POP JUMP JUMPDEST PUSH0 DUP2 SWAP1 POP SWAP2 SWAP1 POP JUMP JUMPDEST PUSH2 0x17DE DUP4 PUSH2 0x17AB JUMP JUMPDEST PUSH2 0x17F2 PUSH2 0x17EA DUP3 PUSH2 0x17CC JUMP JUMPDEST DUP5 DUP5 SLOAD PUSH2 0x1751 JUMP JUMPDEST DUP3 SSTORE POP POP POP POP JUMP JUMPDEST PUSH0 SWAP1 JUMP JUMPDEST PUSH2 0x1806 PUSH2 0x17FA JUMP JUMPDEST PUSH2 0x1811 DUP2 DUP5 DUP5 PUSH2 0x17D5 JUMP JUMPDEST POP POP POP JUMP JUMPDEST JUMPDEST DUP2 DUP2 LT ISZERO PUSH2 0x1834 JUMPI PUSH2 0x1829 PUSH0 DUP3 PUSH2 0x17FE JUMP JUMPDEST PUSH1 0x1 DUP2 ADD SWAP1 POP PUSH2 0x1817 JUMP JUMPDEST POP POP JUMP JUMPDEST PUSH1 0x1F DUP3 GT ISZERO PUSH2 0x1879 JUMPI PUSH2 0x184A DUP2 PUSH2 0x1724 JUMP JUMPDEST PUSH2 0x1853 DUP5 PUSH2 0x1736 JUMP JUMPDEST DUP2 ADD PUSH1 0x20 DUP6 LT ISZERO PUSH2 0x1862 JUMPI DUP2 SWAP1 POP JUMPDEST PUSH2 0x1876 PUSH2 0x186E DUP6 PUSH2 0x1736 JUMP JUMPDEST DUP4 ADD DUP3 PUSH2 0x1816 JUMP JUMPDEST POP POP JUMPDEST POP POP POP JUMP JUMPDEST PUSH0 DUP3 DUP3 SHR SWAP1 POP SWAP3 SWAP2 POP POP JUMP JUMPDEST PUSH0 PUSH2 0x1899 PUSH0 NOT DUP5 PUSH1 0x8 MUL PUSH2 0x187E JUMP JUMPDEST NOT DUP1 DUP4 AND SWAP2 POP POP SWAP3 SWAP2 POP POP JUMP JUMPDEST PUSH0 PUSH2 0x18B1 DUP4 DUP4 PUSH2 0x188A JUMP JUMPDEST SWAP2 POP DUP3 PUSH1 0x2 MUL DUP3 OR SWAP1 POP SWAP3 SWAP2 POP POP JUMP JUMPDEST PUSH2 0x18CA DUP3 PUSH2 0x12D2 JUMP JUMPDEST PUSH8 0xFFFFFFFFFFFFFFFF DUP2 GT ISZERO PUSH2 0x18E3 JUMPI PUSH2 0x18E2 PUSH2 0xE80 JUMP JUMPDEST JUMPDEST PUSH2 0x18ED DUP3 SLOAD PUSH2 0x16F4 JUMP JUMPDEST PUSH2 0x18F8 DUP3 DUP3 DUP6 PUSH2 0x1838 JUMP JUMPDEST PUSH0 PUSH1 0x20 SWAP1 POP PUSH1 0x1F DUP4 GT PUSH1 0x1 DUP2 EQ PUSH2 0x1929 JUMPI PUSH0 DUP5 ISZERO PUSH2 0x1917 JUMPI DUP3 DUP8 ADD MLOAD SWAP1 POP JUMPDEST PUSH2 0x1921 DUP6 DUP3 PUSH2 0x18A6 JUMP JUMPDEST DUP7 SSTORE POP PUSH2 0x1988 JUMP JUMPDEST PUSH1 0x1F NOT DUP5 AND PUSH2 0x1937 DUP7 PUSH2 0x1724 JUMP JUMPDEST PUSH0 JUMPDEST DUP3 DUP2 LT ISZERO PUSH2 0x195E JUMPI DUP5 DUP10 ADD MLOAD DUP3 SSTORE PUSH1 0x1 DUP3 ADD SWAP2 POP PUSH1 0x20 DUP6 ADD SWAP5 POP PUSH1 0x20 DUP2 ADD SWAP1 POP PUSH2 0x1939 JUMP JUMPDEST DUP7 DUP4 LT ISZERO PUSH2 0x197B JUMPI DUP5 DUP10 ADD MLOAD PUSH2 0x1977 PUSH1 0x1F DUP10 AND DUP3 PUSH2 0x188A JUMP JUMPDEST DUP4 SSTORE POP JUMPDEST PUSH1 0x1 PUSH1 0x2 DUP9 MUL ADD DUP9 SSTORE POP POP POP JUMPDEST POP POP POP POP POP POP JUMP JUMPDEST PUSH32 0x4E487B7100000000000000000000000000000000000000000000000000000000 PUSH0 MSTORE PUSH1 0x11 PUSH1 0x4 MSTORE PUSH1 0x24 PUSH0 REVERT JUMPDEST PUSH0 PUSH2 0x19C7 DUP3 PUSH2 0x1265 JUMP JUMPDEST SWAP2 POP PUSH2 0x19D2 DUP4 PUSH2 0x1265 JUMP JUMPDEST SWAP3 POP DUP3 DUP3 ADD SWAP1 POP DUP1 DUP3 GT ISZERO PUSH2 0x19EA JUMPI PUSH2 0x19E9 PUSH2 0x1990 JUMP JUMPDEST JUMPDEST SWAP3 SWAP2 POP POP JUMP JUMPDEST PUSH32 0x43414E204F4E4C59205245474953544552204F4E434500000000000000000000 PUSH0 DUP3 ADD MSTORE POP JUMP JUMPDEST PUSH0 PUSH2 0x1A24 PUSH1 0x16 DUP4 PUSH2 0x12DC JUMP JUMPDEST SWAP2 POP PUSH2 0x1A2F DUP3 PUSH2 0x19F0 JUMP JUMPDEST PUSH1 0x20 DUP3 ADD SWAP1 POP SWAP2 SWAP1 POP JUMP JUMPDEST PUSH0 PUSH1 0x20 DUP3 ADD SWAP1 POP DUP2 DUP2 SUB PUSH0 DUP4 ADD MSTORE PUSH2 0x1A51 DUP2 PUSH2 0x1A18 JUMP JUMPDEST SWAP1 POP SWAP2 SWAP1 POP JUMP JUMPDEST PUSH0 DUP2 SLOAD SWAP1 POP PUSH2 0x1A66 DUP2 PUSH2 0x16F4 JUMP JUMPDEST SWAP1 POP SWAP2 SWAP1 POP JUMP JUMPDEST DUP2 DUP2 SUB PUSH2 0x1A7B JUMPI POP POP PUSH2 0x1B50 JUMP JUMPDEST PUSH2 0x1A84 DUP3 PUSH2 0x1A58 JUMP JUMPDEST PUSH8 0xFFFFFFFFFFFFFFFF DUP2 GT ISZERO PUSH2 0x1A9D JUMPI PUSH2 0x1A9C PUSH2 0xE80 JUMP JUMPDEST JUMPDEST PUSH2 0x1AA7 DUP3 SLOAD PUSH2 0x16F4 JUMP JUMPDEST PUSH2 0x1AB2 DUP3 DUP3 DUP6 PUSH2 0x1838 JUMP JUMPDEST PUSH0 PUSH1 0x1F DUP4 GT PUSH1 0x1 DUP2 EQ PUSH2 0x1ADF JUMPI PUSH0 DUP5 ISZERO PUSH2 0x1ACD JUMPI DUP3 DUP8 ADD SLOAD SWAP1 POP JUMPDEST PUSH2 0x1AD7 DUP6 DUP3 PUSH2 0x18A6 JUMP JUMPDEST DUP7 SSTORE POP PUSH2 0x1B49 JUMP JUMPDEST PUSH1 0x1F NOT DUP5 AND PUSH2 0x1AED DUP8 PUSH2 0x1724 JUMP JUMPDEST SWAP7 POP PUSH2 0x1AF8 DUP7 PUSH2 0x1724 JUMP JUMPDEST PUSH0 JUMPDEST DUP3 DUP2 LT ISZERO PUSH2 0x1B1F JUMPI DUP5 DUP10 ADD SLOAD DUP3 SSTORE PUSH1 0x1 DUP3 ADD SWAP2 POP PUSH1 0x1 DUP6 ADD SWAP5 POP PUSH1 0x20 DUP2 ADD SWAP1 POP PUSH2 0x1AFA JUMP JUMPDEST DUP7 DUP4 LT ISZERO PUSH2 0x1B3C JUMPI DUP5 DUP10 ADD SLOAD PUSH2 0x1B38 PUSH1 0x1F DUP10 AND DUP3 PUSH2 0x188A JUMP JUMPDEST DUP4 SSTORE POP JUMPDEST PUSH1 0x1 PUSH1 0x2 DUP9 MUL ADD DUP9 SSTORE POP POP POP JUMPDEST POP POP POP POP POP POP JUMPDEST JUMP JUMPDEST PUSH32 0x4E487B7100000000000000000000000000000000000000000000000000000000 PUSH0 MSTORE PUSH1 0x32 PUSH1 0x4 MSTORE PUSH1 0x24 PUSH0 REVERT JUMPDEST PUSH32 0x43414E44494441544520414C5245414459204E4F4D494E415445440000000000 PUSH0 DUP3 ADD MSTORE POP JUMP JUMPDEST PUSH0 PUSH2 0x1BB3 PUSH1 0x1B DUP4 PUSH2 0x12DC JUMP JUMPDEST SWAP2 POP PUSH2 0x1BBE DUP3 PUSH2 0x1B7F JUMP JUMPDEST PUSH1 0x20 DUP3 ADD SWAP1 POP SWAP2 SWAP1 POP JUMP JUMPDEST PUSH0 PUSH1 0x20 DUP3 ADD SWAP1 POP DUP2 DUP2 SUB PUSH0 DUP4 ADD MSTORE PUSH2 0x1BE0 DUP2 PUSH2 0x1BA7 JUMP JUMPDEST SWAP1 POP SWAP2 SWAP1 POP JUMP JUMPDEST PUSH32 0x494E56414C494420454C454354494F4E20494400000000000000000000000000 PUSH0 DUP3 ADD MSTORE POP JUMP JUMPDEST PUSH0 PUSH2 0x1C1B PUSH1 0x13 DUP4 PUSH2 0x12DC JUMP JUMPDEST SWAP2 POP PUSH2 0x1C26 DUP3 PUSH2 0x1BE7 JUMP JUMPDEST PUSH1 0x20 DUP3 ADD SWAP1 POP SWAP2 SWAP1 POP JUMP JUMPDEST PUSH0 PUSH1 0x20 DUP3 ADD SWAP1 POP DUP2 DUP2 SUB PUSH0 DUP4 ADD MSTORE PUSH2 0x1C48 DUP2 PUSH2 0x1C0F JUMP JUMPDEST SWAP1 POP SWAP2 SWAP1 POP JUMP INVALID LOG2 PUSH5 0x6970667358 0x22 SLT KECCAK256 EQ LOG2 XOR GAS CALLDATALOAD DUP16 SHR ISZERO ADD 0xAB 0xF7 0xE SWAP10 0x2B 0x2C SSTORE SGT 0xFC CALLDATASIZE LOG4 PUSH9 0x180AF940E766A550A2 0x4F EXTCODECOPY PUSH5 0x736F6C6343 STOP ADDMOD BYTE STOP CALLER "
				},
				"gasEstimates": {
					"creation": {
						"codeDepositCost": "1460200",
						"executionCost": "11535",
						"totalCost": "1471735"
					},
					"external": {
						"Elections(uint256)": "infinite",
						"Voters(address)": "infinite",
						"allVoters(uint256)": "infinite",
						"candidateId()": "2469",
						"electionsCounter()": "2492",
						"getAllVoters()": "infinite",
						"initiateElection(string,address[],string[2])": "infinite",
						"nominateCandidate(address,uint256)": "infinite",
						"registerVoter(string)": "infinite"
					}
				},
				"methodIdentifiers": {
					"Elections(uint256)": "1e9598e2",
					"Voters(address)": "fdedaa8a",
					"allVoters(uint256)": "85650674",
					"candidateId()": "9f91e6bf",
					"electionsCounter()": "46817041",
					"getAllVoters()": "35bbe70e",
					"initiateElection(string,address[],string[2])": "065b2430",
					"nominateCandidate(address,uint256)": "f34bbf0c",
					"registerVoter(string)": "6428a486"
				}
			},
			"storageLayout": {
				"storage": [
					{
						"astId": 32,
						"contract": "smartC/contracts/Governator.sol:ELECTION_SYSTEM",
						"label": "Voters",
						"offset": 0,
						"slot": "0",
						"type": "t_mapping(t_address,t_struct(Voter)27_storage)"
					},
					{
						"astId": 36,
						"contract": "smartC/contracts/Governator.sol:ELECTION_SYSTEM",
						"label": "allVoters",
						"offset": 0,
						"slot": "1",
						"type": "t_array(t_struct(Voter)27_storage)dyn_storage"
					},
					{
						"astId": 68,
						"contract": "smartC/contracts/Governator.sol:ELECTION_SYSTEM",
						"label": "Elections",
						"offset": 0,
						"slot": "2",
						"type": "t_mapping(t_uint256,t_struct(Election)63_storage)"
					},
					{
						"astId": 297,
						"contract": "smartC/contracts/Governator.sol:ELECTION_SYSTEM",
						"label": "candidateId",
						"offset": 0,
						"slot": "3",
						"type": "t_uint256"
					},
					{
						"astId": 300,
						"contract": "smartC/contracts/Governator.sol:ELECTION_SYSTEM",
						"label": "electionsCounter",
						"offset": 0,
						"slot": "4",
						"type": "t_uint256"
					}
				],
				"types": {
					"t_address": {
						"encoding": "inplace",
						"label": "address",
						"numberOfBytes": "20"
					},
					"t_array(t_address)dyn_storage": {
						"base": "t_address",
						"encoding": "dynamic_array",
						"label": "address[]",
						"numberOfBytes": "32"
					},
					"t_array(t_string_storage)2_storage": {
						"base": "t_string_storage",
						"encoding": "inplace",
						"label": "string[2]",
						"numberOfBytes": "64"
					},
					"t_array(t_struct(Voter)27_storage)dyn_storage": {
						"base": "t_struct(Voter)27_storage",
						"encoding": "dynamic_array",
						"label": "struct ELECTION_SYSTEM.Voter[]",
						"numberOfBytes": "32"
					},
					"t_bool": {
						"encoding": "inplace",
						"label": "bool",
						"numberOfBytes": "1"
					},
					"t_mapping(t_address,t_struct(Voter)27_storage)": {
						"encoding": "mapping",
						"key": "t_address",
						"label": "mapping(address => struct ELECTION_SYSTEM.Voter)",
						"numberOfBytes": "32",
						"value": "t_struct(Voter)27_storage"
					},
					"t_mapping(t_uint256,t_struct(Election)63_storage)": {
						"encoding": "mapping",
						"key": "t_uint256",
						"label": "mapping(uint256 => struct ELECTION_SYSTEM.Election)",
						"numberOfBytes": "32",
						"value": "t_struct(Election)63_storage"
					},
					"t_string_storage": {
						"encoding": "bytes",
						"label": "string",
						"numberOfBytes": "32"
					},
					"t_struct(Election)63_storage": {
						"encoding": "inplace",
						"label": "struct ELECTION_SYSTEM.Election",
						"members": [
							{
								"astId": 49,
								"contract": "smartC/contracts/Governator.sol:ELECTION_SYSTEM",
								"label": "electionId",
								"offset": 0,
								"slot": "0",
								"type": "t_uint256"
							},
							{
								"astId": 51,
								"contract": "smartC/contracts/Governator.sol:ELECTION_SYSTEM",
								"label": "purpose",
								"offset": 0,
								"slot": "1",
								"type": "t_string_storage"
							},
							{
								"astId": 54,
								"contract": "smartC/contracts/Governator.sol:ELECTION_SYSTEM",
								"label": "candidates",
								"offset": 0,
								"slot": "2",
								"type": "t_array(t_address)dyn_storage"
							},
							{
								"astId": 58,
								"contract": "smartC/contracts/Governator.sol:ELECTION_SYSTEM",
								"label": "position",
								"offset": 0,
								"slot": "3",
								"type": "t_array(t_string_storage)2_storage"
							},
							{
								"astId": 60,
								"contract": "smartC/contracts/Governator.sol:ELECTION_SYSTEM",
								"label": "totalVotes",
								"offset": 0,
								"slot": "5",
								"type": "t_uint256"
							},
							{
								"astId": 62,
								"contract": "smartC/contracts/Governator.sol:ELECTION_SYSTEM",
								"label": "exists",
								"offset": 0,
								"slot": "6",
								"type": "t_bool"
							}
						],
						"numberOfBytes": "224"
					},
					"t_struct(Voter)27_storage": {
						"encoding": "inplace",
						"label": "struct ELECTION_SYSTEM.Voter",
						"members": [
							{
								"astId": 18,
								"contract": "smartC/contracts/Governator.sol:ELECTION_SYSTEM",
								"label": "id",
								"offset": 0,
								"slot": "0",
								"type": "t_uint256"
							},
							{
								"astId": 20,
								"contract": "smartC/contracts/Governator.sol:ELECTION_SYSTEM",
								"label": "name",
								"offset": 0,
								"slot": "1",
								"type": "t_string_storage"
							},
							{
								"astId": 22,
								"contract": "smartC/contracts/Governator.sol:ELECTION_SYSTEM",
								"label": "position",
								"offset": 0,
								"slot": "2",
								"type": "t_string_storage"
							},
							{
								"astId": 24,
								"contract": "smartC/contracts/Governator.sol:ELECTION_SYSTEM",
								"label": "exists",
								"offset": 0,
								"slot": "3",
								"type": "t_bool"
							},
							{
								"astId": 26,
								"contract": "smartC/contracts/Governator.sol:ELECTION_SYSTEM",
								"label": "qualified",
								"offset": 1,
								"slot": "3",
								"type": "t_bool"
							}
						],
						"numberOfBytes": "128"
					},
					"t_uint256": {
						"encoding": "inplace",
						"label": "uint256",
						"numberOfBytes": "32"
					}
				}
			},
			"userdoc": {
				"kind": "user",
				"methods": {},
				"version": 1
			}
		}
	}
}